:100000000C94C7010C94E4010C94E4010C94E401F9
:100010000C94E4010C94E4010C94E4010C94E401CC
:100020000C94E4010C94E4010C94E4010C94E401BC
:100030000C94E4010C94E4010C94E4010C94E401AC
:100040000C94E4010C94E4010C94E4010C94E4019C
:100050000C94C20A0C94E4010C94E4010C94450B3A
:100060000C94E4010C94E4010C94E4010C94E4017C
:100070000C94E4010C94E4010C94E4010C94E4016C
:100080000C94E4010C94E4010C94E4010C94E4015C
:100090000C94E4010C94E4010C94E4010C94E4014C
:1000A0000C94E4010C94E4010C94E4016E616E0084
:1000B000696E6600000000000000005F000000079D
:1000C000000700147F147F14242A7F2A12231308A8
:1000D000646236495522500005030000001C22418D
:1000E000000041221C0014083E081408083E0808BD
:1000F0000050300000080808080800606000002078
:10010000100804023E5149453E00427F40004261D2
:100110005149462141454B311814127F102745455E
:1001200045393C4A49493001710905033649494975
:1001300036064949291E00363600000056360000B2
:10014000081422410014141414140041221408024B
:1001500001510906324979413E7E1111117E7F49D4
:100160004949363E414141227F4141221C7F494954
:1001700049417F090909013E4149497A7F08080838
:100180007F00417F41002040413F017F0814224110
:100190007F404040407F020C027F7F0408107F3E7A
:1001A0004141413E7F090909063E4151215E7F09D7
:1001B000192946464949493101017F01013F404023
:1001C000403F1F2040201F3F4038403F6314081429
:1001D0006307087008076151494543007F414100AA
:1001E00002040810200041417F0004020102044083
:1001F00040404040000102040020545454787F489D
:100200004444383844444420384444487F385454A3
:100210005418087E0901020C5252523E7F08040411
:100220007800447D40002040443D007F1028440079
:1002300000417F40007C041804787C08040478386E
:10024000444444387C14141408081414187C7C08A2
:100250000404084854545420043F4440203C404087
:10026000207C1C2040201C3C4030403C442810286E
:10027000440C5050503C4464544C440008364100F7
:1002800000007F00000041360800100808100878C0
:100290004641467800407A10F35A00A0724E180981
:1002A0000010A5D4E80000E87648170000E40B54DD
:1002B000020000CA9A3B000000E1F50500008096AC
:1002C0009800000040420F000000A08601000000DE
:1002D000102700000000E803000000006400000098
:1002E00000000A00000000000100000000002C7661
:1002F000D888DC674F0823DFC1DFAE59E1B1B7967C
:10030000E5E3E453C63AE651997696E8E6C28426D8
:10031000EB898C9B62ED407C6FFCEFBC9C9F40F2B4
:10032000BAA56FA5F490055A2AF75C936B6CF96730
:100330006DC11BFCE0E40D47FEF520E6B500D0EDF5
:10034000902E0300943577050080841E080000205D
:100350004E0A000000C80C333333330F986E1283FB
:100360001141EF8D2114893BE65516CFFEE6DB18CF
:10037000D1844B381BF77C1D901DA4BBE424203294
:1003800084725E228100C9F124ECA1E53D2711248D
:100390001FBECFEFDAE0DEBFCDBF11E0A0E0B1E0DD
:1003A000ECE6FDE302C005900D92A636B107D9F741
:1003B00014E0A6E6B1E001C01D92A833B107E1F751
:1003C0000E94C50E0C94B41E0C9400002F923F9214
:1003D0004F925F926F927F928F929F92AF92BF9255
:1003E000CF92DF92EF92FF920F931F93CF93DF9301
:1003F0003C01EC0102E110E00F2EF0E02F2EF0E0C6
:100400003F2EF0E24F2EF1E45F2EF02D0F2EF0E0A4
:100410008F2EF0E09F2EF0E8AF2EFFE3BF2EF02DE1
:100420000F2EF0E0CF2EF0E0DF2EF0E0EF2EF0E028
:10043000FF2EF02DB801882777FD8095982F0E9418
:10044000931A688379838A839B832C823D824E82B0
:100450005F8288869986AA86BB86CC86DD86EE86F4
:10046000FF86065F1F4F65960434110519F78091CA
:100470008F0190919001930127593F4F039709F005
:1004800062C0E90102E110E00F2EF0E02F2EF0E053
:100490003F2EF0E54F2EF1E45F2EF02D0F2EF0E011
:1004A0008F2EF0E09F2EF0E8AF2EFFEBBF2EF02D49
:1004B0000F2EF0E0CF2EF0E0DF2EF0E0EF2EF0E098
:1004C000FF2EF02DB801882777FD8095982F0E9488
:1004D000931A688379838A839B832C823D824E8220
:1004E0005F8288869986AA86BB86CC86DD86EE8664
:1004F000FF86065F1F4F65960434110519F7E30167
:10050000CE52DF4F02E110E00F2EF0E04F2EF0E070
:100510005F2EF0E86F2EF1E47F2EF02D0F2EF0E02D
:100520008F2EF0E09F2EF0E8AF2EFFE3BF2EF02DD0
:100530000F2EF0E0CF2EF0E0DF2EF0E0EF2EF0E017
:10054000FF2EF02D3FC0E90102E110E00F2EF0E098
:100550002F2EF0E03F2EF0E54F2EF1E45F2EF02D30
:100560000F2EF0E08F2EF0E09F2EF0E8AF2EFFE38D
:10057000BF2EF02D0F2EF0E0CF2EF0E0DF2EF0E0BA
:10058000EF2EF0E0FF2EF02DB801882777FD809543
:10059000982F0E94931A688379838A839B832C8285
:1005A0003D824E825F8288869986AA86BB86CC86EB
:1005B000DD86EE86FF86065F1F4F659604341105C3
:1005C00019F79DCFB801882777FD8095982F0E9455
:1005D000931A688379838A839B834C825D826E82BF
:1005E0007F8288869986AA86BB86CC86DD86EE8643
:1005F000FF86065F1F4F65960434110519F7DF91DA
:10060000CF911F910F91FF90EF90DF90CF90BF900F
:10061000AF909F908F907F906F905F904F903F90A2
:100620002F9008958F929F92AF92BF92CF92DF92B8
:10063000FF920F931F93CF93DF936C0180919501ED
:1006400090919601892B09F062C184EF91E090931B
:100650009601809395014601E60110E08A8988237E
:10066000E1F0688179818A819B81288539854A8575
:100670005B850E947D19688379838A839B836C8163
:100680007D818E819F812C853D854E855F850E9471
:100690007D196C837D838E839F831F5F65961F30DA
:1006A000E9F6A0908F01B0909001C50101970297E3
:1006B000B0F5E60110E08A89882369F168817981C3
:1006C0008A819B810E94651A9B01AC01862F90E074
:1006D0008C3491057CF0F60180E020E030E040E8C9
:1006E0005FEB20873187428753878F5F75968F3006
:1006F000C1F715C0222379F4F60180E020E030E054
:1007000040E85FE320873187428753878F5F759684
:100710008F30C1F704C01F5F65961F3061F663E03C
:10072000A616B10409F0B2C0E60110E08A89882358
:1007300099F1688179818A819B810E94651A9B0168
:10074000AC01862F90E08C3491057CF0F60180E0BE
:1007500020E030E040E85FEB208731874287538715
:100760008F5F75968530C1F710C02223A9F4F6017A
:1007700080E020E030E040E85FE320873187428777
:1007800053878F5F75968530C1F7860107591F4FD4
:10079000E80195E0F92E05C01F5F6596153031F62A
:1007A000F4CF8A898823A9F1688179818A819B8124
:1007B0000E94651A9B01AC01862F90E08C34910554
:1007C00084F0F801389685E020E030E040E85FEB07
:1007D00020833183428353838F5F75968A30C1F7BC
:1007E00011C02223B1F4F801389685E020E030E012
:1007F00040E85FE320833183428353838F5F7596A4
:100800008A30C1F786010E521F4FE8018AE0F82EA8
:1008100006C0F39465967AE0F71619F6F3CF8A8945
:10082000882379F1688179818A819B810E94651A88
:100830009B01AC01862F90E08C34910584F0F80187
:1008400038968AE020E030E040E85FEB2083318397
:10085000428353838F5F75968F30C1F717C0222371
:1008600081F4F80138968AE020E030E040E85FE368
:1008700020833183428353838F5F75968F30C1F716
:1008800005C0F39465968FE0F81649F6EEEFFFEF9A
:10089000AE0EBF1EF2E0AF16B104C8F5E60110E0DF
:1008A0008A89882381F16C817D818E819F810E945C
:1008B000651A6B3090F480E020E030E040E85FE3C0
:1008C000F40124873587468757878F5F65E170E09D
:1008D000860E971E8F30A1F71AC0862F90E045979D
:1008E00094F080E020E030E040E85FEBF401248702
:1008F0003587468757878F5F65E170E0860E971EC4
:100900008F30A1F704C01F5F65961F3049F6DF9155
:10091000CF911F910F91FF90DF90CF90BF90AF903C
:100920009F908F900895FC0180E020E030E040E847
:100930005FEB208331834283538324833583468353
:100940005783128A8F5F7596853099F708956F9255
:100950007F928F929F92AF92BF92CF92DF92EF924F
:10096000FF920F931F93CF93DF93EC014B018A8982
:10097000882309F4D7C06C817D818E819F8120E01E
:1009800030E040E85FE30E947D196C837D838E83B5
:100990009F830E94651A6F32B0F080E090E0A0E87B
:1009A000BFEB88839983AA83BB838C839D83AE83AB
:1009B000BF838091690190916A01019790936A01C8
:1009C000809369011A8AA880B980CA80DB8068890F
:1009D00070E0882777FD8095982F0E94931A9B01DD
:1009E000AC01C601B5010E947D1920E030E040E86D
:1009F0005FE30E947C190E94651A762EF401E08064
:100A0000F18002811381C801B7010E94651A662E28
:100A10007616C8F0F401608970E0882777FD80952C
:100A2000982F0E94931A9B01AC01C801B7010E9444
:100A30007D1920E030E040E85FE30E947C190E94CD
:100A4000651A671510F5C601B5010E94651AD62E04
:100A5000661508F466C0F401608970E0882777FDA8
:100A60008095982F0E94931A9B01AC01C801B70191
:100A70000E947D1920E030E040E85FE30E947C198D
:100A80000E94651A6D1508F44CC0698970E08827CA
:100A900077FD8095982F0E94931A2C813D814E817D
:100AA0005F810E947D1920E030E040E85FE30E9412
:100AB0007C190E94651A7B018C01F40164817581A7
:100AC000868197810E94651AE61658F11A8A8091EC
:100AD0008001909181010197909381018093800121
:100AE00080E090E0A0E8BFEB88839983AA83BB8372
:100AF0008C839D83AE83BF838091690190916A014D
:100B0000019790936A018093690180E090E0A0E3EF
:100B1000B2E4F40180839183A283B38381E0828B6A
:100B200001C081E0DF91CF911F910F91FF90EF9075
:100B3000DF90CF90BF90AF909F908F907F906F90FD
:100B400008954F925F926F927F928F929F92AF9291
:100B5000BF92CF92DF92EF92FF920F931F93CF93AA
:100B6000DF936C01FC018289882309F462C0409004
:100B7000690150906A01EB01662477240F2EF0E0A2
:100B80008F2EF0E09F2EF0E8AF2EFFEBBF2EF02D62
:100B9000F60160817181828193810E94651A7B01D7
:100BA0008C01688179818A819B810E94651AE61691
:100BB00091F5F601618970E0882777FD8095982F7F
:100BC0000E94931AF60124813581468157810E9443
:100BD0007D190E94651A7B018C016C817D818E815B
:100BE0009F810E94651AE616B0F0F601128A808293
:100BF0009182A282B38284829582A682B78208946F
:100C0000410851081A8A88829982AA82BB828C8202
:100C10009D82AE82BF820894611C711C6596FCE0C7
:100C20006F16710409F0B4CF50926A0140926901C5
:100C300081E0DF91CF911F910F91FF90EF90DF90B6
:100C4000CF90BF90AF909F908F907F906F905F906C
:100C50004F900895FC0180E020E030E040E85FEB39
:100C60002083318342835383248335834683578390
:100C7000128A8F5F75968F3099F708952F923F9261
:100C80004F925F926F927F928F929F92AF92BF929C
:100C9000CF92DF92EF92FF920F931F93DF93CF9348
:100CA00000D000D0CDB7DEB79C838B83D62EC72E65
:100CB000FC018289882309F42EC180918F019091D3
:100CC00090010397B1F5E42FF0E0EE0FFF1FE95616
:100CD000FE4F80819181181619065CF180916E019A
:100CE00090916F01918380838091BB01882369F487
:100CF000EB81FC81608171818281938120E030E011
:100D000040E85FE30E947C190EC0813091F4EB81D2
:100D1000FC81608171818281938120E030E040E834
:100D20005FE30E947D19EB81FC8160837183828384
:100D30009383EB81FC81648175818681978120E0BA
:100D400030E040E85FE30E947C19EB81FC81648322
:100D50007583868397830E94651A6930D0F0EB8192
:100D6000FC81E080F18002811381C801B70120E09D
:100D700030E040E050E00E94F41987FD0AC0C8014D
:100D8000B70120E030E048EA52E40E94961B882335
:100D9000CCF080E090E0A0E8BFEBEB81FC818083A9
:100DA0009183A283B38384839583A683B783809141
:100DB0006B0190916C01019790936C0180936B0192
:100DC000128AA8C020907A0130907B0140906B017C
:100DD00050906C018D2D9C2D9C0169016624772417
:100DE0000F2EF0E08F2EF0E09F2EF0E8AF2EFFEBFD
:100DF000BF2EF02DEB81FC81608171818281938116
:100E00000E94651A6A83F601E080F18002811381F5
:100E1000C801B7010E94651AFA81F61708F466C086
:100E2000F601608970E0882777FD8095982F0E94F1
:100E3000931A9B01AC01C801B7010E947D1920E003
:100E400030E040E85FE30E947C190E94651AFA8155
:100E50006F1708F44BC0EB81FC816481758186813A
:100E600097810E94651A6983F601E480F580068106
:100E70001781618970E0882777FD8095982F0E94FF
:100E8000931A9B01AC01C801B7010E947D1920E0B3
:100E900030E040E85FE30E947C190E94651AF98106
:100EA0006F1720F1C801B7010E94651A2981261722
:100EB000E8F0EB81FC81128AEB81FC8180829182D7
:100EC000A282B38284829582A682B7820894410866
:100ED0005108F601128A80829182A282B3828482B2
:100EE0009582A682B7820894211C311C0894611C4B
:100EF000711C85E190E0C80ED91E9FE0691671044F
:100F000009F078CF30927B0120927A0150926C01E7
:100F100040926B0181E00F900F900F900F90CF9156
:100F2000DF911F910F91FF90EF90DF90CF90BF90D6
:100F3000AF909F908F907F906F905F904F903F9079
:100F40002F9008954F925F926F927F928F929F920F
:100F5000AF92BF92CF92DF92EF92FF920F931F93C7
:100F6000CF93DF934C01FC018289882309F45AC096
:100F700040906B0150906C01EB01662477240F2E9A
:100F8000F0E0AF2EF0E0BF2EF0E8CF2EFFEBDF2E2B
:100F9000F02D8A898823C1F1F401608171818281F9
:100FA00093810E94651A7B018C01688179818A8115
:100FB0009B810E94651AE61639F5F40164817581FA
:100FC000868197810E94651A7B018C016C817D81ED
:100FD0008E819F810E94651AE616B1F4F401128A8F
:100FE000A082B182C282D382A482B582C682D78215
:100FF0000894410851081A8AA882B982CA82DB8201
:10100000AC82BD82CE82DF820894611C711C659621
:10101000FCE06F16710409F0BCCF50926C01409255
:101020006B0181E0DF91CF911F910F91FF90EF90C5
:10103000DF90CF90BF90AF909F908F907F906F90F8
:101040005F904F9008953F924F925F926F927F9280
:101050008F929F92AF92BF92CF92DF92EF92FF92C8
:101060000F931F93CF93DF933C0140906B015090FF
:101070006C01EB0100E010E00F2EF0E08F2EF0E0AD
:101080009F2EF0E8AF2EFFEBBF2EF02D0F2EF0E0DD
:10109000CF2EF0E0DF2EF0E0EF2EF0E0FF2EF02D6F
:1010A000332433942DC08A89882339F5F301608174
:1010B00071818281938120E030E040E450E40E941D
:1010C0007D19688379838A839B83F30164817581A9
:1010D0008681978120E030E040E85FE30E947C1940
:1010E0006C837D838E839F838C869D86AE86BF8630
:1010F000C886D986EA86FB863A8A0F5F1F4F6596B7
:101100004016510684F6DF91CF911F910F91FF9009
:10111000EF90DF90CF90BF90AF909F908F907F9097
:101120006F905F904F903F900895EF92FF920F93D2
:101130001F93CF93DF937C01162F072F80916B01B4
:1011400090916C0197FF04C010926C0110926B019A
:1011500080916B0190916C010F97A4F480916D01C7
:10116000813081F4CA01612F702F0E942308809181
:101170006B0190916C01019690936C0180936B01CF
:1011800010926D018091760190917701892B11F079
:1011900080E014C084E690E090937701809376011C
:1011A000212F302FC901EC0110E0CE01B701412FF2
:1011B0000E943E0665961F5F1F30B9F7DF91CF9101
:1011C0001F910F91FF90EF9008956F927F928F92F1
:1011D0009F92AF92BF92CF92DF92EF92FF920F93C6
:1011E0001F93CF93DF933C01D62EC72E49015801A0
:1011F00080916B0190916C0197FF04C010926C017B
:1012000010926B0180916B0190916C010F97A4F487
:1012100080916D01813081F4CA016D2D7C2D0E9479
:10122000230880916B0190916C01019690936C0161
:1012300080936B0110926D018091760190917701FE
:10124000892B11F000E021C084E690E090937701B3
:10125000809376012D2D3C2DC901EC0110E0CE01CB
:10126000B301412F0E943E06082FCE01B4010E9417
:10127000A207CE01B5010E94A207CE01B7010E94CC
:10128000A20765961F5F1F3051F7802FDF91CF9126
:101290001F910F91FF90EF90DF90CF90BF90AF9094
:1012A0009F908F907F906F900895FC0180E090E078
:1012B000A8E1B2E480839183A283B38380E090E0CD
:1012C000A0E3B2E484839583A683B78380E090E0B3
:1012D000A0E0B0E080879187A287B3878487958755
:1012E000A687B7870895EF92FF920F931F93CF932E
:1012F000DF93EC0180918D018130B9F4E880F980B1
:101300000A811B81C801B70120E030E040E050E0D5
:101310000E94961B18166CF5C801B70120E030E05A
:1013200040E85FE30E947C1920C080918E018130EB
:1013300001F5E880F9800A811B81C801B70120E02E
:1013400030E040EE50E40E947D1920E030E046EAB3
:1013500052E40E94F419882364F4C801B70120E024
:1013600030E040E85FE30E947D19688379838A83D7
:101370009B8380917201813021F480936D011092E2
:10138000720180918F01909190010297029708F06D
:1013900042C0809189018130D1F4E880F9800A81CE
:1013A0001B81C801B70120E030E040E050E00E941E
:1013B000961B181664F4C801B70120E030E040E83D
:1013C0005FE30E947C19688379838A839B83809181
:1013D0008A01813001F5E880F9800A811B81C8010A
:1013E000B70120E030E040EE50E40E947D1920E09B
:1013F00030E046EA52E40E94F419882364F4C801FC
:10140000B70120E030E040E85FE30E947D19688387
:1014100079838A839B83DF91CF911F910F91FF90F6
:10142000EF90089580E480937C0087E880937A00B1
:10143000089590917C008770987F892B80937C0021
:1014400080917A00806480937A0080917A0086FD92
:10145000FCCF2091780030917900C90108950F9355
:101460001F938C0181E00E94190A20E030EC4FE7C5
:1014700054E420939101309392014093930150934F
:101480009401A0E0B0E0F801608924E530E0261B7B
:101490003109442737FD4095542FBC01CD010E94EE
:1014A000FD1B0E94931A20E030EC4FE754E40E94A9
:1014B000F8190E94601A60933C0270933D02809379
:1014C0003E0290933F02882777FD8095982F0E94D7
:1014D000931AF80160837183828393831F910F9124
:1014E000089580E00E94190A20E030EC4FE754E4B0
:1014F0002093910130939201409393015093940172
:10150000A0E0B0E0BC01CD0128EE33E040E050E0C7
:101510000E94FD1B0E94931A20E030EC4FE754E438
:101520000E94F8190E94601A60933C0270933D0279
:1015300080933E0290933F029B0170936F016093F2
:101540006E0181E0243F38074CF41092BB012C5906
:101550003F4F30936F0120936E01089581E0243F47
:10156000380761F081E08093BB018CE494E0821B3A
:10157000930B90936F0180936E01089582E08093A6
:10158000BB0108951F920F920FB60F9211242F9353
:101590003F934F938F939F93AF93BF93EF93FF939B
:1015A00020E030E0F901EB54FE4F8081880F80830A
:1015B0002F5F3F4F26303105A9F79091B9018FB1C8
:1015C0008295869586958170892B8093B90190913B
:1015D000BA018FB1829586958170892B8093BA016B
:1015E0009091B70189B186958170892B8093B7015D
:1015F0009091B80183B1881F8827881F892B809319
:10160000B8019091B50183B186958170892B809343
:10161000B5019091B60189B18170892B8093B60193
:1016200020E030E041E0D901A757BE4F8C918823DC
:1016300041F4F901EB54FE4F80818F3F11F44C933C
:1016400011C0D901A757BE4F9C91913059F4F901AF
:10165000EB54FE4F8081882329F41C92F901E05954
:10166000FE4F90832F5F3F4F26303105E1F6FF910B
:10167000EF91BF91AF919F918F914F913F912F919A
:101680000F900FBE0F901F9018951F920F920FB6DC
:101690000F9211242F933F938F939F93EF93FF9378
:1016A0008091760190917701892B49F080917601A4
:1016B000909177010297909377018093760120E0D3
:1016C00030E0F901EE0FFF1FE956FE4F8081918156
:1016D000892B29F0808191810297918380832F5FEC
:1016E0003F4F2F30310569F7809195019091960118
:1016F000892B49F0809195019091960102979093E2
:1017000096018093950180917E0190917F01892BB4
:1017100049F080917E0190917F01029790937F0123
:1017200080937E018091780190917901892B49F015
:10173000809178019091790102979093790180933B
:101740007801FF91EF919F918F913F912F910F9091
:101750000FBE0F901F90189580E480937C0087E85F
:1017600080937A008FE30E94751880B38F7980BBD5
:1017700084B18D7784B98AB18C7F8AB984B18C6049
:1017800084B93F9A85B5877F85BDA1E8B0E08C918B
:10179000877F8C9385B5836085BD85B58B7F85BD3F
:1017A000EEE6F0E08081816080838C9181608C9393
:1017B0008C91897F8C93EFE6F0E08081816080835B
:1017C0007894089589E068E140E051E00E941C1897
:1017D00008950F931F93DF93CF93CDB7DEB7609734
:1017E0000FB6F894DEBF0FBECDBF00D000D000D042
:1017F000EDB7FEB731968E010F5F1F4FADB7BEB785
:1018000012961C930E9311978AE091E09383828342
:1018100080918F0190919001958384830E94F51DA2
:101820008DB79EB706960FB6F8949EBF0FBE8DBFBC
:1018300080E068E149E151E00E941C1889E068E11C
:10184000A8010E941C1860960FB6F894DEBF0FBE68
:10185000CDBFCF91DF911F910F9108950F931F93EB
:10186000CF93DF9308EC10E0C1E0D0E07E9B0CC08A
:1018700088EE93E028EC30E0F9013197F1F7019719
:10188000D9F77E99FECF1FC07D9BF0CF88EE93E005
:10189000F8013197F1F70197D9F77D99FECF809143
:1018A0008F019091900101969093900180938F0108
:1018B000049724F0D0939001C0938F010E94E90B0C
:1018C0000E944118D3CFDF91CF911F910F910895BE
:1018D0000F931F93DF93CF93CDB7DEB760970FB60B
:1018E000F894DEBF0FBECDBF8DB79EB70A970FB677
:1018F000F8949EBF0FBE8DBFEDB7FEB731968E0137
:101900000F5F1F4FADB7BEB712961C930E93119782
:101910008AE291E09383828380917A0190917B01A6
:101920009583848380918001909181019783868340
:1019300080918F0190919001918780870E94F51D81
:101940008DB79EB70A960FB6F8949EBF0FBE8DBF97
:1019500080E060E04CE351E00E941C1880E060E011
:10196000A8010E941C1880E068E043E528E00E947E
:10197000821660960FB6F894DEBF0FBECDBFCF9132
:10198000DF911F910F9108954F925F926F927F9216
:101990008F929F92AF92BF92CF92EF920F931F932D
:1019A000CF93DF933C014C01C0E0D0E0462E55249C
:1019B000BE01640D751D882777FD8095982F0E94C4
:1019C000931AAB01BC01C40100E010E024E032E452
:1019D000EE24E394CC24C394A5E5AA2EA1E0BA2E6C
:1019E0000E94C318219685E190E0880E991EC630AA
:1019F000D105F1F6FEE78F2E912C860C971CC0E0E6
:101A0000D0E0BE01640D751D882777FD8095982F65
:101A10000E94931AAB01BC01C40100E010E028E071
:101A200032E4EE24E394CC24C394E5E5AE2EE1E069
:101A3000BE2E0E94C318219685E190E0880E991E63
:101A4000C630D105F1F6DF91CF911F910F91EF9044
:101A5000CF90BF90AF909F908F907F906F905F904E
:101A60004F9008958F929F92AF92BF92CF92EF9234
:101A70000F931F93CF93DF93EC0188249924CE0119
:101A800040E050E060E87FEB8A019B01EE24E394A4
:101A9000CC24C394B0E6AB2EB1E0BB2E0E94C31899
:101AA0001A8A0894811C911C65968FE0881691040F
:101AB00031F7DF91CF911F910F91EF90CF90BF90B1
:101AC000AF909F908F9008958F929F92AF92BF9208
:101AD000CF92EF920F931F93CF93DF93EC01882463
:101AE0009924CE0140E050E060E87FEB8A019B0141
:101AF000EE24E394F3E0CF2EEDE5AE2EE1E0BE2E32
:101B00000E94C3181A8A0894811C911C659685E06E
:101B10008816910431F7DF91CF911F910F91EF90CB
:101B2000CF90BF90AF909F908F900895BF92CF922B
:101B3000DF92EF92FF920F931F93CF93DF93EC010D
:101B4000162F072F0E94CB1C6FE070E00E941C1C18
:101B5000A5E1DA2E06C00E94CB1C6FE070E00E9467
:101B60001C1C8D9D70011124EC0EFD1EF701828955
:101B7000882389F3C0906901D0906A01812F902F4A
:101B80009C01E90100E010E0BB24B39425C08A89E0
:101B90008823F9F4F701608171818281938120E0CB
:101BA00030E040E450E40E947D19688379838A83A1
:101BB0009B83F701648175818681978120E030E005
:101BC00040E450E40E947D196C837D838E839F8363
:101BD000BA8A0F5F1F4F6596C016D106C4F6DF9113
:101BE000CF911F910F91FF90EF90DF90CF90BF901A
:101BF00008954F925F926F927F928F929F92AF92D1
:101C0000BF92CF92DF92EF92FF920F931F93CF93E9
:101C1000DF93FC016B012A013901480157018091D2
:101C2000690190916A0197FF04C010926A011092B5
:101C300069018091690190916A010597CCF48091C6
:101C4000780190917901892B99F480ED97E0909338
:101C5000790180937801CF01B6010E94960D8091A1
:101C6000690190916A01019690936A0180936901DC
:101C700080917E0190917F01892B11F0FF2420C07B
:101C800084EF91E090937F0180937E01C0E0D0E0EB
:101C900086010C0F1D1FC801B2010E94A704F82E77
:101CA000C801B3010E94A105C801B4010E94A105A9
:101CB000C801B5010E94A1056596C936D10541F755
:101CC0008F2DDF91CF911F910F91FF90EF90DF90BB
:101CD000CF90BF90AF909F908F907F906F905F90CC
:101CE0004F900895EF92FF920F931F93CF93DF933E
:101CF0009C018B017A018091690190916A0197FFA3
:101D000004C010926A01109269018091690190915A
:101D10006A010597CCF48091780190917901892B23
:101D200099F480ED97E09093790180937801C9014F
:101D3000B8010E94960D8091690190916A01019607
:101D400090936A018093690180917E0190917F0157
:101D5000892B11F080E012C084EF91E090937F0115
:101D600080937E01C0E0D0E0C8018C0F9D1FB701B9
:101D70000E94A7046596C936D105B1F7DF91CF91CE
:101D80001F910F91FF90EF9008952F923F924F92E5
:101D90005F926F927F928F929F92AF92BF92CF92FB
:101DA000DF92EF92FF920F931F93DF93CF93CDB704
:101DB000DEB7CE5ED5400FB6F894DEBF0FBECDBF06
:101DC00080E88093610081E0809361000E94AC0B09
:101DD00084E00E94190A0E94D01C13E7812E13E0B0
:101DE000912E8C0E9D1EBCED6B2EB3E07B2E6C0EE7
:101DF0007D1EC40140E050E060E070E000E010E0D3
:101E000020E831E4A8E0EA2EF3E0CF2EEEE4AE2E97
:101E1000E1E0BE2E0E94C31825E130E0820E931E41
:101E20008614970431F70CED802E03E0902E8C0E73
:101E30009D1E15E4612E14E0712E6C0E7D1EC401F2
:101E400040E050E060E070E000E010E020E831E4C5
:101E5000B8E0EB2EA3E0CA2EFEE4AF2EF1E0BF2ED9
:101E60000E94C31885E190E0880E991E861497049D
:101E700031F7DE01AB5BBB4FC751DA4FB983A883A3
:101E8000C95ED540FE01E255FB4FC551DA4FF983DB
:101E9000E883CB5ED540C751DA4F88819981C95E0E
:101EA000D54040E050E060E070E000E010E020E865
:101EB00031E4E8E0EE2EB3E0CB2EAEE4AA2EA1E0B2
:101EC000BA2E0E94C318C751DA4F28813981C95EE2
:101ED000D5402B5E3F4FC751DA4F39832883C95E07
:101EE000D540C551DA4F88819981CB5ED5402817FE
:101EF000390789F64E010894811C911CC40140E009
:101F000050E060E070E000E010E020E232E4F4E055
:101F1000CF2EE1E5AE2EE1E0BE2E0E94C31826E1F1
:101F2000222E312C2C0E3D1EC1010E94640DC75182
:101F3000DA4F88819981C95ED5400E94320D0E9496
:101F4000411893E7A92E93E0B92EAC0EBD1E8FE782
:101F5000482E512C4C0E5D1EDE01A751BA4FC351C5
:101F6000DA4FB983A883CD5ED5400BE7C02E01E0E0
:101F7000D02ECC0EDD1E17E7612E12E0712E6C0EF6
:101F80007D1E81E090E09093900180938F011092EC
:101F90007B0110927A0183E090E09093810180931D
:101FA00080010E9447160E94E90B0E9441180E947E
:101FB0002E0C0E94471684EF91E090939601809337
:101FC000950190937F0180937E0184E690E0909349
:101FD00077018093760180E090E024EF31E0FC010E
:101FE000EE0FFF1FE956FE4F3183208301968F309D
:101FF0009105A9F710926A011092690110926C0183
:1020000010926B0180918F01909190018130910528
:1020100009F0A5C00E94471680916801882309F045
:102020004AC0C1010E94640DCE0182559B4F0E949F
:10203000320DC1010E949304CE0182559B4F0E9434
:102040002A06C5010E94E60180E090E0A8E1B2E422
:1020500089839A83AB83BC8380E090E0A0E3B2E401
:102060008D839E83AF83B88780E090E0A0E0B0E0EE
:1020700089879A87AB87BC878D879E87AF87B88B08
:102080008E010D581C4FE1E0D8015296EC93C80127
:102090000E94EB180B5E1F4FC551DA4F2881398122
:1020A000CB5ED5400217130771F7C4010E94EB18ED
:1020B00031E030936801C4010E947309C5010E9498
:1020C0001203C501B101A4010E94720EC501BE0137
:1020D00062557B4FA4010E9495088E010D581C4F3C
:1020E000C8010E94EB180B5E1F4FC551DA4F888163
:1020F0009981CB5ED5400817190791F78101C80176
:102100000E94EB180B5E1F4F04151505C1F78E01D9
:1021100002551B4FC8010E94EB180B5E1F4FC351A5
:10212000DA4FA881B981CD5ED5400A171B0791F718
:10213000C4010E94EB180E94680C0E944118809113
:10214000800190918101181619060CF003C280914C
:102150007A0190917B010F970CF45CCFFBC1823028
:10216000910509F0FAC00E94471680916801882302
:1021700009F07DC0C1010E94640DCE0182559B4FC4
:102180000E94320DC1010E949304CE0182559B4FE3
:102190000E942A06C5010E94E60180E090E0A8E1C5
:1021A000B2E489839A83AB83BC8380E090E0A0E3B0
:1021B000B2E48D839E83AF83B88780E090E0A0E097
:1021C000B0E089879A87AB87BC878D879E87AF876A
:1021D000B88BC20160E10E94C40CC60166E20E9495
:1021E000C40CC3016DE30E94C40C8E010D581C4F3A
:1021F000E1E0D8015296EC93C8010E94EB180B5E07
:102200001F4FC551DA4F28813981CB5ED540021767
:10221000130771F78201E1E0D8015296EC93C801EF
:102220000E94EB180B5E1F4F0C151D05A1F78601D0
:10223000E1E0D8015296EC93C8010E94EB180B5EC6
:102240001F4F06151705A1F78301E1E0D80152964B
:10225000EC93C8010E94EB180B5E1F4F0A151B057B
:10226000A1F7C4010E94EB18F1E0F0936801C401EA
:102270000E947309C4010E942F0AC5010E94120323
:10228000C501B101A4019201860173010E94F90DFB
:10229000C501BE0162557B4FA40192010E94E50871
:1022A0008E010D581C4FC8010E94EB180B5E1F4F8A
:1022B000C551DA4F28813981CB5ED540021713070B
:1022C00091F78101C8010E94EB180B5E1F4F0415A6
:1022D0001505C1F78E0102551B4FC8010E94EB186E
:1022E0000B5E1F4FC351DA4F88819981CD5ED54077
:1022F0000817190791F78201C8010E94EB180B5EBD
:102300001F4F0C151D05C1F78601C8010E94EB186F
:102310000B5E1F4F06151705C1F78301C8010E9408
:10232000EB180B5E1F4F0A151B05C1F7C4010E9475
:10233000EB180E94680C0E944118809180019091D6
:102340008101181619060CF005C180917A0190914F
:102350007B010F970CF407CFFDC0039709F0FCC079
:102360000E94471680916801882309F07DC0C10151
:102370000E94640DCE0182559B4F0E94320DC10117
:102380000E949304CE0182559B4F0E942A06C501EC
:102390000E94E60180E090E0A8E1B2E489839A839C
:1023A000AB83BC8380E090E0A0E3B2E48D839E83A6
:1023B000AF83B88780E090E0A0E0B0E089879A879B
:1023C000AB87BC878D879E87AF87B88BC20160E1E2
:1023D0000E94C40CC60166E20E94C40CC3016DE3F6
:1023E0000E94C40C8E010D581C4FE1E0D80152969A
:1023F000EC93C8010E94EB180B5E1F4FC551DA4FDA
:1024000028813981CB5ED5400217130771F782010D
:10241000E1E0D8015296EC93C8010E94EB180B5EE4
:102420001F4F0C151D05A1F78601E1E0D80152965A
:10243000EC93C8010E94EB180B5E1F4F06151705A1
:10244000A1F78301E1E0D8015296EC93C8010E9404
:10245000EB180B5E1F4F0A151B05A1F7C4010E9464
:10246000EB18F1E0F0936801C4010E947309C40104
:102470000E942F0A0E94710AC5010E941203C50121
:10248000B101A4019201860173010E94F90DC501F9
:10249000BE0162557B4FA40192010E94E5088E01A6
:1024A0000D581C4FC8010E94EB180B5E1F4FC751FF
:1024B000DA4F28813981C95ED5400217130791F799
:1024C0008101C8010E94EB180B5E1F4F0415150512
:1024D000C1F78E0102551B4FC8010E94EB180B5E1D
:1024E0001F4FC351DA4F88819981CD5ED5400817BF
:1024F000190791F78201C8010E94EB180B5E1F4F6C
:102500000C151D05C1F78601C8010E94EB180B5E72
:102510001F4F06151705C1F78301C8010E94EB186C
:102520000B5E1F4F0A151B05C1F7C4010E94EB1873
:102530000E94680C0E944118809180019091810155
:10254000181619063CF480917A0190917B010F973F
:102550000CF406CF109268010E94471689E068E1EA
:1025600040E051E00E941C180E94411888E893E165
:1025700028EC30E0F9013197F1F70197D9F701CD57
:10258000A1E1B0E0E6ECF2E10C942F1C3C017F8766
:102590006E876A01FC0117821682838181FD03C068
:1025A0006FEF7FEF6FC39E012F5F3F4F398B288BFB
:1025B000F3012381EE85FF8523FD859123FF819122
:1025C000FF87EE87882309F45AC3853251F4EE85DC
:1025D000FF8523FD859123FF8191FF87EE8785325B
:1025E00029F490E0B3010E94C91DE2CF982F10E0BA
:1025F000882499241032B0F49B3269F09C3228F47C
:10260000903251F0933271F40BC09D3239F0903317
:1026100049F4116028C01260146025C0186023C0FE
:10262000106121C017FD2AC0892F80538A3078F4A9
:1026300016FF06C0FAE09F9E902C1124980E13C03E
:102640003AE0839E802C1124880E10620CC09E32CA
:1026500021F416FD14C3106406C09C3611F41068F2
:1026600002C0983659F4EE85FF8523FD959123FF2E
:102670009191FF87EE87992309F0BCCF892F85546C
:10268000833020F4812F8061905E07C0892F8556AA
:10269000833008F09FC1812F8F7E86FD02C076E0D7
:1026A000972E6FE3F62EF822953619F4F0E4FF2A00
:1026B00007C0963619F420E8F22A02C091109A94C5
:1026C000F7FE0AC03BE3391518F45CE3B52E02C0EF
:1026D000B92CB39427E009C047E0491520F4BB2486
:1026E00047E0942EF7CF292DBB24C60104969D8781
:1026F0008C87F6016081718182819381AE014F5F89
:102700005F4F0B2D0E94DB1C6C010981202E3324AE
:1027100000FF04C003FD02C01DE209C0F1FE02C0BB
:102720001BE205C0F2FC02C010E001C010E2C101D2
:102730008C709070892BB9F1112311F483E001C0E2
:1027400084E0881510F088240AC0881AF3FC07C0BA
:1027500080E290E0B3010E94C91D8A94C9F7112359
:1027600029F0812F90E0B3010E94C91D23FE03C010
:102770000CEA10E00EC000EB10E00BC0E114F10415
:1027800009F0805290E0B3010E94C91D0F5F1F4FF6
:1027900005C0EF2CFF24F0E1EF22FF24F801849123
:1027A000882361F714C1F7FE12C0BC0C24FE04C0DC
:1027B0008A81813309F4BA941B141CF0BB24B394AE
:1027C0002DC0F8E0FB1550F538E0B32E27C0F6FC1D
:1027D00025C0892D90E08C159D054CF02CEFC2167C
:1027E0002FEFD20624F030E8F32A01C09A94992002
:1027F00049F0E2E0F0E0EC0FFD1FE90DF11D8081F2
:102800008033A1F3F7FE0AC0B92CB394892D90E070
:10281000C816D90614F0992401C09C18F7FC03C00F
:1028200025E030E009C01C141D041CF021E030E05C
:1028300003C096012F5F3F4F112311F02F5F3F4FD1
:10284000992029F0892D90E00196280F391F882DB5
:1028500090E02817390714F0882401C0821A4F2C01
:102860005524C20189709070892B39F008C080E22C
:1028700090E0B3010E94C91D8A948820C1F71123FA
:1028800029F0812F90E0B3010E94C91D43FE07C0CB
:1028900008C080E390E0B3010E94C91D8A9488209B
:1028A000C1F7F7FE46C08601D7FE02C000E010E087
:1028B00076010894E11CF11CE01AF10A41E050E0B5
:1028C0004C0F5D1FE40EF51E26014B185108892D93
:1028D00090E0AA24BB24A81AB90A5FEF0F3F15079E
:1028E00029F48EE290E0B3010E94C91DC016D10602
:1028F00034F0401651061CF4F701808101C080E3DA
:10290000015010400894E11CF11C0A151B052CF025
:1029100090E0B3010E94C91DE0CF0C151D0539F4EC
:102920009A81963318F4953311F424FE81E390E0F4
:102930004BC08A81813309F00F7E90E0B3010E9481
:10294000C91D9920A1F08EE290E0B3010E94C91D3B
:1029500012E0E1E0F0E0EC0FFD1FE10FF11D1F5F61
:10296000808190E0B3010E94C91D9A9491F744FCC4
:1029700003C085E690E002C085E490E0B3010E94C8
:10298000C91DD7FC05C0C114D10441F404FF06C021
:10299000D094C194D108D3948DE201C08BE290E031
:1029A000B3010E94C91D80E305C08F5F26EF3FEF92
:1029B000C20ED31E3AE0C316D104BCF790E0B301B7
:1029C0000E94C91DC601C096B3010E94C91DCC84D6
:1029D000DD8452C1933631F0933799F0933509F085
:1029E00059C023C0F601808189835E010894A11C2F
:1029F000B11C22E030E0C20ED31E21E0E22EF12C09
:102A000012C0F601A080B18016FD03C06FEF7FEF0A
:102A100002C0692D70E022E030E0C20ED31EC50175
:102A20000E94BE1D7C011F7713C0F601A080B180FB
:102A300016FD03C06FEF7FEF02C0692D70E022E04A
:102A400030E0C20ED31EC5010E94B31D7C01106888
:102A500013FF07C01BC080E290E0B3010E94C91DB4
:102A60008A94882D90E0E816F906A8F30FC0F501C6
:102A700017FD859117FF81915F0190E0B3010E94DE
:102A8000C91D81108A940894E108F108E114F10449
:102A900071F7F2C0943611F0993689F517FF08C026
:102AA000F601208131814281538184E090E00AC0A7
:102AB000F601808191819C01442737FD4095542F78
:102AC00082E090E0C80ED91E9FE6F92EF12257FF52
:102AD00009C050954095309521953F4F4F4F5F4F1E
:102AE00090E8F92ACA01B901AE014F5F5F4F2AE0B1
:102AF00030E00E94191EE82EE889EE1A41C0953791
:102B000021F41F7E2AE030E01CC0197F9F3661F05F
:102B1000903720F4983509F0B2C00FC0903739F0E3
:102B2000983709F0ACC004C028E030E00AC010615A
:102B300014FD146020E130E004C014FD166020E1B3
:102B400032E017FF08C0F6016081718182819381B4
:102B500044E050E008C0F60180819181BC0180E032
:102B600090E042E050E0C40ED51EAE014F5F5F4FD3
:102B70000E94191EE82E5889E51A8FE7F82EF122D7
:102B8000F6FE0BC08EEFF822E91438F4F4FE07C00D
:102B9000F2FC05C09FEEF92202C01E2D01C0192DC6
:102BA000F4FE0DC0FE01EE0DF11D8081803319F49D
:102BB000E9EEFE2208C01F5FF2FE05C003C08F2DA4
:102BC000867809F01F5F0F2DF3FC14C0F0FE0FC0D4
:102BD000181510F09E2C0BC09E2C980C911A182DD5
:102BE00006C080E290E0B3010E94C91D1F5F181566
:102BF000C0F304C0181510F4811A01C0882404FF22
:102C00000FC080E390E0B3010E94C91D02FF1DC008
:102C100001FD03C088E790E00EC088E590E00BC09E
:102C2000802F867891F001FF02C08BE201C080E224
:102C3000F7FC8DE290E0B3010E94C91D06C080E35D
:102C400090E0B3010E94C91D9A94E914C0F3EA947C
:102C5000E1E0F0E0EC0FFD1FEE0DF11D808190E052
:102C6000B3010E94C91DEE2091F706C080E290E0FA
:102C7000B3010E94C91D8A948820C1F799CCF30141
:102C800066817781CB016196E2E10C944B1CE0E414
:102C9000F2E0119284E0E833F807D9F7089584351B
:102CA00080F5603370F5262F26952695269567705A
:102CB00090E0442399F0E4E52E9FF0011124E80F01
:102CC000F91FE05CFD4F81E090E002C0880F991F82
:102CD0006A95E2F72081282B20830895E4E52E9F52
:102CE000F0011124E80FF91FE05CFD4F81E090E056
:102CF00002C0880F991F6A95E2F7809520812823EA
:102D0000208308952F923F924F925F926F927F920D
:102D10008F929F92AF92BF92CF92DF92EF92FF92EB
:102D20000F931F93DF93CF93CDB7DEB72D970FB6D9
:102D3000F894DEBF0FBECDBFD82EC62E142F022FA3
:102D40008417F9F4A62EBB24E22EFF240EC08D2D8D
:102D50006A2D41E00E944F16C01620F40894A11C71
:102D6000B11C03C00894A108B108C01628F4EA14E5
:102D7000FB040CF4FEC0EBCFAE14BF040CF4F9C09E
:102D8000E6CF282F30E06017F9F4C9015C01E42E8A
:102D9000FF240EC08A2D6C2D41E00E944F16D116E3
:102DA00020F40894A11CB11C03C00894A108B10828
:102DB000D11628F4EA14FB040CF4DBC0EBCFAE14FC
:102DC000BF040CF4D6C0E6CF842F90E09A838983A9
:102DD000C9015C0169817A81681B790B882777FDBD
:102DE0008095982F0E94931A6F83788789879A8796
:102DF000202E33244C2C5524B101641975098827E1
:102E000077FD8095982F0E94931A3B014C012F81EA
:102E1000388549855A850E94F8196B837C838D8398
:102E20009E8320E030E040E050E00E94961B87FF48
:102E30000DC0C401B30190582F81388549855A854A
:102E40000E94F8196B837C838D839E830F2EF0E0A4
:102E5000CF2EF0E0DF2EF0E0EF2EF0E0FF2EF02D91
:102E600070C0AB868A2D642D41E00E944F16C701C9
:102E7000B6012B813C814D815E810E947D1931C05C
:102E80008B85642D41E00E944F161D861C86C4016F
:102E9000B30120E030E040E050E00E94961B18169D
:102EA00024F4E1E0F0E0FD87EC8700E010E0C401ED
:102EB000B30120E030E040E050E00E94F4198823A4
:102EC00014F401E010E08C859D85801B910B480E69
:102ED000591EC701B60120E030E040E85FE30E94E0
:102EE0007C196B017C0120E030E040E05FE30E9450
:102EF000961B88239CF0C401B30120E030E040E041
:102F000050E00E94961B18162CF4241435040CF083
:102F1000B7CF04C0421453040CF0B2CF6F81788550
:102F200089859A8520E030E040E050E00E94961BC1
:102F3000181624F40894A11CB11C03C00894A1081D
:102F4000B1086F81788589859A8520E030E040E07E
:102F500050E00E94961B181634F4E981FA81EA15B4
:102F6000FB053CF07ECF89819A81A816B9060CF04A
:102F700078CF2D960FB6F894DEBF0FBECDBFCF91A0
:102F8000DF911F910F91FF90EF90DF90CF90BF9056
:102F9000AF909F908F907F906F905F904F903F90F9
:102FA0002F9008959F92AF92BF92CF92DF92EF92AF
:102FB000FF920F931F93CF93DF93982EC62E85E039
:102FC000489FE0011124C05AD04000E081E0A82EC3
:102FD000B12C18C0612F6C0DA501012E02C0440F49
:102FE000551F0A94E2F74E215F21012E02C055952C
:102FF00047950A94E2F78D2D0E944F161F5F1830F7
:1030000049F70F5F053061F0FE01E00FF11DEC5450
:10301000FF4F10E0E491D02ED90CEE2EFF24EFCF1D
:10302000DF91CF911F910F91FF90EF90DF90CF90A4
:10303000BF90AF909F900895EF92FF920F931F93D0
:10304000CF93DF93F82E062F142F242F352FC9018D
:10305000EC0195E0E92E08C08E9DC00111248F0D72
:10306000602F0E94D21721969E01211B822F48813A
:10307000442391F7DF91CF911F910F91FF90EF9033
:103080000895CF93DF9380E060E00E94B618C0E41B
:10309000D2E081E069910E94541884E0C833D807D7
:1030A000C1F7DF91CF91089595B18295880F807E09
:1030B0009F7D982B95B95F9827E030E070E08F985E
:1030C000CB01022E02C0959587950A94E2F780FF06
:1030D00002C02E9A01C02E988F9A215030408FEF57
:1030E0002F3F380761F75F9A08951F93182F579A5B
:1030F000249A259A269A879A2C985F9A2C9A80E08F
:1031000061E20E945418106880E0612F0E945418F8
:1031100080E064E00E94541880E063E10E9454184B
:1031200080E06CE00E94541880E060E20E94541835
:1031300080E06CE00E94541880E060E40E94541823
:1031400080E060E80E9454181F910895CF93DF93A8
:10315000C0E0D0E081E060E00E945418219681E058
:10316000C83FD807B9F7DF91CF9108951F93182F63
:10317000606480E00E945418106880E0612F0E9413
:1031800054181F910895AF92BF92CF92EF920F9370
:103190001F93FC01408351836283738304831583EF
:1031A00026833783E08AC18AB48AA38A81E0828B2E
:1031B00080E090E0A0E0B0E080879187A287B387AD
:1031C00084879587A687B7871F910F91EF90CF903F
:1031D000BF90AF9008953F924F925F926F927F920F
:1031E0008F929F92AF92BF92CF92DF92EF92FF9217
:1031F0000F931F93CF93DF93EC018A89882309F4FF
:1032000069C0688970E0882777FD8095982F0E94B3
:10321000931A20E030E040E05EE30E949A1B0E9497
:10322000E1190E94651A362E882447C0092D10E046
:10323000B801882777FD8095982F0E94931A20E087
:1032400030E040E05EE30E949A1B0E94CE1A6B01C0
:103250007C01688179818A819B810E94651AA92CF1
:10326000A60E6C817D818E819F810E94651AB82C8B
:10327000B60EC301B2010E94931AA70196010E94E3
:103280007D190E94601AEB89FC89E60FF71F4081C7
:1032900050E0009510950770107002C05595479545
:1032A0000A95E2F741708A2D6B2D0E944F16939478
:1032B0008889981608F4BACF83948989881650F4BF
:1032C000839CC001112499242C01662457FC60942E
:1032D000762CEECFDF91CF911F910F91FF90EF9061
:1032E000DF90CF90BF90AF909F908F907F906F9026
:1032F0005F904F903F9008955058BB27AA270ED05B
:10330000C4C1B5D130F0BAD120F031F49F3F11F4EF
:103310001EF4AAC10EF4E095E7FB77C1E92FC6D1F0
:1033200080F3BA17620773078407950718F071F4E2
:103330009EF5F5C10EF4E0950B2EBA2FA02D0B01D2
:10334000B90190010C01CA01A0011124FF27591BEA
:1033500099F0593F50F4503E68F11A16F040A22FF0
:10336000232F342F4427585FF3CF46953795279561
:10337000A795F0405395C9F77EF41F16BA0B620B60
:10338000730B840BBAF09150A1F0FF0FBB1F661FA7
:10339000771F881FC2F70EC0BA0F621F731F841FEA
:1033A00048F4879577956795B795F7959E3F08F010
:1033B000B3CF9395880F08F09927EE0F97958795CF
:1033C000089596D180F09F3740F491110EF4A8C172
:1033D00060E070E080E89FE3089526F01B16611D11
:1033E000711D811D18C132C1ECD008F481E008952F
:1033F0000CD04BC143D140F03AD130F021F45F3FC3
:1034000019F003C151118CC12FC150D198F39923E8
:10341000C9F35523B1F3951B550BBB27AA27621798
:103420007307840738F09F5F5F4F220F331F441FDD
:10343000AA1FA9F333D00E2E3AF0E0E830D0915015
:103440005040E695001CCAF729D0FE2F27D0660F02
:10345000771F881FBB1F261737074807AB07B0E841
:1034600009F0BB0B802DBF01FF2793585F4F2AF057
:103470009E3F510568F0C9C053C15F3FECF3983ED1
:10348000DCF3869577956795B795F7959F5FC9F7B4
:10349000880F911D9695879597F90895E1E0660F3D
:1034A000771F881FBB1F621773078407BA0720F0B6
:1034B000621B730B840BBA0BEE1F88F7E09508951F
:1034C00004D06894B1112CC10895F8D088F09F57AA
:1034D00090F0B92F9927B751A0F0D1F0660F771F60
:1034E000881F991F1AF0BA95C9F712C0B13081F040
:1034F00016D1B1E0089513C1672F782F8827B85FE0
:1035000039F0B93FCCF3869577956795B395D9F7A0
:103510003EF490958095709561957F4F8F4F9F4FAA
:103520000895E89409C097FB3EF4909580957095B6
:1035300061957F4F8F4F9F4F9923A9F0F92F96E9FF
:10354000BB279395F695879577956795B795F11174
:10355000F8CFFAF4BB0F11F460FF1BC06F5F7F4F11
:103560008F4F9F4F16C0882311F096E911C0772323
:1035700021F09EE8872F762F05C0662371F096E82C
:10358000862F70E060E02AF09A95660F771F881FFB
:10359000DAF7880F9695879597F90895A9D080F066
:1035A0009F3740F491110EF0BBC060E070E080E8FE
:1035B0009FEB089526F41B16611D711D811D2BC004
:1035C00045C0990F0008550FAA0BE0E8FEEF16164C
:1035D0001706E807F907C0F012161306E407F50707
:1035E00098F0621B730B840B950B39F40A2661F07B
:1035F000232B242B252B21F408950A2609F4A1401E
:10360000A6958FEF811D811D089597F99F6780E82A
:1036100070E060E00895882371F4772321F09850DA
:10362000872B762F07C0662311F499270DC0905180
:10363000862B70E060E02AF09A95660F771F881F4E
:10364000DAF7880F9695879597F908959F3F31F09F
:10365000915020F4879577956795B795880F911DC0
:103660009695879597F908959FEF80EC089500242B
:103670000A941616170618060906089500240A94D7
:1036800012161306140605060895092E0394000C5D
:1036900011F4882352F0BB0F40F4BF2B11F460FFEC
:1036A00004C06F5F7F4F8F4F9F4F089557FD905815
:1036B000440F551F59F05F3F71F04795880F97FBF6
:1036C000991F61F09F3F79F08795089512161306B0
:1036D0001406551FF2CF4695F1DF08C016161706DF
:1036E0001806991FF1CF8695710561050894089514
:1036F000E5DFA0F0BEE7B91788F4BB279F3860F478
:103700001616B11D672F782F8827985FF7CF8695FB
:1037100077956795B11D93959639C8F30895E89408
:10372000BB2766277727CB0197F908954ADF08F46E
:103730008FEF08950BD0A9CF9ADF28F09FDF18F004
:10374000952309F062CF90CF1124EACFAFDFA0F329
:10375000959FD1F3950F50E0551F629FF001729F26
:10376000BB27F00DB11D639FAA27F00DB11DAA1F45
:10377000649F6627B00DA11D661F829F2227B00D92
:10378000A11D621F739FB00DA11D621F839FA00D1D
:10379000611D221F749F3327A00D611D231F849F6D
:1037A000600D211D822F762F6A2F11249F575040C4
:1037B0008AF0E1F088234AF0EE0FFF1FBB1F661F5F
:1037C000771F881F91505040A9F79E3F510570F018
:1037D0001CCFA6CF5F3FECF3983EDCF38695779540
:1037E0006795B795F795E7959F5FC1F7FE2B880F13
:1037F000911D9695879597F90895629FD001739FC3
:10380000F001829FE00DF11D649FE00DF11D929F7C
:10381000F00D839FF00D749FF00D659FF00D9927BB
:10382000729FB00DE11DF91F639FB00DE11DF91FDF
:10383000BD01CF011124089597FB092E07260AD058
:1038400077FD04D043D006D000201AF4709561951E
:103850007F4F0895F6F7909581959F4F08952F9289
:103860003F924F925F926F927F928F929F92AF9210
:10387000BF92CF92DF92EF92FF920F931F93CF935D
:10388000DF93CDB7DEB7CA1BDB0B0FB6F894DEBFF4
:103890000FBECDBF09942A88398848885F846E841A
:1038A0007D848C849B84AA84B984C884DF80EE8064
:1038B000FD800C811B81AA81B981CE0FD11D0FB66D
:1038C000F894DEBF0FBECDBFED010895AA1BBB1B50
:1038D00051E107C0AA1FBB1FA617B70710F0A61B10
:1038E000B70B881F991F5A95A9F780959095BC0131
:1038F000CD010895A0E0B0E0E0E8FCE10C94371CB5
:10390000EC01A880B980CA80DB80A114B104C10495
:10391000D10441F484E2A82E89EDB82E8BE5C82E9F
:1039200087E0D82EC601B5012DE133EF41E050E02C
:103930000E94771E27EA31E440E050E00E94FD1B20
:103940007B018C01C601B5012DE133EF41E050E070
:103950000E94771ECA01B9012CEE34EF4FEF5FEFE2
:103960000E94FD1B6E0D7F1D801F911F97FF04C0DD
:103970006150704080409048688379838A839B833C
:103980009B013F77C901CDB7DEB7EAE00C94531C29
:103990000E947A1C089581E691E00E947A1C0895A5
:1039A000A0E0B0E08093610190936201A093630175
:1039B000B09364010895283008F027E03327DA0136
:1039C000990F311D87FD916000966105710539F4ED
:1039D00032602E5F3D9330E32A95E1F708959F3FD3
:1039E00030F080387105610509F03C5F3C5F3D9324
:1039F000913008F08068911DDF93CF931F930F9350
:103A0000FF92EF92192F987F9695E92F96959695AC
:103A1000E90FFF27E251FD4F99273327EE24FF24BA
:103A2000A701E70105900894079428F4360FE71ED4
:103A3000F81E491F511D660F771F881F991F069496
:103A4000A1F70590079428F4E70EF81E491F561FAA
:103A5000C11D770F881F991F661F0694A1F7059057
:103A6000079428F4F80E491F561FC71FD11D880F51
:103A7000991F661F771F0694A1F70590079420F4FD
:103A8000490F561FC71FD81F990F661F771F881F22
:103A90000694A9F784911095177041F0D695C795B3
:103AA00057954795F794E7941A95C1F7E4E9F2E042
:103AB00068941590159135916591959105907FE2E7
:103AC0007395E118F10A430B560BC90BD009C0F7E7
:103AD000E10CF11E431F561FC91FD01D7EF4703329
:103AE00011F48A95E6CFE894015030F0080F0AF4FB
:103AF0000027021708F4202F2395022F7A3328F08D
:103B000079E37D932A95E9F710C07D932A9589F68C
:103B1000069497956795379517951794E118F10ACC
:103B2000430B560BC90BD00998F023957E917395E2
:103B30007A3308F070E37C932013B8F77E917061BC
:103B40007D9330F0839571E37D9370E32A95E1F7DF
:103B50001124EF90FF900F911F91CF91DF91992742
:103B600087FD90950895FC0105906150704001100B
:103B7000D8F7809590958E0F9F1F0895FC01615096
:103B8000704001900110D8F7809590958E0F9F1F7F
:103B900008950F931F93CF93DF938C01EB018B81DB
:103BA00081FF1BC082FF0DC02E813F818C819D81D2
:103BB0002817390764F4E881F9810193F983E883D0
:103BC00006C0E885F985802F0995892B31F48E810F
:103BD0009F8101969F838E8302C00FEF1FEFC80164
:103BE000DF91CF911F910F910895AEE0B0E0EBEF20
:103BF000FDE10C943D1C0D891E8986E08C831A839F
:103C000009838FEF9FE79E838D839E01275E3F4F41
:103C1000CE0101966F89788DA9010E94C0122F8173
:103C20003885020F131FF80110822E96E4E00C94E1
:103C3000591CFA01AA27283051F1203181F1E8946A
:103C40006F936E7F6E5F7F4F8F4F9F4FAF4FB1E08F
:103C50003ED0B4E03CD0670F781F891F9A1FA11D8A
:103C6000680F791F8A1F911DA11D6A0F711D811D8B
:103C7000911DA11D20D009F468943F912AE0269F50
:103C800011243019305D3193DEF6CF010895462FAF
:103C90004770405D4193B3E00FD0C9F7F6CF462F90
:103CA0004F70405D4A3318F0495D31FD40524193F9
:103CB00002D0A9F7EACFB4E0A695979587957795B6
:103CC0006795BA95C9F700976105710508959B013D
:103CD000AC010A2E06945795479537952795BA95C6
:103CE000C9F7620F731F841F951FA01D089597FBCE
:103CF000092E05260ED057FD04D014D00AD0001C82
:103D000038F450954095309521953F4F4F4F5F4F78
:103D10000895F6F790958095709561957F4F8F4F38
:103D20009F4F0895A1E21A2EAA1BBB1BFD010DC0D7
:103D3000AA1FBB1FEE1FFF1FA217B307E407F5075B
:103D400020F0A21BB30BE40BF50B661F771F881F37
:103D5000991F1A9469F760957095809590959B01CD
:0C3D6000AC01BD01CF010895F894FFCF25
:103D6C0047616D65204F7665720047616D65204C2B
:103D7C006576656C3A2025640020202020202020C8
:103D8C0020202020202020202000533A25642C20A5
:103D9C004C3A25642C204C763A25640020202020B7
:103DAC00202020202020202020202020200018FF50
:103DBC004218BDFF6680000000000000008080807B
:063DCC0080010000000070
:00000001FF
