:100000000C94C7010C94E4010C94E4010C94E401F9
:100010000C94E4010C94E4010C94E4010C94E401CC
:100020000C94E4010C94E4010C94E4010C94E401BC
:100030000C94E4010C94E4010C94E4010C94E401AC
:100040000C94E4010C94E4010C94E4010C94E4019C
:100050000C94890A0C94E4010C94E4010C940C0BAC
:100060000C94E4010C94E4010C94E4010C94E4017C
:100070000C94E4010C94E4010C94E4010C94E4016C
:100080000C94E4010C94E4010C94E4010C94E4015C
:100090000C94E4010C94E4010C94E4010C94E4014C
:1000A0000C94E4010C94E4010C94E4016E616E0084
:1000B000696E6600000000000000005F000000079D
:1000C000000700147F147F14242A7F2A12231308A8
:1000D000646236495522500005030000001C22418D
:1000E000000041221C0014083E081408083E0808BD
:1000F0000050300000080808080800606000002078
:10010000100804023E5149453E00427F40004261D2
:100110005149462141454B311814127F102745455E
:1001200045393C4A49493001710905033649494975
:1001300036064949291E00363600000056360000B2
:10014000081422410014141414140041221408024B
:1001500001510906324979413E7E1111117E7F49D4
:100160004949363E414141227F4141221C7F494954
:1001700049417F090909013E4149497A7F08080838
:100180007F00417F41002040413F017F0814224110
:100190007F404040407F020C027F7F0408107F3E7A
:1001A0004141413E7F090909063E4151215E7F09D7
:1001B000192946464949493101017F01013F404023
:1001C000403F1F2040201F3F4038403F6314081429
:1001D0006307087008076151494543007F414100AA
:1001E00002040810200041417F0004020102044083
:1001F00040404040000102040020545454787F489D
:100200004444383844444420384444487F385454A3
:100210005418087E0901020C5252523E7F08040411
:100220007800447D40002040443D007F1028440079
:1002300000417F40007C041804787C08040478386E
:10024000444444387C14141408081414187C7C08A2
:100250000404084854545420043F4440203C404087
:10026000207C1C2040201C3C4030403C442810286E
:10027000440C5050503C4464544C440008364100F7
:1002800000007F00000041360800100808100878C0
:100290004641467800407A10F35A00A0724E180981
:1002A0000010A5D4E80000E87648170000E40B54DD
:1002B000020000CA9A3B000000E1F50500008096AC
:1002C0009800000040420F000000A08601000000DE
:1002D000102700000000E803000000006400000098
:1002E00000000A00000000000100000000002C7661
:1002F000D888DC674F0823DFC1DFAE59E1B1B7967C
:10030000E5E3E453C63AE651997696E8E6C28426D8
:10031000EB898C9B62ED407C6FFCEFBC9C9F40F2B4
:10032000BAA56FA5F490055A2AF75C936B6CF96730
:100330006DC11BFCE0E40D47FEF520E6B500D0EDF5
:10034000902E0300943577050080841E080000205D
:100350004E0A000000C80C333333330F986E1283FB
:100360001141EF8D2114893BE65516CFFEE6DB18CF
:10037000D1844B381BF77C1D901DA4BBE424203294
:1003800084725E228100C9F124ECA1E53D2711248D
:100390001FBECFEFDAE0DEBFCDBF11E0A0E0B1E0DD
:1003A000E8E7FDE302C005900D92AE35B107D9F73D
:1003B00015E0AEE5B1E001C01D92A03EB107E1F746
:1003C0000E94790F0C94BA1E0C9400002F923F9259
:1003D0004F925F926F927F928F929F92AF92BF9255
:1003E000CF92DF92EF92FF920F931F93CF93DF9301
:1003F0003C01EC0102E110E00F2EF0E02F2EF0E0C6
:100400003F2EF0E24F2EF1E45F2EF02D0F2EF0E0A4
:100410008F2EF0E09F2EF0E8AF2EFFE3BF2EF02DE1
:100420000F2EF0E0CF2EF0E0DF2EF0E0EF2EF0E028
:10043000FF2EF02DB801882777FD8095982F0E9418
:10044000991A688379838A839B832C823D824E82AA
:100450005F8288869986AA86BB86CC86DD86EE86F4
:10046000FF86065F1F4F65960434110519F78091CA
:10047000170290911802930127593F4F039709F0F3
:1004800062C0E90102E110E00F2EF0E02F2EF0E053
:100490003F2EF0E54F2EF1E45F2EF02D0F2EF0E011
:1004A0008F2EF0E09F2EF0E8AF2EFFEBBF2EF02D49
:1004B0000F2EF0E0CF2EF0E0DF2EF0E0EF2EF0E098
:1004C000FF2EF02DB801882777FD8095982F0E9488
:1004D000991A688379838A839B832C823D824E821A
:1004E0005F8288869986AA86BB86CC86DD86EE8664
:1004F000FF86065F1F4F65960434110519F7E30167
:10050000CE52DF4F02E110E00F2EF0E04F2EF0E070
:100510005F2EF0E86F2EF1E47F2EF02D0F2EF0E02D
:100520008F2EF0E09F2EF0E8AF2EFFE3BF2EF02DD0
:100530000F2EF0E0CF2EF0E0DF2EF0E0EF2EF0E017
:10054000FF2EF02D3FC0E90102E110E00F2EF0E098
:100550002F2EF0E03F2EF0E54F2EF1E45F2EF02D30
:100560000F2EF0E08F2EF0E09F2EF0E8AF2EFFE38D
:10057000BF2EF02D0F2EF0E0CF2EF0E0DF2EF0E0BA
:10058000EF2EF0E0FF2EF02DB801882777FD809543
:10059000982F0E94991A688379838A839B832C827F
:1005A0003D824E825F8288869986AA86BB86CC86EB
:1005B000DD86EE86FF86065F1F4F659604341105C3
:1005C00019F79DCFB801882777FD8095982F0E9455
:1005D000991A688379838A839B834C825D826E82B9
:1005E0007F8288869986AA86BB86CC86DD86EE8643
:1005F000FF86065F1F4F65960434110519F7DF91DA
:10060000CF911F910F91FF90EF90DF90CF90BF900F
:10061000AF909F908F907F906F905F904F903F90A2
:100620002F9008958F929F92AF92BF92CF92DF92B8
:10063000FF920F931F93CF93DF936C018091AD02D4
:100640009091AE02892B09F062C184EF91E0909302
:10065000AE028093AD024601E60110E08A8988234C
:10066000E1F0688179818A819B81288539854A8575
:100670005B850E948319688379838A839B836C815D
:100680007D818E819F812C853D854E855F850E9471
:1006900083196C837D838E839F831F5F65961F30D4
:1006A000E9F6A0901702B0901802C50101970297D1
:1006B000B0F5E60110E08A89882369F168817981C3
:1006C0008A819B810E946B1A9B01AC01862F90E06E
:1006D0008C3491057CF0F60180E020E030E040E8C9
:1006E0005FEB20873187428753878F5F75968F3006
:1006F000C1F715C0222379F4F60180E020E030E054
:1007000040E85FE320873187428753878F5F759684
:100710008F30C1F704C01F5F65961F3061F663E03C
:10072000A616B10409F0B2C0E60110E08A89882358
:1007300099F1688179818A819B810E946B1A9B0162
:10074000AC01862F90E08C3491057CF0F60180E0BE
:1007500020E030E040E85FEB208731874287538715
:100760008F5F75968530C1F710C02223A9F4F6017A
:1007700080E020E030E040E85FE320873187428777
:1007800053878F5F75968530C1F7860107591F4FD4
:10079000E80195E0F92E05C01F5F6596153031F62A
:1007A000F4CF8A898823A9F1688179818A819B8124
:1007B0000E946B1A9B01AC01862F90E08C3491054E
:1007C00084F0F801389685E020E030E040E85FEB07
:1007D00020833183428353838F5F75968A30C1F7BC
:1007E00011C02223B1F4F801389685E020E030E012
:1007F00040E85FE320833183428353838F5F7596A4
:100800008A30C1F786010E521F4FE8018AE0F82EA8
:1008100006C0F39465967AE0F71619F6F3CF8A8945
:10082000882379F1688179818A819B810E946B1A82
:100830009B01AC01862F90E08C34910584F0F80187
:1008400038968AE020E030E040E85FEB2083318397
:10085000428353838F5F75968F30C1F717C0222371
:1008600081F4F80138968AE020E030E040E85FE368
:1008700020833183428353838F5F75968F30C1F716
:1008800005C0F39465968FE0F81649F6EEEFFFEF9A
:10089000AE0EBF1EF2E0AF16B104C8F5E60110E0DF
:1008A0008A89882381F16C817D818E819F810E945C
:1008B0006B1A6B3090F480E020E030E040E85FE3BA
:1008C000F40124873587468757878F5F65E170E09D
:1008D000860E971E8F30A1F71AC0862F90E045979D
:1008E00094F080E020E030E040E85FEBF401248702
:1008F0003587468757878F5F65E170E0860E971EC4
:100900008F30A1F704C01F5F65961F3049F6DF9155
:10091000CF911F910F91FF90DF90CF90BF90AF903C
:100920009F908F900895FC0180E020E030E040E847
:100930005FEB208331834283538324833583468353
:100940005783128A8F5F7596843099F708956F9256
:100950007F928F929F92AF92BF92CF92DF92EF924F
:10096000FF920F931F93CF93DF93EC014B018A8982
:10097000882309F4D7C06C817D818E819F8120E01E
:1009800030E040E85FE30E9483196C837D838E83AF
:100990009F830E946B1A6F32B0F080E090E0A0E875
:1009A000BFEB88839983AA83BB838C839D83AE83AB
:1009B000BF838091610190916201019790936201E0
:1009C000809361011A8AA880B980CA80DB80688917
:1009D00070E0882777FD8095982F0E94991A9B01D7
:1009E000AC01C601B5010E94831920E030E040E867
:1009F0005FE30E9482190E946B1A762EF401E08058
:100A0000F18002811381C801B7010E946B1A662E22
:100A10007616C8F0F401608970E0882777FD80952C
:100A2000982F0E94991A9B01AC01C801B7010E943E
:100A3000831920E030E040E85FE30E9482190E94C1
:100A40006B1A671510F5C601B5010E946B1AD62EF8
:100A5000661508F466C0F401608970E0882777FDA8
:100A60008095982F0E94991A9B01AC01C801B7018B
:100A70000E94831920E030E040E85FE30E94821981
:100A80000E946B1A6D1508F44CC0698970E08827C4
:100A900077FD8095982F0E94991A2C813D814E8177
:100AA0005F810E94831920E030E040E85FE30E940C
:100AB00082190E946B1A7B018C01F401648175819B
:100AC000868197810E946B1AE61658F11A8A8091E6
:100AD00008029091090201979093090280930802FD
:100AE00080E090E0A0E8BFEB88839983AA83BB8372
:100AF0008C839D83AE83BF8380916101909162015D
:100B00000197909362018093610180E090E0A0E3FF
:100B1000B2E4F40180839183A283B38381E0828B6A
:100B200001C081E0DF91CF911F910F91FF90EF9075
:100B3000DF90CF90BF90AF909F908F907F906F90FD
:100B400008958F929F92AF92BF92CF92DF92EF92D1
:100B5000FF920F931F93CF93DF93EC018A89882331
:100B600009F45CC0C0906101D09062012DE1E22ED9
:100B700022E0F22E00E010E00F2EF0E08F2EF0E0E9
:100B80009F2EF0E8AF2EFFEBBF2EF02DF7018081F6
:100B90008130B1F5688179818A819B810E946B1ACD
:100BA000F801EA58FE4F2081261751F5698970E057
:100BB000882777FD8095982F0E94991A2C813D8176
:100BC0004E815F810E94831920E030E040E85FE3BE
:100BD0000E9482190E946B1AF801E85AFC4F20818A
:100BE000261771F41A8A88829982AA82BB828C8223
:100BF0009D82AE82BF820894C108D108F70110829D
:100C00000F5F1F4F0894E11CF11C0039110509F01A
:100C1000BDCFD0926201C092610181E0DF91CF919E
:100C20001F910F91FF90EF90DF90CF90BF90AF900A
:100C30009F908F900895FC0180E020E030E040E834
:100C40005FEB208331834283538324833583468340
:100C50005783128A8F5F75968F3099F708952F9278
:100C60003F924F925F926F927F928F929F92AF923C
:100C7000BF92CF92DF92EF92FF920F931F93DF9379
:100C8000CF9300D000D0CDB7DEB79C838B83D62E18
:100C9000C72EFC018289882309F42EC18091170296
:100CA000909118020397B1F5E42FF0E0EE0FFF1FCB
:100CB000E155FD4F80819181181619065CF18091F4
:100CC000660190916701918380838091D30288238C
:100CD00069F4EB81FC81608171818281938120E0E4
:100CE00030E040E85FE30E9482190EC0813091F449
:100CF000EB81FC81608171818281938120E030E011
:100D000040E85FE30E948319EB81FC81608371837B
:100D100082839383EB81FC816481758186819781D5
:100D200020E030E040E85FE30E948219EB81FC8123
:100D300064837583868397830E946B1A6930D0F031
:100D4000EB81FC81E080F18002811381C801B70151
:100D500020E030E040E050E00E94FA1987FD0AC030
:100D6000C801B70120E030E048EA52E40E949C1B31
:100D70008823CCF080E090E0A0E8BFEBEB81FC8121
:100D800080839183A283B38384839583A683B7836F
:100D90008091630190916401019790936401809325
:100DA0006301128AA8C020907201309073014090B4
:100DB0006301509064018D2D9C2D9C016901662476
:100DC00077240F2EF0E08F2EF0E09F2EF0E8AF2E6C
:100DD000FFEBBF2EF02DEB81FC8160817181828160
:100DE00093810E946B1A6A83F601E080F180028190
:100DF0001381C801B7010E946B1AFA81F61708F433
:100E000066C0F601608970E0882777FD8095982F8D
:100E10000E94991A9B01AC01C801B7010E94831975
:100E200020E030E040E85FE30E9482190E946B1AE4
:100E3000FA816F1708F44BC0EB81FC8164817581E6
:100E4000868197810E946B1A6983F601E480F580A0
:100E500006811781618970E0882777FD8095982F3A
:100E60000E94991A9B01AC01C801B7010E94831925
:100E700020E030E040E85FE30E9482190E946B1A94
:100E8000F9816F1720F1C801B7010E946B1A2981FF
:100E90002617E8F0EB81FC81128AEB81FC818082CD
:100EA0009182A282B38284829582A682B7820894BC
:100EB00041085108F601128A80829182A282B3828F
:100EC00084829582A682B7820894211C311C0894E2
:100ED000611C711C85E190E0C80ED91E9FE0691667
:100EE000710409F078CF3092730120927201509210
:100EF00064014092630181E00F900F900F900F907A
:100F0000CF91DF911F910F91FF90EF90DF90CF90E5
:100F1000BF90AF909F908F907F906F905F904F9019
:100F20003F902F9008958F929F92AF92BF92CF9251
:100F3000DF92EF92FF920F931F93CF93DF938C0179
:100F4000FC018289882309F44DC0C0906301D090D0
:100F500064014DE1E42E42E0F42EC0E0D0E00F2E1B
:100F6000F0E08F2EF0E09F2EF0E8AF2EFFEBBF2ECB
:100F7000F02DF7018081813049F5F80160817181A0
:100F8000828193810E946B1AFE01EA58FE4F2081F4
:100F90002617E1F4F80164817581868197810E94AA
:100FA0006B1AFE01E85AFC4F2081261779F4F801EC
:100FB000128A80829182A282B38284829582A682E2
:100FC000B7820894C108D108F701108221960894CD
:100FD000E11CF11CC039D10561F6D0926401C092C8
:100FE000630181E0DF91CF911F910F91FF90EF900E
:100FF000DF90CF90BF90AF909F908F9008953F92D9
:101000004F925F926F927F928F929F92AF92BF9218
:10101000CF92DF92EF92FF920F931F93CF93DF93C4
:101020003C014090630150906401EB0100E010E04E
:101030000F2EF0E08F2EF0E09F2EF0E8AF2EFFEBAA
:10104000BF2EF02D0F2EF0E0CF2EF0E0DF2EF0E0DF
:10105000EF2EF0E0FF2EF02D332433942DC08A893B
:10106000882339F5F301608171818281938120E0C9
:1010700030E040E450E40E948319688379838A83D6
:101080009B83F301648175818681978120E030E044
:1010900040E85FE30E9482196C837D838E839F8387
:1010A0008C869D86AE86BF86C886D986EA86FB86F4
:1010B0003A8A0F5F1F4F65964016510684F6DF91FE
:1010C000CF911F910F91FF90EF90DF90CF90BF9045
:1010D000AF909F908F907F906F905F904F903F90D8
:1010E0000895EF92FF920F931F93CF93DF937C01AC
:1010F000162F072F809163019091640197FF04C020
:1011000010926401109263018091630190916401D7
:101110000F97A4F480916501813081F4CA01612F99
:10112000702F0E94FF0780916301909164010196E6
:1011300090936401809363011092650180916E0128
:1011400090916F01892B11F080E014C084E690E04B
:1011500090936F0180936E01212F302FC901EC0114
:1011600010E0CE01B701412F0E942F0665961F5F48
:101170001F30B9F7DF91CF911F910F91FF90EF9042
:101180000895EF92FF920F931F93CF93DF937C010B
:10119000162F072F809163019091640197FF04C07F
:1011A0001092640110926301809163019091640137
:1011B0000F97A4F480916501813081F4CA01612FF9
:1011C000702F0E94FF078091630190916401019646
:1011D00090936401809363011092650180916E0188
:1011E00090916F01892B11F000E01EC084E690E021
:1011F00090936F0180936E01212F302FC901EC0174
:1012000010E0CE01B701412F0E942F06082FCE011A
:101210000E949307CE010E949307CE010E9493077C
:1012200065961F5F1F3069F7802FDF91CF911F9167
:101230000F91FF90EF900895FC0180E090E0A8E10D
:10124000B2E480839183A283B38380E090E0A0E343
:10125000B2E484839583A683B78380E090E0A0E026
:10126000B0E080879187A287B38784879587A68718
:10127000B7870895EF92FF920F931F93CF93DF9359
:10128000EC01809115028130B9F4E880F9800A817F
:101290001B81C801B70120E030E040E050E00E942F
:1012A0009C1B18166CF5C801B70120E030E040E83F
:1012B0005FE30E94821920C080911602813001F5FF
:1012C000E880F9800A811B81C801B70120E030E085
:1012D00040EE50E40E94831920E030E046EA52E4F8
:1012E0000E94FA19882364F4C801B70120E030E0B5
:1012F00040E85FE30E948319688379838A839B8334
:1013000080916A01813021F48093650110926A0115
:1013100080911702909118020297029708F042C03C
:10132000809111028130D1F4E880F9800A811B811B
:10133000C801B70120E030E040E050E00E949C1B73
:10134000181664F4C801B70120E030E040E85FE31C
:101350000E948219688379838A839B838091120219
:10136000813001F5E880F9800A811B81C801B7014D
:1013700020E030E040EE50E40E94831920E030E0AD
:1013800046EA52E40E94FA19882364F4C801B701BE
:1013900020E030E040E85FE30E94831968837983AE
:1013A0008A839B83DF91CF911F910F91FF90EF90E4
:1013B000089580E480937C0087E880937A00089504
:1013C00090917C008770987F892B80937C0080911E
:1013D0007A00806480937A0080917A0086FDFCCF49
:1013E0002091780030917900C90108950F931F93DF
:1013F0008C0181E00E94E00920E030EC4FE754E4EA
:101400002093190230931A0240931B0250931C023E
:10141000A0E0B0E0F801608924E530E0261B310946
:10142000442737FD4095542FBC01CD010E94031C79
:101430000E94991A20E030EC4FE754E40E94FE1914
:101440000E94661A60935403709355038093560369
:1014500090935703882777FD8095982F0E94991ABB
:10146000F80160837183828393831F910F910895A4
:1014700080E00E94E00920E030EC4FE754E4209344
:10148000190230931A0240931B0250931C02A0E0F1
:10149000B0E0BC01CD0128EE33E040E050E00E9416
:1014A000031C0E94991A20E030EC4FE754E40E949C
:1014B000FE190E94661A609354037093550380933B
:1014C0005603909357039B017093670160936601E5
:1014D00081E0243F38074CF41092D3022C593F4F3F
:1014E0003093670120936601089581E0243F380717
:1014F00061F081E08093D3028CE494E0821B930B33
:101500009093670180936601089582E08093D302EF
:1015100008951F920F920FB60F9211242F933F93AD
:101520004F938F939F93AF93BF93EF93FF9320E0DD
:1015300030E0F901E353FD4F8081880F80832F5FF6
:101540003F4F26303105A9F79091D1028FB1829596
:10155000869586958170892B8093D1029091D202D5
:101560008FB1829586958170892B8093D20290915C
:10157000CF0289B186958170892B8093CF0290919B
:10158000D00283B1881F8827881F892B8093D002BF
:101590009091CD0283B186958170892B8093CD0285
:1015A0009091CE0289B18170892B8093CE0220E088
:1015B00030E041E0D901AF5EBD4F8C91882341F40A
:1015C000F901E353FD4F80818F3F11F44C9311C01B
:1015D000D901AF5EBD4F9C91913059F4F901E353AD
:1015E000FD4F8081882329F41C92F901E859FE4FB0
:1015F00090832F5F3F4F26303105E1F6FF91EF9149
:10160000BF91AF919F918F914F913F912F910F90EB
:101610000FBE0F901F9018951F920F920FB60F924A
:1016200011242F933F938F939F93EF93FF93809178
:101630006E0190916F01892B49F080916E0190911C
:101640006F01029790936F0180936E0120E030E06C
:10165000F901EE0FFF1FE155FD4F80819181892B2C
:1016600029F0808191810297918380832F5F3F4F82
:101670002F30310569F78091AD029091AE02892B30
:1016800049F08091AD029091AE0202979093AE0224
:101690008093AD028091060290910702892B49F058
:1016A000809106029091070202979093070280931F
:1016B00006028091700190917101892B49F080910F
:1016C0007001909171010297909371018093700164
:1016D000FF91EF919F918F913F912F910F900FBEAE
:1016E0000F901F90189580E480937C0087E880938A
:1016F0007A008FE30E947B1880B38F7980BB84B11E
:101700008D7784B98AB18C7F8AB984B18C6084B9B1
:101710003F9A85B5877F85BDA1E8B0E08C91877F32
:101720008C9385B5836085BD85B58B7F85BDEEE6E1
:10173000F0E08081816080838C9181608C938C91BA
:10174000897F8C93EFE6F0E08081816080837894DC
:10175000089589E068E140E051E00E942218089570
:101760000F931F93DF93CF93CDB7DEB760970FB67C
:10177000F894DEBF0FBECDBF00D000D000D0EDB7D3
:10178000FEB731968E010F5F1F4FADB7BEB71296F1
:101790001C930E9311978AE091E09383828380914A
:1017A000170290911802958384830E94FB1D8DB7C8
:1017B0009EB706960FB6F8949EBF0FBE8DBF80E011
:1017C00068E149E151E00E94221889E068E1A8013E
:1017D0000E94221860960FB6F894DEBF0FBECDBFF0
:1017E000CF91DF911F910F9108950F931F93CF9386
:1017F000DF9308EC10E0C1E0D0E07E9B0CC088EEE7
:1018000093E028EC30E0F9013197F1F70197D9F72F
:101810007E99FECF1FC07D9BF0CF88EE93E0F8014C
:101820003197F1F70197D9F77D99FECF8091170293
:1018300090911802019690931802809317020497D2
:1018400024F0D0931802C09317020E94B00B0E949C
:101850004718D3CFDF91CF911F910F9108950F9328
:101860001F93DF93CF93CDB7DEB760970FB6F89491
:10187000DEBF0FBECDBF8DB79EB70A970FB6F894E7
:101880009EBF0FBE8DBFEDB7FEB731968E010F5FC5
:101890001F4FADB7BEB712961C930E9311978AE2F5
:1018A00091E093838283809172019091730195837B
:1018B00084838091080290910902978386838091A6
:1018C000170290911802918780870E94FB1D8DB7A7
:1018D0009EB70A960FB6F8949EBF0FBE8DBF80E0EC
:1018E00060E04CE351E00E94221880E060E0A80133
:1018F0000E94221880E068E043E528E00E948816F4
:1019000060960FB6F894DEBF0FBECDBFCF91DF91CA
:101910001F910F910895CF93DF93C0E0D0E0FE01B7
:10192000E35EFD4F8081813059F4FE01EA58FE4F9D
:10193000DE01A85ABC4F80816C9141E00E9455168F
:101940002196C039D10559F7DF91CF910895DF92E3
:10195000EF92FF920F931F93CF93DF93EDE1F2E0AD
:1019600081E0819322E0ED3AF207D9F716E7E12E04
:1019700011E0F12EC8E5D3E0BFE0DB2E8D2D61E252
:1019800041E00E9455160D2D095E802F61E241E075
:101990000E9455161D2D125D812F61E241E00E94CB
:1019A0005516F701D08281E2888300AB88AB20E630
:1019B00030E0E20EF31EF7011083C05ADF4F888338
:1019C000D39421EA3FEFE20EF31ECF55D04037E12A
:1019D000D316A1F6AEE7EA2EA1E0FA2EC0E6D3E0D8
:1019E000FFE0DF2E8D2D62E241E00E9455160D2DA5
:1019F000095E802F62E241E00E9455161D2D125DA6
:101A0000812F62E241E00E945516F701D08282E206
:101A1000888300AB88AB20E630E0E20EF31EF701CE
:101A20001083C05ADF4F8883D39421EA3FEFE20E40
:101A3000F31ECF55D04037E1D316A1F6E6E8EE2EDF
:101A4000E1E0FE2EC8E6D3E07FE0D72E8D2D63E2E5
:101A500041E00E9455160D2D095E802F63E241E0A2
:101A60000E9455161D2D125D812F63E241E00E94F8
:101A70005516F701D08283E2888300AB88AB20E65D
:101A800030E0E20EF31EF7011083C05ADF4F888367
:101A9000D39421EA3FEFE20EF31ECF55D04037E159
:101AA000D316A1F66EE8E62E61E0F62EC0E7D3E08D
:101AB0005FE0D52E8D2D64E241E00E9455160D2D7C
:101AC000095E802F64E241E00E9455161D2D125DD3
:101AD000812F64E241E00E945516F701D08284E232
:101AE000888300AB88AB20E630E0E20EF31EF701FE
:101AF0001083C05ADF4F8883D39421EA3FEFE20E70
:101B0000F31ECF55D04037E1D316A1F646E9E42EB7
:101B100041E0F42EC8E7D3E03FE0D32E8D2D65E2FF
:101B200041E00E9455160D2D095E802F65E241E0CF
:101B30000E9455161D2D125D812F65E241E00E9425
:101B40005516F701D08285E2888300AB88AB20E68A
:101B500030E0E20EF31EF7011083C05ADF4F888396
:101B6000D39421EA3FEFE20EF31ECF55D04037E188
:101B7000D316A1F62EE9E22E21E0F22EC0E8D3E042
:101B80009FE0D92E8D2D66E241E00E9455160D2D65
:101B9000095E802F66E241E00E9455161D2D125D00
:101BA000812F66E241E00E945516F701D08286E25D
:101BB000888300AB88AB20E630E0E20EF31EF7012D
:101BC0001083C05ADF4F8883D39421EA3FEFE20E9F
:101BD000F31ECF55D04037E1D316A1F6DF91CF9158
:101BE0001F910F91FF90EF90DF9008958F929F9239
:101BF000AF92BF92CF92EF920F931F93CF93DF9349
:101C0000EC0188249924CE0140E050E060E87FEBAD
:101C10008A019B01EE24E394CC24C394E8E5AE2E24
:101C2000E1E0BE2E0E94C9181A8A0894811C911CFA
:101C300065968FE08816910431F7DF91CF911F915F
:101C40000F91EF90CF90BF90AF909F908F9008959D
:101C50008F929F92AF92BF92CF92EF920F931F936A
:101C6000CF93DF93EC0188249924CE0140E050E02B
:101C700060E87FEB8A019B01EE24E394A3E0CA2E87
:101C8000F5E5AF2EF1E0BF2E0E94C9181A8A08941C
:101C9000811C911C659684E08816910431F7DF91D0
:101CA000CF911F910F91EF90CF90BF90AF909F90E9
:101CB0008F900895BF92CF92DF92EF92FF920F9391
:101CC0001F93CF93DF93EC01062FB72E81E00E9484
:101CD000E0090E94D61C0E94D11C6FE070E00E94B7
:101CE000221C15E106C00E94D11C6FE070E00E942A
:101CF000221C819F70011124EC0EFD1EF7018289C8
:101D0000882389F3C0906101D0906201802F9B2DC0
:101D10009C01E90100E010E0BB24B39425C08A894E
:101D20008823F9F4F701608171818281938120E039
:101D300030E040E450E40E948319688379838A8309
:101D40009B83F701648175818681978120E030E073
:101D500040E450E40E9483196C837D838E839F83CB
:101D6000BA8A0F5F1F4F6596C016D106C4F6DF9181
:101D7000CF911F910F91FF90EF90DF90CF90BF9088
:101D80000895AF92BF92CF92DF92FF920F931F936D
:101D9000CF93DF939C016B015A0180916101909177
:101DA000620197FF04C0109262011092610180915C
:101DB0006101909162010497CCF48091700190913F
:101DC0007101892B99F480ED97E0909371018093D4
:101DD0007001C901B6010E945A0E80916101909173
:101DE00062010196909362018093610180910602E5
:101DF00090910702892B11F0FF241DC084EF91E020
:101E00009093070280930602C0E0D0E086010C0F99
:101E10001D1FC801B5010E94A704F82EC8010E9429
:101E2000A105C8010E94A105C8010E94A1056596EF
:101E3000C435D10559F78F2DDF91CF911F910F91A7
:101E4000FF90DF90CF90BF90AF900895EF92FF92F8
:101E50000F931F93CF93DF939C018B017A018091A5
:101E600061019091620197FF04C01092620110928B
:101E7000610180916101909162010497CCF480919D
:101E8000700190917101892B99F480ED97E0909306
:101E9000710180937001C901B8010E945A0E8091AE
:101EA00061019091620101969093620180936101BA
:101EB0008091060290910702892B11F080E012C0F8
:101EC00084EF91E09093070280930602C0E0D0E097
:101ED000C8018C0F9D1FB7010E94A7046596C435E9
:101EE000D105B1F7DF91CF911F910F91FF90EF9046
:101EF00008952F923F924F925F926F927F928F92AE
:101F00009F92AF92BF92CF92DF92EF92FF920F9388
:101F10001F93DF93CF93CDB7DEB7C75ED2400FB626
:101F2000F894DEBF0FBECDBF80E88093610081E0F2
:101F3000809361000E94730B84E00E94E0090E947C
:101F4000D61CBAE62B2E312C2C0E3D1E4101A3EDE2
:101F50006A2E712C6C0E7D1EC40140E050E060E0E2
:101F600070E000E010E020E831E4F8E0EF2EE3E07C
:101F7000CE2EBEE4AB2EB1E0BB2E0E94C91885E187
:101F800090E0880E991E8614970431F7A3ED8A2EEF
:101F9000912C8C0E9D1EFCE36F2EF1E07F2E6C0EBB
:101FA0007D1EC40140E050E060E070E000E010E021
:101FB00020E831E4E8E0EE2EB3E0CB2EAEE4AA2E2A
:101FC000A1E0BA2E0E94C918A5E1B0E08A0E9B1EBE
:101FD0008614970431F7FCE34F2EF1E05F2E4C0E90
:101FE0005D1EFE01EB55FE4FCC51DD4FF983E883BA
:101FF000C45ED240C20140E050E060E070E000E02A
:1020000010E020E831E4E8E0EE2EB3E0CB2EAEE4C1
:10201000AA2EA1E0BA2E0E94C91885E190E0480ED0
:10202000591ECC51DD4FA881B981C45ED2404A16F9
:102030005B0601F74E010894811C911CC40140E02D
:1020400050E060E070E000E010E020E232E4F4E014
:10205000CF2EE1E5AE2EE1E0BE2E0E94C9188E0122
:102060000A5E1F4FC8010E94280EC2010E94F60D91
:102070000E944718380105EAC02E01E0D02ECC0E90
:10208000DD1E1AE6E12EF12CEC0EFD1EF301BA96D0
:10209000C052DD4FF983E883C05ED240C301CF96C2
:1020A000CE51DD4F99838883C25ED240DE01A052BB
:1020B000BD4FCA51DD4FB983A883C65ED24081E0CF
:1020C00090E090931802809317021092730110927F
:1020D000720183E090E090930902809308020E94CD
:1020E0004D160E94B00B0E9447180E94F50B0E94EB
:1020F0004D1684EF91E09093AE028093AD029093E1
:1021000007028093060284E690E090936F0180932B
:102110006E0180E090E024EF31E0FC01EE0FFF1F44
:10212000E155FD4F3183208301968F309105A9F74A
:102130001092620110926101109264011092630189
:1021400080911702909118028130910509F0A9C081
:102150000E944D1680916001882309F046C0C3019A
:102160000E94280EC6010E94F60DC3010E9493042E
:10217000C6010E941B06C7010E94E60180E090E0B4
:10218000A8E1B2E489839A83AB83BC8380E090E0CA
:10219000A0E3B2E48D839E83AF83B88780E090E0B4
:1021A000A0E0B0E089879A87AB87BC878D879E8740
:1021B000AF87B88B5101E1E0D5015296EC93C50190
:1021C0000E94F11885E190E0A80EB91ECC51DD4FB8
:1021D000A881B981C45ED240AA16BB0661F7C401CA
:1021E0000E94F118B1E0B0936001C4010E943A0965
:1021F000C7010E941203C701B301A4010E94260F68
:10220000C701B601A4010E9471088101C8010E94A2
:10221000F1180B5E1F4FCC51DD4FE881F981C45E90
:10222000D2400E171F0791F7C3010E94F118CE018B
:102230008B960E94F118C052DD4F88819981C05E53
:10224000D2400E94F118CE51DD4F88819981C25E43
:10225000D2400E94F1188601C8010E94F1180B5E5D
:102260001F4FCA51DD4F88819981C65ED240081741
:10227000190791F7C4010E94F1180E942F0C0E94C7
:1022800047188091080290910902181619060CF05F
:1022900067C180917201909173010F970CF458CF30
:1022A0005FC18230910509F0B2C00E944D16809145
:1022B0006001882309F04AC0C3010E94280EC601AC
:1022C0000E94F60DC3010E949304C6010E941B06E2
:1022D000C7010E94E60180E090E0A8E1B2E48983B2
:1022E0009A83AB83BC8380E090E0A0E3B2E48D836B
:1022F0009E83AF83B88780E090E0A0E0B0E089875C
:102300009A87AB87BC878D879E87AF87B88B0E94E3
:10231000A70C5101E1E0D5015296EC93C5010E9452
:10232000F11885E190E0A80EB91ECC51DD4FA881CF
:10233000B981C45ED240AA16BB0661F70E948B0C1D
:10234000C4010E94F118B1E0B0936001C4010E9481
:102350003A09C4010E94F609C7010E941203C7018D
:10236000B301A4010E94C10EC701B601A4010E94DD
:10237000C1088101C8010E94F1180B5E1F4FCC51AA
:10238000DD4FE881F981C45ED2400E171F0791F737
:10239000C3010E94F118CE018B960E94F118C05221
:1023A000DD4F88819981C05ED2400E94F118CE51E4
:1023B000DD4F88819981C25ED2400E94F11886016A
:1023C000C8010E94F1180B5E1F4FCA51DD4F888172
:1023D0009981C65ED2400817190791F7C4010E947F
:1023E000F1180E948B0C0E942F0C0E9447188091BC
:1023F000080290910902181619060CF0B1C08091DC
:102400007201909173010F970CF44FCFA9C00397FD
:1024100009F0A8C00E944D1680916001882309F040
:1024200044C0C3010E94280EC6010E94F60DC301DC
:102430000E949304C6010E941B06C7010E94E60188
:1024400080E090E0A8E1B2E489839A83AB83BC8307
:1024500080E090E0A0E3B2E48D839E83AF83B887F1
:1024600080E090E0A0E0B0E089879A87AB87BC87E6
:102470008D879E87AF87B88B0E94A70C5101E1E042
:10248000D5015296EC93C5010E94F11885E190E0C8
:10249000A80EB91EA414B50491F70E948B0CC401B8
:1024A0000E94F11891E090936001C4010E943A09E2
:1024B000C4010E94F6090E94380AC7010E94120353
:1024C000C701B301A4010E94C10EC701B601A40156
:1024D0000E94C1088101C8010E94F1180B5E1F4FC4
:1024E00004151505C1F7C3010E94F118CE018B96A2
:1024F0000E94F118C052DD4F88819981C05ED240A0
:102500000E94F118CE51DD4F88819981C25ED24080
:102510000E94F1188601C8010E94F1180B5E1F4F3E
:10252000CA51DD4FA881B981C65ED2400A171B0788
:1025300091F7C4010E94F1180E948B0C0E942F0C8D
:102540000E944718809108029091090218161906F6
:102550003CF480917201909173010F970CF45ACF63
:10256000109260010E944D1689E068E140E051E060
:102570000E9422180E94471888E893E128EC30E076
:10258000F9013197F1F70197D9F799CDA1E1B0E0C1
:10259000ECECF2E10C94351C3C017F876E876A01FC
:1025A000FC0117821682838181FD03C06FEF7FEFEC
:1025B0006FC39E012F5F3F4F398B288BF30123811F
:1025C000EE85FF8523FD859123FF8191FF87EE87AF
:1025D000882309F45AC3853251F4EE85FF8523FD23
:1025E000859123FF8191FF87EE87853229F490E062
:1025F000B3010E94CF1DE2CF982F10E088249924C8
:102600001032B0F49B3269F09C3228F4903251F0D1
:10261000933271F40BC09D3239F0903349F411605C
:1026200028C01260146025C0186023C0106121C04A
:1026300017FD2AC0892F80538A3078F416FF06C010
:10264000FAE09F9E902C1124980E13C03AE0839ECE
:10265000802C1124880E10620CC09E3221F416FDCD
:1026600014C3106406C09C3611F4106802C098367A
:1026700059F4EE85FF8523FD959123FF9191FF8706
:10268000EE87992309F0BCCF892F8554833020F43D
:10269000812F8061905E07C0892F8556833008F0B6
:1026A0009FC1812F8F7E86FD02C076E0972E6FE35B
:1026B000F62EF822953619F4F0E4FF2A07C0963674
:1026C00019F420E8F22A02C091109A94F7FE0AC089
:1026D0003BE3391518F45CE3B52E02C0B92CB39472
:1026E00027E009C047E0491520F4BB2447E0942EB9
:1026F000F7CF292DBB24C60104969D878C87F60150
:102700006081718182819381AE014F5F5F4F0B2D9C
:102710000E94E11C6C010981202E332400FF04C0BB
:1027200003FD02C01DE209C0F1FE02C01BE205C0AC
:10273000F2FC02C010E001C010E2C1018C70907088
:10274000892BB9F1112311F483E001C084E08815CD
:1027500010F088240AC0881AF3FC07C080E290E0D9
:10276000B3010E94CF1D8A94C9F7112329F0812F4C
:1027700090E0B3010E94CF1D23FE03C00CEA10E0DD
:102780000EC000EB10E00BC0E114F10409F0805220
:1027900090E0B3010E94CF1D0F5F1F4F05C0EF2CCB
:1027A000FF24F0E1EF22FF24F8018491882361F7F0
:1027B00014C1F7FE12C0BC0C24FE04C08A81813310
:1027C00009F4BA941B141CF0BB24B3942DC0F8E098
:1027D000FB1550F538E0B32E27C0F6FC25C0892D37
:1027E00090E08C159D054CF02CEFC2162FEFD20611
:1027F00024F030E8F32A01C09A94992049F0E2E0ED
:10280000F0E0EC0FFD1FE90DF11D80818033A1F395
:10281000F7FE0AC0B92CB394892D90E0C816D906EA
:1028200014F0992401C09C18F7FC03C025E030E0A7
:1028300009C01C141D041CF021E030E003C0960107
:102840002F5F3F4F112311F02F5F3F4F992029F049
:10285000892D90E00196280F391F882D90E02817C8
:10286000390714F0882401C0821A4F2C5524C20164
:1028700089709070892B39F008C080E290E0B30134
:102880000E94CF1D8A948820C1F7112329F0812F3F
:1028900090E0B3010E94CF1D43FE07C008C080E353
:1028A00090E0B3010E94CF1D8A948820C1F7F7FE03
:1028B00046C08601D7FE02C000E010E07601089411
:1028C000E11CF11CE01AF10A41E050E04C0F5D1FE1
:1028D000E40EF51E26014B185108892D90E0AA241C
:1028E000BB24A81AB90A5FEF0F3F150729F48EE23F
:1028F00090E0B3010E94CF1DC016D10634F04016FF
:1029000051061CF4F701808101C080E301501040A2
:102910000894E11CF11C0A151B052CF090E0B30192
:102920000E94CF1DE0CF0C151D0539F49A81963316
:1029300018F4953311F424FE81E390E04BC08A81B2
:10294000813309F00F7E90E0B3010E94CF1D9920E2
:10295000A1F08EE290E0B3010E94CF1D12E0E1E011
:10296000F0E0EC0FFD1FE10FF11D1F5F808190E093
:10297000B3010E94CF1D9A9491F744FC03C085E6F1
:1029800090E002C085E490E0B3010E94CF1DD7FC27
:1029900005C0C114D10441F404FF06C0D094C19411
:1029A000D108D3948DE201C08BE290E0B3010E9484
:1029B000CF1D80E305C08F5F26EF3FEFC20ED31E11
:1029C0003AE0C316D104BCF790E0B3010E94CF1DDA
:1029D000C601C096B3010E94CF1DCC84DD8452C1D4
:1029E000933631F0933799F0933509F059C023C0ED
:1029F000F601808189835E010894A11CB11C22E04C
:102A000030E0C20ED31E21E0E22EF12C12C0F601FE
:102A1000A080B18016FD03C06FEF7FEF02C0692D6B
:102A200070E022E030E0C20ED31EC5010E94C41D3A
:102A30007C011F7713C0F601A080B18016FD03C092
:102A40006FEF7FEF02C0692D70E022E030E0C20E30
:102A5000D31EC5010E94B91D7C01106813FF07C079
:102A60001BC080E290E0B3010E94CF1D8A94882DA4
:102A700090E0E816F906A8F30FC0F50117FD85915F
:102A800017FF81915F0190E0B3010E94CF1D81107B
:102A90008A940894E108F108E114F10471F7F2C096
:102AA000943611F0993689F517FF08C0F601208198
:102AB00031814281538184E090E00AC0F601808137
:102AC00091819C01442737FD4095542F82E090E08E
:102AD000C80ED91E9FE6F92EF12257FF09C0509566
:102AE0004095309521953F4F4F4F5F4F90E8F92A21
:102AF000CA01B901AE014F5F5F4F2AE030E00E948A
:102B00001F1EE82EE889EE1A41C0953721F41F7E7A
:102B10002AE030E01CC0197F9F3661F0903720F426
:102B2000983509F0B2C00FC0903739F0983709F0E6
:102B3000ACC004C028E030E00AC0106114FD14608D
:102B400020E130E004C014FD166020E132E017FF00
:102B500008C0F601608171818281938144E050E078
:102B600008C0F60180819181BC0180E090E042E0E4
:102B700050E0C40ED51EAE014F5F5F4F0E941F1E76
:102B8000E82E5889E51A8FE7F82EF122F6FE0BC0E1
:102B90008EEFF822E91438F4F4FE07C0F2FC05C009
:102BA0009FEEF92202C01E2D01C0192DF4FE0DC0AA
:102BB000FE01EE0DF11D8081803319F4E9EEFE2255
:102BC00008C01F5FF2FE05C003C08F2D867809F094
:102BD0001F5F0F2DF3FC14C0F0FE0FC0181510F08E
:102BE0009E2C0BC09E2C980C911A182D06C080E2CA
:102BF00090E0B3010E94CF1D1F5F1815C0F304C001
:102C0000181510F4811A01C0882404FF0FC080E356
:102C100090E0B3010E94CF1D02FF1DC001FD03C063
:102C200088E790E00EC088E590E00BC0802F8678A2
:102C300091F001FF02C08BE201C080E2F7FC8DE25F
:102C400090E0B3010E94CF1D06C080E390E0B30185
:102C50000E94CF1D9A94E914C0F3EA94E1E0F0E0F9
:102C6000EC0FFD1FEE0DF11D808190E0B3010E947D
:102C7000CF1DEE2091F706C080E290E0B3010E94E4
:102C8000CF1D8A948820C1F799CCF30166817781A2
:102C9000CB016196E2E10C94511CE8EEF3E0119255
:102CA00085E0E03EF807D9F70895843580F5603374
:102CB00070F5262F269526952695677090E044237B
:102CC00099F0E4E52E9FF0011124E80FF91FE85177
:102CD000FC4F81E090E002C0880F991F6A95E2F7EF
:102CE0002081282B20830895E4E52E9FF0011124F4
:102CF000E80FF91FE851FC4F81E090E002C0880F17
:102D0000991F6A95E2F780952081282320830895F2
:102D10002F923F924F925F926F927F928F929F92EB
:102D2000AF92BF92CF92DF92EF92FF920F931F93D9
:102D3000DF93CF93CDB7DEB72D970FB6F894DEBFF4
:102D40000FBECDBFD82EC62E142F022F8417F9F434
:102D5000A62EBB24E22EFF240EC08D2D6A2D41E04D
:102D60000E945516C01620F40894A11CB11C03C083
:102D70000894A108B108C01628F4EA14FB040CF466
:102D8000FEC0EBCFAE14BF040CF4F9C0E6CF282F81
:102D900030E06017F9F4C9015C01E42EFF240EC095
:102DA0008A2D6C2D41E00E945516D11620F408940E
:102DB000A11CB11C03C00894A108B108D11628F4C5
:102DC000EA14FB040CF4DBC0EBCFAE14BF040CF42C
:102DD000D6C0E6CF842F90E09A838983C9015C0135
:102DE00069817A81681B790B882777FD8095982FF8
:102DF0000E94991A6F83788789879A87202E3324B7
:102E00004C2C5524B10164197509882777FD8095EC
:102E1000982F0E94991A3B014C012F8138854985D2
:102E20005A850E94FE196B837C838D839E8320E0EC
:102E300030E040E050E00E949C1B87FF0DC0C401C1
:102E4000B30190582F81388549855A850E94FE1913
:102E50006B837C838D839E830F2EF0E0CF2EF0E07A
:102E6000DF2EF0E0EF2EF0E0FF2EF02D70C0AB86ED
:102E70008A2D642D41E00E945516C701B6012B81B1
:102E80003C814D815E810E94831931C08B85642D08
:102E900041E00E9455161D861C86C401B30120E046
:102EA00030E040E050E00E949C1B181624F4E1E062
:102EB000F0E0FD87EC8700E010E0C401B30120E002
:102EC00030E040E050E00E94FA19882314F401E059
:102ED00010E08C859D85801B910B480E591EC70103
:102EE000B60120E030E040E85FE30E9482196B0108
:102EF0007C0120E030E040E05FE30E949C1B8823DF
:102F00009CF0C401B30120E030E040E050E00E94BA
:102F10009C1B18162CF4241435040CF0B7CF04C0F5
:102F2000421453040CF0B2CF6F81788589859A855D
:102F300020E030E040E050E00E949C1B181624F492
:102F40000894A11CB11C03C00894A108B1086F81AA
:102F5000788589859A8520E030E040E050E00E9445
:102F60009C1B181634F4E981FA81EA15FB053CF044
:102F70007ECF89819A81A816B9060CF078CF2D965C
:102F80000FB6F894DEBF0FBECDBFCF91DF911F917A
:102F90000F91FF90EF90DF90CF90BF90AF909F90F8
:102FA0008F907F906F905F904F903F902F900895FB
:102FB0009F92AF92BF92CF92DF92EF92FF920F93C8
:102FC0001F93CF93DF93982EC62E85E0489FE00194
:102FD0001124C05AD04000E081E0A82EB12C18C0C6
:102FE000612F6C0DA501012E02C0440F551F0A94DC
:102FF000E2F74E215F21012E02C0559547950A94B4
:10300000E2F78D2D0E9455161F5F183049F70F5FAC
:10301000053061F0FE01E00FF11DEC54FF4F10E0B0
:10302000E491D02ED90CEE2EFF24EFCFDF91CF917B
:103030001F910F91FF90EF90DF90CF90BF90AF90D6
:103040009F900895EF92FF920F931F93CF93DF937A
:10305000F82E062F142F242F352FC901EC0195E0EF
:10306000E92E08C08E9DC00111248F0D602F0E9493
:10307000D81721969E01211B822F4881442391F766
:10308000DF91CF911F910F91FF90EF900895CF9313
:10309000DF9380E060E00E94BC18C8EED3E081E0DE
:1030A00069910E945A1885E0C03ED807C1F7DF91A8
:1030B000CF91089595B18295880F807E9F7D982B42
:1030C00095B95F9827E030E070E08F98CB01022E31
:1030D00002C0959587950A94E2F780FF02C02E9A68
:1030E00001C02E988F9A215030408FEF2F3F380724
:1030F00061F75F9A08951F93182F579A249A259A7B
:10310000269A879A2C985F9A2C9A80E061E20E9416
:103110005A18106880E0612F0E945A1880E064E01D
:103120000E945A1880E063E10E945A1880E06CE027
:103130000E945A1880E060E20E945A1880E06CE019
:103140000E945A1880E060E40E945A1880E060E80B
:103150000E945A181F910895CF93DF93C0E0D0E0EA
:1031600081E060E00E945A18219681E0C83FD807AC
:10317000B9F7DF91CF9108951F93182F606480E015
:103180000E945A18106880E0612F0E945A181F91FF
:103190000895AF92BF92CF92EF920F931F93FC01CD
:1031A000408351836283738304831583268337832B
:1031B000E08AC18AB48AA38A81E0828B80E090E0B1
:1031C000A0E0B0E080879187A287B3878487958746
:1031D000A687B7871F910F91EF90CF90BF90AF90C8
:1031E00008953F924F925F926F927F928F929F923B
:1031F000AF92BF92CF92DF92EF92FF920F931F9305
:10320000CF93DF93EC018A89882309F469C0688928
:1032100070E0882777FD8095982F0E94991A20E00A
:1032200030E040E05EE30E94A01B0E94E7190E948C
:103230006B1A362E882447C0092D10E0B801882764
:1032400077FD8095982F0E94991A20E030E040E0A9
:103250005EE30E94A01B0E94D41A6B017C0168816E
:1032600079818A819B810E946B1AA92CA60E6C81A0
:103270007D818E819F810E946B1AB82CB60EC3018E
:10328000B2010E94991AA70196010E9483190E9417
:10329000661AEB89FC89E60FF71F408150E0009524
:1032A00010950770107002C0559547950A95E2F782
:1032B00041708A2D6B2D0E9455169394888998161B
:1032C00008F4BACF83948989881650F4839CC0018E
:1032D000112499242C01662457FC6094762CEECF9F
:1032E000DF91CF911F910F91FF90EF90DF90CF90E2
:1032F000BF90AF909F908F907F906F905F904F9016
:103300003F9008955058BB27AA270ED0C4C1B5D10D
:1033100030F0BAD120F031F49F3F11F41EF4AAC16D
:103320000EF4E095E7FB77C1E92FC6D180F3BA1719
:10333000620773078407950718F071F49EF5F5C1CD
:103340000EF4E0950B2EBA2FA02D0B01B9019001C0
:103350000C01CA01A0011124FF27591B99F0593F04
:1033600050F4503E68F11A16F040A22F232F342F4C
:103370004427585FF3CF469537952795A795F0409A
:103380005395C9F77EF41F16BA0B620B730B840BAF
:10339000BAF09150A1F0FF0FBB1F661F771F881F67
:1033A000C2F70EC0BA0F621F731F841F48F48795BF
:1033B00077956795B795F7959E3F08F0B3CF9395AE
:1033C000880F08F09927EE0F97958795089596D165
:1033D00080F09F3740F491110EF4A8C160E070E0D6
:1033E00080E89FE3089526F01B16611D711D811D65
:1033F00018C132C1ECD008F481E008950CD04BC163
:1034000043D140F03AD130F021F45F3F19F003C1CD
:1034100051118CC12FC150D198F39923C9F3552371
:10342000B1F3951B550BBB27AA27621773078407B7
:1034300038F09F5F5F4F220F331F441FAA1FA9F36D
:1034400033D00E2E3AF0E0E830D091505040E6955F
:10345000001CCAF729D0FE2F27D0660F771F881FC0
:10346000BB1F261737074807AB07B0E809F0BB0BAF
:10347000802DBF01FF2793585F4F2AF09E3F5105D3
:1034800068F0C9C053C15F3FECF3983EDCF386950A
:1034900077956795B795F7959F5FC9F7880F911D49
:1034A0009695879597F90895E1E0660F771F881F35
:1034B000BB1F621773078407BA0720F0621B730BE8
:1034C000840BBA0BEE1F88F7E095089504D068943A
:1034D000B1112CC10895F8D088F09F5790F0B92F02
:1034E0009927B751A0F0D1F0660F771F881F991F59
:1034F0001AF0BA95C9F712C0B13081F016D1B1E017
:10350000089513C1672F782F8827B85F39F0B93F26
:10351000CCF3869577956795B395D9F73EF490955A
:103520008095709561957F4F8F4F9F4F0895E894D8
:1035300009C097FB3EF490958095709561957F4FFB
:103540008F4F9F4F9923A9F0F92F96E9BB279395A9
:10355000F695879577956795B795F111F8CFFAF4B9
:10356000BB0F11F460FF1BC06F5F7F4F8F4F9F4FEA
:1035700016C0882311F096E911C0772321F09EE848
:10358000872F762F05C0662371F096E8862F70E0AE
:1035900060E02AF09A95660F771F881FDAF7880F88
:1035A0009695879597F90895A9D080F09F3740F4B4
:1035B00091110EF0BBC060E070E080E89FEB0895D1
:1035C00026F41B16611D711D811D2BC045C0990F6E
:1035D0000008550FAA0BE0E8FEEF16161706E807DD
:1035E000F907C0F012161306E407F50798F0621BFE
:1035F000730B840B950B39F40A2661F0232B242BD3
:10360000252B21F408950A2609F4A140A6958FEFF1
:10361000811D811D089597F99F6780E870E060E043
:103620000895882371F4772321F09850872B762F03
:1036300007C0662311F499270DC09051862B70E0C6
:1036400060E02AF09A95660F771F881FDAF7880FD7
:103650009695879597F908959F3F31F0915020F402
:10366000879577956795B795880F911D969587955E
:1036700097F908959FEF80EC089500240A94161698
:10368000170618060906089500240A941216130650
:10369000140605060895092E0394000C11F48823DE
:1036A00052F0BB0F40F4BF2B11F460FF04C06F5FFA
:1036B0007F4F8F4F9F4F089557FD9058440F551FD0
:1036C00059F05F3F71F04795880F97FB991F61F0A4
:1036D0009F3F79F087950895121613061406551F1B
:1036E000F2CF4695F1DF08C0161617061806991F87
:1036F000F1CF86957105610508940895E5DFA0F086
:10370000BEE7B91788F4BB279F3860F41616B11DC1
:10371000672F782F8827985FF7CF869577956795DD
:10372000B11D93959639C8F30895E894BB27662791
:103730007727CB0197F908954ADF08F48FEF0895B2
:103740000BD0A9CF9ADF28F09FDF18F0952309F05E
:1037500062CF90CF1124EACFAFDFA0F3959FD1F3D2
:10376000950F50E0551F629FF001729FBB27F00D2F
:10377000B11D639FAA27F00DB11DAA1F649F662784
:10378000B00DA11D661F829F2227B00DA11D621FD3
:10379000739FB00DA11D621F839FA00D611D221F8D
:1037A000749F3327A00D611D231F849F600D211D71
:1037B000822F762F6A2F11249F5750408AF0E1F014
:1037C00088234AF0EE0FFF1FBB1F661F771F881F5D
:1037D00091505040A9F79E3F510570F01CCFA6CFE5
:1037E0005F3FECF3983EDCF3869577956795B79548
:1037F000F795E7959F5FC1F7FE2B880F911D969572
:10380000879597F90895629FD001739FF001829F79
:10381000E00DF11D649FE00DF11D929FF00D839F5F
:10382000F00D749FF00D659FF00D9927729FB00DFC
:10383000E11DF91F639FB00DE11DF91FBD01CF010F
:103840001124089597FB092E07260AD077FD04D08E
:1038500043D006D000201AF4709561957F4F0895EB
:10386000F6F7909581959F4F08952F923F924F9232
:103870005F926F927F928F929F92AF92BF92CF9200
:10388000DF92EF92FF920F931F93CF93DF93CDB709
:10389000DEB7CA1BDB0B0FB6F894DEBF0FBECDBF81
:1038A00009942A88398848885F846E847D848C8452
:1038B0009B84AA84B984C884DF80EE80FD800C815B
:1038C0001B81AA81B981CE0FD11D0FB6F894DEBF3E
:1038D0000FBECDBFED010895AA1BBB1B51E107C070
:1038E000AA1FBB1FA617B70710F0A61BB70B881F90
:1038F000991F5A95A9F780959095BC01CD0108951F
:10390000A0E0B0E0E6E8FCE10C943D1CEC01A880EE
:10391000B980CA80DB80A114B104C104D10441F490
:1039200084E2A82E89EDB82E8BE5C82E87E0D82E2C
:10393000C601B5012DE133EF41E050E00E947D1E4C
:1039400027EA31E440E050E00E94031C7B018C0137
:10395000C601B5012DE133EF41E050E00E947D1E2C
:10396000CA01B9012CEE34EF4FEF5FEF0E94031C48
:103970006E0D7F1D801F911F97FF04C06150704026
:1039800080409048688379838A839B839B013F773B
:10399000C901CDB7DEB7EAE00C94591C0E94801C27
:1039A000089589E591E00E94801C0895A0E0B0E0B0
:1039B0008093590190935A01A0935B01B0935C01ED
:1039C0000895283008F027E03327DA01990F311DD8
:1039D00087FD916000966105710539F432602E5FB4
:1039E0003D9330E32A95E1F708959F3F30F080380A
:1039F0007105610509F03C5F3C5F3D93913008F033
:103A00008068911DDF93CF931F930F93FF92EF92E6
:103A1000192F987F9695E92F96959695E90FFF2790
:103A2000E251FD4F99273327EE24FF24A701E70138
:103A300005900894079428F4360FE71EF81E491FD6
:103A4000511D660F771F881F991F0694A1F70590D7
:103A5000079428F4E70EF81E491F561FC11D770F63
:103A6000881F991F661F0694A1F70590079428F4F4
:103A7000F80E491F561FC71FD11D880F991F661FBB
:103A8000771F0694A1F70590079420F4490F561F5D
:103A9000C71FD81F990F661F771F881F0694A9F7A5
:103AA00084911095177041F0D695C7955795479515
:103AB000F794E7941A95C1F7E4E9F2E06894159059
:103AC000159135916591959105907FE27395E11877
:103AD000F10A430B560BC90BD009C0F7E10CF11EDC
:103AE000431F561FC91FD01D7EF4703311F48A95F1
:103AF000E6CFE894015030F0080F0AF400270217CF
:103B000008F4202F2395022F7A3328F079E37D9350
:103B10002A95E9F710C07D932A9589F60694979522
:103B20006795379517951794E118F10A430B560BD3
:103B3000C90BD00998F023957E9173957A3308F0DC
:103B400070E37C932013B8F77E9170617D9330F021
:103B5000839571E37D9370E32A95E1F71124EF904B
:103B6000FF900F911F91CF91DF91992787FD90953D
:103B70000895FC010590615070400110D8F78095C0
:103B800090958E0F9F1F0895FC0161507040019029
:103B90000110D8F7809590958E0F9F1F08950F9371
:103BA0001F93CF93DF938C01EB018B8181FF1BC0AF
:103BB00082FF0DC02E813F818C819D81281739079E
:103BC00064F4E881F9810193F983E88306C0E8850C
:103BD000F985802F0995892B31F48E819F8101967B
:103BE0009F838E8302C00FEF1FEFC801DF91CF913B
:103BF0001F910F910895AEE0B0E0E1E0FEE10C947A
:103C0000431C0D891E8986E08C831A8309838FEFFC
:103C10009FE79E838D839E01275E3F4FCE010196D5
:103C20006F89788DA9010E94C6122F813885020FF5
:103C3000131FF80110822E96E4E00C945F1CFA0129
:103C4000AA27283051F1203181F1E8946F936E7FDB
:103C50006E5F7F4F8F4F9F4FAF4FB1E03ED0B4E0CC
:103C60003CD0670F781F891F9A1FA11D680F791F0D
:103C70008A1F911DA11D6A0F711D811D911DA11D1E
:103C800020D009F468943F912AE0269F112430192E
:103C9000305D3193DEF6CF010895462F4770405DC9
:103CA0004193B3E00FD0C9F7F6CF462F4F70405D78
:103CB0004A3318F0495D31FD4052419302D0A9F7D3
:103CC000EACFB4E0A6959795879577956795BA95CD
:103CD000C9F700976105710508959B01AC010A2E93
:103CE00006945795479537952795BA95C9F7620F6A
:103CF000731F841F951FA01D089597FB092E05268D
:103D00000ED057FD04D014D00AD0001C38F45095C2
:103D10004095309521953F4F4F4F5F4F0895F6F7EF
:103D200090958095709561957F4F8F4F9F4F089527
:103D3000A1E21A2EAA1BBB1BFD010DC0AA1FBB1FAF
:103D4000EE1FFF1FA217B307E407F50720F0A21B21
:103D5000B30BE40BF50B661F771F881F991F1A948E
:103D600069F760957095809590959B01AC01BD01B8
:083D7000CF010895F894FFCF84
:103D780047616D65204F7665720047616D65204C1F
:103D88006576656C3A2025640020202020202020BC
:103D980020202020202020202000533A25642C2099
:103DA8004C3A25642C204C763A25640020202020AB
:103DB800202020202020202020202020200018FF44
:0E3DC8004218BDFF6680808080010000000070
:00000001FF
