:100000000C947C020C9499020C9499020C94990221
:100010000C9499020C9499020C9499020C949902F4
:100020000C9499020C9499020C94690D0C94A40DF3
:100030000C9499020C9499020C9499020C949902D4
:100040000C9499020C9499020C9499020C949902C4
:100050000C946A030C9499020C9499020C949902E2
:100060000C9499020C9499020C9499020C949902A4
:100070000C9499020C9499020C9499020C94990294
:100080000C9499020C9499020C9499020C94990284
:100090000C9499020C9499020C9499020C94990274
:1000A0000C9499020C9499020C949902FE0CFB0C8E
:1000B000F80CF50CF20CEF0CEC0CE90CE60CE30C74
:1000C000E00CDD0CDA0CD70CD40CD10CCE0CCB0C24
:1000D000C80CC50CC20CBF0CBC0CB90CB60CB30CD4
:1000E000B00CAD0CAA0CA70CA40CA10C9E0C9B0C84
:1000F000980C950C920C8F0C8C0C890C860C830C34
:10010000800C7D0C7A0C770C740C710C6E0C6B0CE3
:10011000680C650C620C5F0C5C0C590C560C530C93
:10012000500C4D0C4A0C470C440C410C3E0C05A8DD
:100130004CCDB2D44EB93836A9020C50B99186884C
:10014000083CA6AAAA2ABE000000803F00010000C9
:100150008001120002000092014300030000D5015B
:100160000401030904D9011402030904EF01160371
:1001700003090407020C0001C11201803601813617
:100180001201000202000010C0167A0400010102F0
:10019000030109024300020100C03209040000010A
:1001A00002020100052400100105240101010424BC
:1001B0000206052406000107058203100040090419
:1001C0000100020A000000070503024000000705C5
:1001D000840240000004030904140359006F0075F1
:1001E00000720020004E0061006D006500000016E6
:1001F000035500530042002000530065007200695F
:100200000061006C0000000C033100320033003448
:1002100000350000006E616E00696E66000000002F
:10022000000000005F00000007000700147F147F3B
:1002300014242A7F2A122313086462364955225057
:100240000005030000001C2241000041221C001494
:10025000083E081408083E0808005030000008084E
:10026000080808006060000020100804023E5149A0
:10027000453E00427F400042615149462141454B85
:10028000311814127F1027454545393C4A494930F9
:1002900001710905033649494936064949291E00B5
:1002A00036360000005636000008142241001414AF
:1002B000141414004122140802015109063249792C
:1002C000413E7E1111117E7F494949363E414141EF
:1002D000227F4141221C7F494949417F0909090187
:1002E0003E4149497A7F0808087F00417F4100204C
:1002F00040413F017F081422417F404040407F023F
:100300000C027F7F0408107F3E4141413E7F090976
:1003100009063E4151215E7F09192946464949494E
:100320003101017F01013F4040403F1F2040201F1D
:100330003F4038403F6314081463070870080761A2
:1003400051494543007F414100020408102000410B
:10035000417F00040201020440404040400001028D
:10036000040020545454787F48444438384444446A
:1003700020384444487F3854545418087E090102F8
:100380000C5252523E7F0804047800447D40002005
:1003900040443D007F1028440000417F40007C0421
:1003A0001804787C0804047838444444387C1414D5
:1003B0001408081414187C7C080404084854545485
:1003C00020043F4440203C4040207C1C2040201C16
:1003D0003C4030403C44281028440C5050503C4491
:1003E00064544C44000836410000007F0000004186
:1003F0003608001008081008784641467800407A10
:1004000010F35A00A0724E18090010A5D4E800009D
:10041000E87648170000E40B54020000CA9A3B003B
:100420000000E1F505000080969800000040420FB2
:10043000000000A08601000000102700000000E876
:1004400003000000006400000000000A000000003B
:10045000000100000000002C76D888DC674F0823DC
:10046000DFC1DFAE59E1B1B796E5E3E453C63AE642
:1004700051997696E8E6C28426EB898C9B62ED4022
:100480007C6FFCEFBC9C9F40F2BAA56FA5F4900571
:100490005A2AF75C936B6CF9676DC11BFCE0E40DA5
:1004A00047FEF520E6B500D0ED902E030094357799
:1004B000050080841E080000204E0A000000C80CC1
:1004C000333333330F986E12831141EF8D2114892A
:1004D0003BE65516CFFEE6DB18D1844B381BF77C84
:1004E0001D901DA4BBE424203284725E228100C9C9
:1004F000F124ECA1E53D270011241FBECFEFDAE087
:10050000DEBFCDBF11E0A0E0B1E0EAEFF6E302C04C
:1005100005900D92A83DB107D9F714E0A8EDB1E020
:1005200001C01D92A432B107E1F70E94B3050C94FB
:100530007B1B0C94000080E480937C0087E8809310
:100540007A000895EF92FF920F931F937D992FC029
:100550008091240290912502892B69F581E090E039
:100560009093250280932402E0905801F090590165
:1005700000915A0110915B01C801B70120E030E001
:1005800040E050E00E9421181816ACF4C801B701F1
:1005900020E030E040E050E40E94CB156093580129
:1005A0007093590180935A0190935B0104C010929B
:1005B0002502109224027E9935C0809124029091E8
:1005C0002502892B99F581E090E090932502809394
:1005D0002402E0905801F090590100915A011091C5
:1005E0005B01C801B70120E030E040EE50E40E941A
:1005F000CC1520E030E046EA52E40E9443168823FE
:10060000ACF4C801B70120E030E040E050E40E94C3
:10061000CC15609358017093590180935A019093BF
:100620005B0104C010922502109224021F910F91C9
:10063000FF90EF9008957E9912C0809124029091CE
:100640002502892B81F481E090E09093250280932C
:1006500024028091D9018F5F8093D901089510926F
:1006600025021092240208959FB192959695977055
:10067000909591708091F501981799F08091F6010D
:100680008F5F8093F601843070F09093F501992389
:1006900029F08091E1018F5F8093E1011092F601D2
:1006A00008951092F601089590917C008770987FCC
:1006B000892B80937C0080917A00806480937A00FB
:1006C00080917A0086FDFCCF2091780030917900EE
:1006D000C90108951F920F920FB60F9211242F9304
:1006E0003F934F935F936F937F938F939F93AF93BA
:1006F000BF93EF93FF938091D901823030F18091C5
:10070000E2018F5F8093E201909150018917E8F038
:100710008091E10181508230B0F460915401709178
:100720005501809156019091570121E73DE34AEA36
:100730005FE30E94CC156093540170935501809340
:100740005601909357011092E201FF91EF91BF91F2
:10075000AF919F918F917F916F915F914F913F9159
:100760002F910F900FBE0F901F9018952F923F92D0
:100770004F925F926F927F928F929F92AF92BF92B1
:10078000CF92DF92EF92FF920F931F938091DB0144
:10079000882309F069C10E94921964E470E00E9404
:1007A000E318AA2797FDA095BA2FBC01CD010E949E
:1007B000E5166093E9017093EA018093EB01909351
:1007C000EC010E94921964E470E00E94E318AA27E9
:1007D00097FDA095BA2FBC01CD010E94E51660934C
:1007E000ED017093EE018093EF019093F0010E9470
:1007F000921964E470E00E94E318AA2797FDA0957F
:10080000BA2FBC01CD010E94E5166093F1017093EF
:10081000F2018093F3019093F40116C00E949219A3
:1008200064E470E00E94E318AA2797FDA095BA2F10
:10083000BC01CD010E94E5166093ED017093EE01BD
:100840008093EF019093F001E090ED01F090EE01C4
:100850000091EF011091F001A090E901B090EA0140
:10086000C090EB01D090EC01C601B50120E030E072
:1008700040EA50E40E94CB153B014C01C801B7018E
:10088000A40193010E94211888238CF0C601B501B0
:1008900020E030E040EA51E40E94CC159B01AC011D
:1008A000C801B7010E94431618160CF0B7CFC80153
:1008B000B70120E030E040E751E40E94CC157B0115
:1008C0008C01A40193010E942118882394F1C60190
:1008D000B50120E030E040EA51E40E94CC159B01D4
:1008E000AC01C801B7010E94431618160CF096CF50
:1008F00020C00E94921964E470E00E94E318AA27C5
:1009000097FDA095BA2FBC01CD010E94E51660931A
:10091000F1017093F2018093F3019093F4018091BF
:10092000DF018F5F8093DF01833318F01092DF01C6
:1009300032CF6090F1017090F2018090F3019090BD
:10094000F401E090E901F090EA010091EB011091CF
:10095000EC01C801B70120E030E040EA50E40E9419
:10096000CB151B012C01C401B301A20191010E940E
:10097000211888238CF0C801B70120E030E040EA5C
:1009800051E40E94CC159B01AC01C401B3010E944B
:10099000431618160CF0ADCFC401B30120E030E0CF
:1009A00040E751E40E94CC155B016C01A20191016A
:1009B0000E94211888238CF0C801B70120E030E0A4
:1009C00040EA51E40E94CC159B01AC01C601B5017F
:1009D0000E94431618160CF08CCFE090ED01F090B9
:1009E000EE010091EF011091F001C801B70120E084
:1009F00030E040EA50E40E94CB151B012C01C401F9
:100A0000B301A20191010E94211888238CF0C80132
:100A1000B70120E030E040EA51E40E94CC159B0190
:100A2000AC01C401B3010E94431618160CF061CF4B
:100A3000C601B501A20191010E94211888238CF002
:100A4000C801B70120E030E040EA51E40E94CC1533
:100A50009B01AC01C601B5010E94431618160CF0AB
:100A600048CF81E08093DB011F910F91FF90EF90C1
:100A7000DF90CF90BF90AF909F908F907F906F90BE
:100A80005F904F903F902F900895FF920F931F9388
:100A9000CF93DF93C6E1D2E004E211E0FF24F394A8
:100AA0003FC080E060E040E051E00E946B1480E0D5
:100AB0006AE04CE051E00E946B1480E064E145E1A3
:100AC00051E00E946B1400D000D000D0EDB7FEB70B
:100AD0003196ADB7BEB71296DC93CE9311971383C0
:100AE00002838091E101848315820E94BC1A8DB734
:100AF0009EB706960FB6F8949EBF0FBE8DBF81E4D9
:100B000064E1AE010E946B140E9490140E941B03CA
:100B10000E9434038091E101843010F0F092E101F1
:100B20008091D901823008F4BCCFDF91CF911F9121
:100B30000F91FF90089580E480937C0087E8809374
:100B40007A008FE30E94C4140E941F0B84B18C7F33
:100B500084B9E1E8F0E080818260808381E0809365
:100B60006F00789408952F923F924F925F926F9208
:100B70007F928F929F92AF92BF92CF92DF92EF922D
:100B8000FF920F931F93DF93CF93CDB7DEB7C65578
:100B9000D0400FB6F894DEBF0FBECDBF80E8809383
:100BA000610081E0809361000E949B0584E00E94C7
:100BB00054030E949719B6E12B2E312C2C0E3D1EAA
:100BC000ACE56A2EA1E07A2E4101FFE34F2E512CB5
:100BD000420C531CC40140E050E060E070E000E0D3
:100BE00010E020E831E4E0E1EE2EB0E1CB2E53013D
:100BF0000E94121585E190E0880E991EA0E2B0E0F7
:100C00006A0E7B1E8414950429F7CE01019640E0FC
:100C100050E060E070E000E010E020E232E4A8E0A4
:100C2000EA2EF8E0CF2EECEBAE2EE1E0BE2E0E94D5
:100C300012150E949219AA2797FDA095BA2FBC0100
:100C4000CD010E94E5169B01AC010E94CC152BED55
:100C50003FE049E450E40E94251820E03EEF4FEFCA
:100C600056E40E944A16162F072FF82EE92E262F3B
:100C7000372F482F592F209312023093130240939D
:100C8000140250931502B901CA010E9447166093DD
:100C90000102709302028093030290930402612F79
:100CA000702F8F2D9E2D0E94881860931B027093C9
:100CB0001C0280931D0290931E020E9445058091A4
:100CC000E101833009F079C418A61DAEFE01EE5A89
:100CD000FF4F108272C40E9496128091E101813010
:100CE00019F40E94A20226C0823021F580E00E9401
:100CF000540390932B0280932A02A0E0B0E0BC0141
:100D0000CD012CE430E040E050E00E94C4180E9485
:100D1000E51620E030EC4FE754E40E944A160E94AA
:100D2000B21670E080E090E00E94E31669837A8357
:100D30008B839C838091E101833009F0D5C20EC082
:100D400081E161E147E251E00E946B1483E168E1D7
:100D500043E351E00E946B140E9490140E94380BF0
:100D6000882371F30E943A0D882351F30E94961252
:100D70000E943B0B809309020E947B0B8091090229
:100D80008737E9F4ED80FE800F811885C801B7012F
:100D900020E030E040E251E40E942118882364F012
:100DA000C801B70120E030E040E050E40E94CB15DC
:100DB0006D837E838F8398875101CC245DC08136FB
:100DC000B9F4E980FA800B811C81C801B70120E0E9
:100DD00030E040E050E00E94211818166CF7C8017E
:100DE000B70120E030E040E050E40E94CB151EC087
:100DF000843609F5E980FA800B811C81C801B701AE
:100E000020E030E040EE50E40E94CC1520E030E0DD
:100E100046EA52E40E944316882374F6C801B701DB
:100E200020E030E040E050E40E94CC1569837A83F2
:100E30008B839C83C1CF833709F0BECFED80FE80CA
:100E40000F811885C801B70120E030E040EE50E482
:100E50000E94CC1520E030E04CE352E40E9443169F
:100E600088230CF0A9CFC801B70120E030E040E0B2
:100E700050E40E94CC159CCFF5018289882309F0AB
:100E80001DC1CC2009F05EC00E949219AA2797FDCF
:100E9000A095BA2FBC01CD010E94E5169B01AC01C3
:100EA0000E94CC152BED3FE049E450E40E94251848
:100EB00020E03EEF4FEF56E40E944A16162F072F10
:100EC000F82EE92E262F372F482F592F2093120264
:100ED000309313024093140250931502B901CA01D2
:100EE0000E944716609301027093020280930302EE
:100EF00090930402612F702F8F2D9E2D0E948818D1
:100F000060931B0270931C0280931D0290931E023B
:100F10000E94921964E470E00E94E318AA2797FDEA
:100F2000A095BA2FBC01CD010E94E516D5016D93A5
:100F30007D938D939C931397E1E05296EC931092DE
:100F4000DA01BCC0F1E0CF1609F05DC00E94921931
:100F5000AA2797FDA095BA2FBC01CD010E94E516E6
:100F60009B01AC010E94CC152BED3FE049E450E41D
:100F70000E94251820E03EEF4FEF56E40E944A16EB
:100F8000162F072FF82EE92E262F372F482F592FEF
:100F900020931202309313024093140250931502CF
:100FA000B901CA010E944716609326027093270276
:100FB0008093280290932902612F702F8F2D9E2DF0
:100FC0000E9488186093FB017093FC018093FD01DF
:100FD0009093FE010E94921964E470E00E94E3186D
:100FE000AA2797FDA095BA2FBC01CD010E94E51656
:100FF000D5016D937D938D939C9313975296CC92CC
:101000001092DC015BC00E949219AA2797FDA0955F
:10101000BA2FBC01CD010E94E5169B01AC010E94D4
:10102000CC152BED3FE049E450E40E94251820E068
:101030003EEF4FEF56E40E944A16162F072FF82E68
:10104000E92E262F372F482F592F20931202309345
:1010500013024093140250931502B901CA010E9471
:10106000471660930E0270930F02809310029093C4
:101070001102612F702F8F2D9E2D0E948818609372
:1010800005027093060280930702909308020E9463
:10109000921964E470E00E94E318AA2797FDA095D6
:1010A000BA2FBC01CD010E94E516F5016083718362
:1010B0008283938381E0828B1092DD01C394A5E14A
:1010C000B0E0AA0EBB1EB3E0CB1609F0D5CE6E89F8
:1010D0007F89888D998D2091010230910202409183
:1010E0000302509104020E94CC157B018C016E8B8F
:1010F0007F8B888F998F6A8D7B8D8C8D9D8D2091B4
:101100001B0230911C0240911D0250911E020E9450
:10111000CC156A8F7B8F8C8F9D8F6BA57CA58DA541
:101120009EA52091260230912702409128025091DD
:1011300029020E94CC156BA77CA78DA79EA76FA53F
:1011400078A989A99AA92091FB013091FC014091CD
:10115000FD015091FE010E94CC156FA778AB89ABC1
:101160009AABF401608171818281938120910E029A
:1011700030910F0240911002509111020E94CC1543
:10118000D4016D937D938D939C931397F3016081AC
:1011900071818281938120910502309106024091F4
:1011A0000702509108020E94CC15D3016D937D93E4
:1011B0008D939C931397C801B7010E94B7166434AE
:1011C00088F08091010290910202A0910302B091F7
:1011D0000402B0588093010290930202A09303028C
:1011E000B09304026A8D7B8D8C8D9D8D0E94B71605
:1011F0006950673188F080911B0290911C02A09188
:101200001D02B0911E02B05880931B0290931C02E5
:10121000A0931D02B0931E026BA57CA58DA59EA573
:101220000E94B716643488F08091260290912702BC
:10123000A0912802B0912902B05880932602909381
:101240002702A0932802B09329026FA578A989A943
:101250009AA90E94B7166950673188F08091FB0106
:101260009091FC01A091FD01B091FE01B0588093D6
:10127000FB019093FC01A093FD01B093FE01F401EA
:1012800060817181828193810E94B716643488F0F5
:1012900080910E0290910F02A0911002B091110264
:1012A000B05880930E0290930F02A0931002B09357
:1012B0001102D3016D917D918D919C910E94B71681
:1012C0006950673188F08091050290910602A091E3
:1012D0000702B0910802B05880930502909306026D
:1012E000A0930702B09308028091E10181508230FF
:1012F000E8F50E94B6038091E9019091EA01A0917E
:10130000EB01B091EC018E8B9F8BA88FB98F209150
:1013100054013091550140915601509157012A8F47
:101320003B8F4C8F5D8F8091ED019091EE01A091EC
:10133000EF01B091F0018BA79CA7ADA7BEA72FA787
:1013400038AB49AB5AAB8091F1019091F201A09179
:10135000F301B091F401F40180839183A283B383FC
:10136000D3012D933D934D935C9313978091E101AD
:10137000813061F48091580190915901A0915A01F6
:10138000B0915B0189839A83AB83BC83C2010E94C5
:101390003A15CE018B960E943A1567968EAD9FAD99
:1013A00067970E943A15CE0101960E943A15720184
:1013B00000E069817A818B819C810E94B716162F8B
:1013C000F70160817181828193810E94B71616179F
:1013D00040F0212F30E0862F90E00F968217930780
:1013E0007CF4212F30E070E0C9010796861797073B
:1013F0000CF460C0685F7F4F621773070CF45AC02B
:101400006D817E818F8198850E94B716162FD70136
:1014100014966D917D918D919C9117970E94B716AE
:10142000161740F0212F30E0862F90E00F9682179C
:1014300093076CF4212F30E070E0C90107968617FE
:101440009707C4F1685F7F4F621773079CF1002311
:1014500069F48091DA01882369F5D092DA0118A63F
:101460008091D8018E5F8093D8011FC0013069F44C
:101470008091DC018823F1F40093DC011DAE8091A2
:101480004F01815080934F0110C08091DD0188236E
:1014900089F4D092DD0163961FAE6397809150016D
:1014A000833018F082508093500180915101815017
:1014B000809351010F5FE5E1F0E0EE0EFF1E033077
:1014C00009F077CF609154017091550180915601D8
:1014D000909157010E94B716603320F4809151011A
:1014E0008823F9F480E090E0A0E1B1E48093540116
:1014F00090935501A0935601B09357011092DA01D1
:101500001092DC011092DD011092DB011092DF01DC
:1015100093E090935101D8A6DDAEA1E06396AFAF02
:10152000639780E060E04DE351E00E946B144091CE
:101530004F01405D8AE060E00E94211484E160E098
:1015400041E451E00E946B1400D000D000D0EDB710
:10155000FEB731968FE192E0ADB7BEB712969C937D
:101560008E931197A4E2B1E0B383A2838091D80156
:10157000848315820E94BC1AEDB7FEB736960FB66B
:10158000F894FEBF0FBEEDBF8EE160E04FE152E088
:101590000E946B1480E068E043E528E00E94D112CD
:1015A0000E94901480914F01882321F08091D801EE
:1015B0008431D1F4D092E00117C020E4822E912C26
:1015C0008C0E9D1E94E4692E712C6C0E7D1EDD2404
:1015D000D39486E1482E512C4C0E5D1EC2018A9692
:1015E00067969FAF8EAF67978091E001882309F4DB
:1015F00072CB0E94961284E164E145E451E00E94BE
:101600006B140E94901480E090E0CA5ADF4F0FB62E
:10161000F894DEBF0FBECDBFCF91DF911F910F9128
:10162000FF90EF90DF90CF90BF90AF909F908F9002
:101630007F906F905F904F903F902F90089581E042
:101640008093D70080EA8093D80082E189BD09B4F5
:1016500000FEFDCF80E98093D8001092E000109248
:10166000F7011092F8018CE08093E20078940895DD
:101670008091F70108952FB7F8948091F70188239E
:1016800069F083E08093E9009BE68091E80085FDA6
:1016900009C082FF03C09093E800F7CF2FBF2FEF60
:1016A0003FEF0CC09091F1008091E80085FD03C0F0
:1016B0008BE68093E8002FBF292F30E0C901089501
:1016C0002FB7F8948091F701882311F490E010C0AF
:1016D00083E08093E9009091F200992349F480918E
:1016E000E80082FF05C085FD03C08BE68093E8001B
:1016F0002FBF892F08958091F701882371F09FB73C
:10170000F89483E08093E9002BE602C02093E80080
:101710008091E80085FDFACF9FBF0895482F809102
:10172000F7018823D9F12FB7F89484E08093E9007A
:101730008091FA01882341F08091E80085FD02C084
:101740002FBF12C01092FA019091E400975E34E02E
:101750008091E80085FD13C02FBF8091E4008917B8
:1017600029F481E08093FA018FEF08958091F701C9
:101770008823A1F02FB7F8943093E900E9CF409384
:10178000F1008091E80085FD03C08AE38093E800C2
:1017900085E08093F9012FBF80E008958FEF0895D1
:1017A000282F8091F701882351F09FB7F89484E0A7
:1017B0008093E9008091E80085FD03C09FBF8FEF13
:1017C00008952093F1008091E80085FD03C08AE32D
:1017D0008093E80085E08093F9019FBF80E0089541
:1017E000CF93DF93EC018091F701882309F41CC1AA
:1017F0003FB7F89484E08093E9008091FA01882350
:1018000009F408C18091E80085FD02C03FBF0CC10A
:101810001092FA01FFC09091E400975E8091E80079
:1018200085FD13C03FBF8091E400891721F481E05A
:101830008093FA01F9C08091F701882309F4F4C07C
:101840003FB7F894B093E900E9CF8091F200242FDC
:10185000281B822F90E06817790708F4262F822F23
:1018600090E08134910508F0C6C08A5A9F4FFC0170
:10187000EE0FFF1F0590F491E02D0994899180935C
:10188000F10089918093F10089918093F100899111
:101890008093F10089918093F10089918093F10008
:1018A00089918093F10089918093F10089918093CF
:1018B000F10089918093F10089918093F1008991E1
:1018C0008093F10089918093F10089918093F100D8
:1018D00089918093F10089918093F100899180939F
:1018E000F10089918093F10089918093F1008991B1
:1018F0008093F10089918093F10089918093F100A8
:1019000089918093F10089918093F100899180936E
:10191000F10089918093F10089918093F100899180
:101920008093F10089918093F10089918093F10077
:1019300089918093F10089918093F100899180933E
:10194000F10089918093F10089918093F100899150
:101950008093F10089918093F10089918093F10047
:1019600089918093F10089918093F100899180930E
:10197000F10089918093F10089918093F100899120
:101980008093F10089918093F10089918093F10017
:1019900089918093F10089918093F10089918093DE
:1019A000F10089918093F10089918093F1008991F0
:1019B0008093F10089918093F10089918093F100E7
:1019C00089918093F10089918093F10089918093AE
:1019D000F10089918093F10089918093F1008991C0
:1019E0008093F10089918093F10089918093F100B7
:1019F00089918093F10089918093F1008091E800B2
:101A000085FD02C05093E800621B7109A093F901A3
:101A10003FBF04C0B4E040E45AE3A5E0611571059E
:101A200009F0F9CE80E001C08FEFDF91CF910895EA
:101A30009FB7F8948091F901882341F084E0809366
:101A4000E9008AE38093E8001092F9019FBF0895AE
:101A50006091CC017091CD018091CE019091CF0128
:101A600008958091D00108958091D10108958091C9
:101A7000D20108958091F8010895282F9FB7F89416
:101A80008091F701882339F082E08093E90080910A
:101A9000E80085FD03C09FBF8FEF089581EA809322
:101AA000F10080E28093F1001092F1001092F100B9
:101AB0001092F1001092F10081E08093F1001092F9
:101AC000F1002093F1008AE38093E8009FBF80E05B
:101AD00008951F920F920FB60F9211248F939F9328
:101AE0008091E1001092E100982F83FF11C01092C5
:101AF000E90081E08093EB001092EC0082E180939A
:101B0000ED0088E08093F0001092F7011092F80148
:101B100092FF13C08091F701882379F08091F90139
:101B2000882359F081508093F901882331F484E0AF
:101B30008093E9008AE38093E8009F918F910F9052
:101B40000FBE0F901F9018951F920F920FB60F9215
:101B500011240F931F932F933F934F935F936F9392
:101B60007F938F939F93AF93BF93EF93FF931092C5
:101B7000E9008091E80083FF3CC14091F100309181
:101B8000F1008091F100682F70E02091F100922F18
:101B900080E0682B792B8091F100A82FB0E0209194
:101BA000F100922F80E0A82BB92B1091F100009149
:101BB000F10082EF8093E800363009F05AC023E547
:101BC00031E0A90145505040F90137978591949132
:101BD0008617970701F5FA01859194918A179B075B
:101BE000D1F49A012E5F3F4FF901659174912E5FF8
:101BF0003F4FF9014491212F30E0902F80E0282BB6
:101C0000392B2F3F310519F010F02FEF30E024175A
:101C100058F4422F09C0295F3F4F495F5F4FF1E001
:101C20002D373F0789F6E5C05EEF8091E800282F49
:101C300030E0C90185709070892BB9F322FDDCC0BA
:101C4000342F413108F030E1232FCB0106C0FC01D5
:101C50000196E491E093F10021502223C1F7630F34
:101C6000711D431B5093E8004423F9F63031E9F22B
:101C7000C3C0353061F48EEF8093E8008091E800B6
:101C800080FFFCCF862F80688093E300B5C0393099
:101C900051F5442309F0ADC06093F7011092F801AB
:101CA0001092F9018EEF8093E80086E791E021E041
:101CB0002093E900FC010196E491E093EB00EE2310
:101CC00069F0AC014F5F5F4FFC0184918093EC00A1
:101CD000CA010196FA0134913093ED002F5F25304F
:101CE00039F78EE181C0383061F4403809F081C0A5
:101CF0008091E80080FFFCCF8091F7018093F10094
:101D000050C0313289F4413A09F073C08091E80043
:101D100080FFFCCFECECF1E081918093F10081E059
:101D2000E33DF807C9F73DC03032A1F4413209F074
:101D300060C08091E80082FFFCCFECECF1E0809184
:101D4000F100819381E0E33DF807C9F78BEF8093C1
:101D5000E80027C0323251F4413209F04AC06093A2
:101D6000F8018091E80080FFFCCF1BC03323E9F429
:101D70008091E80080FFFCCF423811F080E00DC078
:101D8000A093E9008091EB0090E025E0969587957F
:101D90002A95E1F781701092E9008093F10010928A
:101DA000F1008EEF8093E80027C0313011F033301E
:101DB00001F54230F1F4672BE1F42A2F2F77822FBF
:101DC00081508430B0F48EEF8093E8002093E900D6
:101DD000333079F089E18093EB0081E090E002C03C
:101DE000880F991F2A95E2F78093EA001092EA0083
:101DF00003C081E28093EB00FF91EF91BF91AF911F
:101E00009F918F917F916F915F914F913F912F9112
:101E10001F910F910F900FBE0F901F901895A1E189
:101E2000B0E0E5E1FFE00C94F6183C017F876E8797
:101E30006A01FC0117821682838181FD03C06FEF66
:101E40007FEF6FC39E012F5F3F4F398B288BF301CC
:101E50002381EE85FF8523FD859123FF8191FF87F7
:101E6000EE87882309F45AC3853251F4EE85FF8545
:101E700023FD859123FF8191FF87EE87853229F429
:101E800090E0B3010E94901AE2CF982F10E08824CE
:101E900099241032B0F49B3269F09C3228F49032CD
:101EA00051F0933271F40BC09D3239F0903349F404
:101EB000116028C01260146025C0186023C0106132
:101EC00021C017FD2AC0892F80538A3078F416FF6D
:101ED00006C0FAE09F9E902C1124980E13C03AE0A1
:101EE000839E802C1124880E10620CC09E3221F437
:101EF00016FD14C3106406C09C3611F4106802C0AD
:101F0000983659F4EE85FF8523FD959123FF919135
:101F1000FF87EE87992309F0BCCF892F8554833042
:101F200020F4812F8061905E07C0892F8556833011
:101F300008F09FC1812F8F7E86FD02C076E0972E2C
:101F40006FE3F62EF822953619F4F0E4FF2A07C065
:101F5000963619F420E8F22A02C091109A94F7FEFE
:101F60000AC03BE3391518F45CE3B52E02C0B92C66
:101F7000B39427E009C047E0491520F4BB2447E0AB
:101F8000942EF7CF292DBB24C60104969D878C87FC
:101F9000F6016081718182819381AE014F5F5F4F55
:101FA0000B2D0E94A2196C010981202E332400FF01
:101FB00004C003FD02C01DE209C0F1FE02C01BE225
:101FC00005C0F2FC02C010E001C010E2C1018C703B
:101FD0009070892BB9F1112311F483E001C084E0E2
:101FE000881510F088240AC0881AF3FC07C080E224
:101FF00090E0B3010E94901A8A94C9F7112329F046
:10200000812F90E0B3010E94901A23FE03C005E1E6
:1020100012E00EC009E112E00BC0E114F10409F076
:10202000805290E0B3010E94901A0F5F1F4F05C0CD
:10203000EF2CFF24F0E1EF22FF24F80184918823A4
:1020400061F714C1F7FE12C0BC0C24FE04C08A81E3
:10205000813309F4BA941B141CF0BB24B3942DC033
:10206000F8E0FB1550F538E0B32E27C0F6FC25C08C
:10207000892D90E08C159D054CF02CEFC2162FEFAA
:10208000D20624F030E8F32A01C09A94992049F04E
:10209000E2E0F0E0EC0FFD1FE90DF11D80818033DF
:1020A000A1F3F7FE0AC0B92CB394892D90E0C816AD
:1020B000D90614F0992401C09C18F7FC03C025E050
:1020C00030E009C01C141D041CF021E030E003C006
:1020D00096012F5F3F4F112311F02F5F3F4F992043
:1020E00029F0892D90E00196280F391F882D90E066
:1020F0002817390714F0882401C0821A4F2C552460
:10210000C20189709070892B39F008C080E290E09C
:10211000B3010E94901A8A948820C1F7112329F0F4
:10212000812F90E0B3010E94901A43FE07C008C0BF
:1021300080E390E0B3010E94901A8A948820C1F74E
:10214000F7FE46C08601D7FE02C000E010E076012F
:102150000894E11CF11CE01AF10A41E050E04C0F38
:102160005D1FE40EF51E26014B185108892D90E0E5
:10217000AA24BB24A81AB90A5FEF0F3F150729F458
:102180008EE290E0B3010E94901AC016D10634F09E
:10219000401651061CF4F701808101C080E3015014
:1021A00010400894E11CF11C0A151B052CF090E06E
:1021B000B3010E94901AE0CF0C151D0539F49A81E5
:1021C000963318F4953311F424FE81E390E04BC06C
:1021D0008A81813309F00F7E90E0B3010E94901A4A
:1021E0009920A1F08EE290E0B3010E94901A12E0D3
:1021F000E1E0F0E0EC0FFD1FE10FF11D1F5F8081BA
:1022000090E0B3010E94901A9A9491F744FC03C0A5
:1022100085E690E002C085E490E0B3010E94901A48
:10222000D7FC05C0C114D10441F404FF06C0D0940A
:10223000C194D108D3948DE201C08BE290E0B30148
:102240000E94901A80E305C08F5F26EF3FEFC20E19
:10225000D31E3AE0C316D104BCF790E0B3010E944C
:10226000901AC601C096B3010E94901ACC84DD84F6
:1022700052C1933631F0933799F0933509F059C034
:1022800023C0F601808189835E010894A11CB11CE2
:1022900022E030E0C20ED31E21E0E22EF12C12C06B
:1022A000F601A080B18016FD03C06FEF7FEF02C082
:1022B000692D70E022E030E0C20ED31EC5010E94FD
:1022C000851A7C011F7713C0F601A080B18016FD2E
:1022D00003C06FEF7FEF02C0692D70E022E030E0B5
:1022E000C20ED31EC5010E947A1A7C01106813FF2A
:1022F00007C01BC080E290E0B3010E94901A8A944C
:10230000882D90E0E816F906A8F30FC0F50117FD37
:10231000859117FF81915F0190E0B3010E94901AAF
:1023200081108A940894E108F108E114F10471F72E
:10233000F2C0943611F0993689F517FF08C0F601FE
:10234000208131814281538184E090E00AC0F6010E
:10235000808191819C01442737FD4095542F82E074
:1023600090E0C80ED91E9FE6F92EF12257FF09C052
:1023700050954095309521953F4F4F4F5F4F90E8D6
:10238000F92ACA01B901AE014F5F5F4F2AE030E080
:102390000E94E01AE82EE889EE1A41C0953721F430
:1023A0001F7E2AE030E01CC0197F9F3661F0903715
:1023B00020F4983509F0B2C00FC0903739F0983743
:1023C00009F0ACC004C028E030E00AC0106114FD80
:1023D000146020E130E004C014FD166020E132E01A
:1023E00017FF08C0F601608171818281938144E00A
:1023F00050E008C0F60180819181BC0180E090E04E
:1024000042E050E0C40ED51EAE014F5F5F4F0E9408
:10241000E01AE82E5889E51A8FE7F82EF122F6FE29
:102420000BC08EEFF822E91438F4F4FE07C0F2FC7A
:1024300005C09FEEF92202C01E2D01C0192DF4FE29
:102440000DC0FE01EE0DF11D8081803319F4E9EE1F
:10245000FE2208C01F5FF2FE05C003C08F2D8678E4
:1024600009F01F5F0F2DF3FC14C0F0FE0FC018150C
:1024700010F09E2C0BC09E2C980C911A182D06C0A3
:1024800080E290E0B3010E94901A1F5F1815C0F31C
:1024900004C0181510F4811A01C0882404FF0FC06D
:1024A00080E390E0B3010E94901A02FF1DC001FD7D
:1024B00003C088E790E00EC088E590E00BC0802F55
:1024C000867891F001FF02C08BE201C080E2F7FC48
:1024D0008DE290E0B3010E94901A06C080E390E084
:1024E000B3010E94901A9A94E914C0F3EA94E1E0CF
:1024F000F0E0EC0FFD1FEE0DF11D808190E0B301C7
:102500000E94901AEE2091F706C080E290E0B3019D
:102510000E94901A8A948820C1F799CCF3016681B1
:102520007781CB016196E2E10C941219ECE2F2E0C2
:10253000119284E0E432F807D9F70895843580F5E4
:10254000603370F5262F269526952695677090E0C6
:10255000442399F0E4E52E9FF0011124E80FF91FC0
:10256000E45DFD4F81E090E002C0880F991F6A95FD
:10257000E2F72081282B20830895E4E52E9FF001C7
:102580001124E80FF91FE45DFD4F81E090E002C0E7
:10259000880F991F6A95E2F7809520812823208370
:1025A00008952F923F924F925F926F927F928F92F7
:1025B0009F92AF92BF92CF92DF92EF92FF920F93D2
:1025C0001F93DF93CF93CDB7DEB72D970FB6F89457
:1025D000DEBF0FBECDBFD82EC62E142F022F8417FC
:1025E000F9F4A62EBB24E22EFF240EC08D2D6A2DF9
:1025F00041E00E949E12C01620F40894A11CB11C58
:1026000003C00894A108B108C01628F4EA14FB041A
:102610000CF4FEC0EBCFAE14BF040CF4F9C0E6CF4F
:10262000282F30E06017F9F4C9015C01E42EFF2483
:102630000EC08A2D6C2D41E00E949E12D11620F40E
:102640000894A11CB11C03C00894A108B108D116BC
:1026500028F4EA14FB040CF4DBC0EBCFAE14BF0487
:102660000CF4D6C0E6CF842F90E09A838983C90109
:102670005C0169817A81681B790B882777FD8095D9
:10268000982F0E94E5166F83788789879A87202E76
:1026900033244C2C5524B10164197509882777FD22
:1026A0008095982F0E94E5163B014C012F813885BB
:1026B00049855A850E944A166B837C838D839E834D
:1026C00020E030E040E050E00E94211887FF0DC07C
:1026D000C401B30190582F81388549855A850E94DD
:1026E0004A166B837C838D839E830F2EF0E0CF2E62
:1026F000F0E0DF2EF0E0EF2EF0E0FF2EF02D70C0C6
:10270000AB868A2D642D41E00E949E12C701B6015E
:102710002B813C814D815E810E94CC1531C08B851F
:10272000642D41E00E949E121D861C86C401B301E7
:1027300020E030E040E050E00E942118181624F418
:10274000E1E0F0E0FD87EC8700E010E0C401B301B8
:1027500020E030E040E050E00E944316882314F46B
:1027600001E010E08C859D85801B910B480E591E61
:10277000C701B60120E030E040E85FE30E94CB15DE
:102780006B017C0120E030E040E05FE30E94211813
:1027900088239CF0C401B30120E030E040E050E029
:1027A0000E94211818162CF4241435040CF0B7CF0D
:1027B00004C0421453040CF0B2CF6F817885898530
:1027C0009A8520E030E040E050E00E942118181681
:1027D00024F40894A11CB11C03C00894A108B108FA
:1027E0006F81788589859A8520E030E040E050E06F
:1027F0000E942118181634F4E981FA81EA15FB05C4
:102800003CF07ECF89819A81A816B9060CF078CF6A
:102810002D960FB6F894DEBF0FBECDBFCF91DF91DE
:102820001F910F91FF90EF90DF90CF90BF90AF90EE
:102830009F908F907F906F905F904F903F902F90E0
:1028400008959F92AF92BF92CF92DF92EF92FF9244
:102850000F931F93CF93DF93982EC62E85E0489F4A
:10286000E0011124C05AD04000E081E0A82EB12C34
:1028700018C0612F6C0DA501012E02C0440F551F19
:102880000A94E2F74E215F21012E02C0559547952B
:102890000A94E2F78D2D0E949E121F5F183049F7AF
:1028A0000F5F053061F0FE01E00FF11DE35EFD4FAB
:1028B00010E0E491D02ED90CEE2EFF24EFCFDF9163
:1028C000CF911F910F91FF90EF90DF90CF90BF902D
:1028D000AF909F900895EF92FF920F931F93CF9325
:1028E000DF93F82E062F142F242F352FC901EC016A
:1028F00095E0E92E08C08E9DC00111248F0D602F38
:102900000E94211421969E01211B822F488144237D
:1029100091F7DF91CF911F910F91FF90EF90089564
:10292000CF93DF9380E060E00E940515CCE2D2E017
:1029300081E069910E94A31484E0C432D807C1F7F2
:10294000DF91CF91089595B18295880F807E9F7D0C
:10295000982B95B95F9827E030E070E08F98CB0115
:10296000022E02C0959587950A94E2F780FF02C077
:102970002E9A01C02E988F9A215030408FEF2F3F12
:10298000380761F75F9A08951F93182F579A249A72
:10299000259A269A879A2C985F9A2C9A80E061E271
:1029A0000E94A314106880E0612F0E94A31480E0AD
:1029B00064E00E94A31480E063E10E94A31480E01D
:1029C0006CE00E94A31480E060E20E94A31480E007
:1029D0006CE00E94A31480E060E40E94A31480E0F5
:1029E00060E80E94A3141F910895CF93DF93C0E085
:1029F000D0E081E060E00E94A314219681E0C83F0E
:102A0000D807B9F7DF91CF9108951F93182F60640D
:102A100080E00E94A314106880E0612F0E94A3143C
:102A20001F910895AF92BF92CF92EF920F931F9391
:102A3000FC0140835183628373830483158326835F
:102A40003783E08AC18AB48AA38A81E0828B80E0DE
:102A500090E0A0E0B0E080879187A287B387848769
:102A60009587A687B7871F910F91EF90CF90BF9062
:102A7000AF9008953F924F925F926F927F928F92A4
:102A80009F92AF92BF92CF92DF92EF92FF920F93FD
:102A90001F93CF93DF93EC018A89882309F469C0DF
:102AA000688970E0882777FD8095982F0E94E51649
:102AB00020E030E040E05EE30E9425180E943016DE
:102AC0000E94B716362E882447C0092D10E0B801A1
:102AD000882777FD8095982F0E94E51620E030E04A
:102AE00040E05EE30E9425180E9420176B017C01E4
:102AF000688179818A819B810E94B716A92CA60ED4
:102B00006C817D818E819F810E94B716B82CB60E94
:102B1000C301B2010E94E516A70196010E94CC15DF
:102B20000E94B216EB89FC89E60FF71F408150E046
:102B3000009510950770107002C0559547950A953D
:102B4000E2F741708A2D6B2D0E949E129394888922
:102B5000981608F4BACF83948989881650F4839C18
:102B6000C001112499242C01662457FC6094762C12
:102B7000EECFDF91CF911F910F91FF90EF90DF90FB
:102B8000CF90BF90AF909F908F907F906F905F900D
:102B90004F903F9008955058BB27AA270ED0EFC101
:102BA000B8D130F0BDD120F031F49F3F11F41EF4C4
:102BB000ADC10EF4E095E7FB7AC1E92F02D280F3B4
:102BC000BA17620773078407950718F071F49EF52A
:102BD00031C20EF4E0950B2EBA2FA02D0B01B901D6
:102BE00090010C01CA01A0011124FF27591B99F083
:102BF000593F50F4503E68F11A16F040A22F232F8F
:102C0000342F4427585FF3CF469537952795A795DE
:102C1000F0405395C9F77EF41F16BA0B620B730B85
:102C2000840BBAF09150A1F0FF0FBB1F661F771FF6
:102C3000881FC2F70EC0BA0F621F731F841F48F4AB
:102C4000879577956795B795F7959E3F08F0B3CF31
:102C50009395880F08F09927EE0F9795879508951B
:102C6000D2D180F09F3740F491110EF4E4C160E0BE
:102C700070E080E89FE3089526F01B16611D711D2A
:102C8000811D1BC135C1EFD008F481E0089550D1FA
:102C9000E39586C10CD073C143D140F03AD130F0F6
:102CA00021F45F3F19F003C15111C5C12FC189D172
:102CB00098F39923C9F35523B1F3951B550BBB2703
:102CC000AA2762177307840738F09F5F5F4F220FB0
:102CD000331F441FAA1FA9F333D00E2E3AF0E0E8A9
:102CE00030D091505040E695001CCAF729D0FE2FF5
:102CF00027D0660F771F881FBB1F26173707480787
:102D0000AB07B0E809F0BB0B802DBF01FF2793583C
:102D10005F4F2AF09E3F510568F0C9C08CC15F3FEC
:102D2000ECF3983EDCF3869577956795B795F79524
:102D30009F5FC9F7880F911D9695879597F908951C
:102D4000E1E0660F771F881FBB1F621773078407B8
:102D5000BA0720F0621B730B840BBA0BEE1F88F7C7
:102D6000E095089504D06894B11165C1089531D1FA
:102D700088F09F5790F0B92F9927B751A0F0D1F064
:102D8000660F771F881F991F1AF0BA95C9F712C0EE
:102D9000B13081F04FD1B1E008954CC1672F782F49
:102DA0008827B85F39F0B93FCCF38695779567955A
:102DB000B395D9F73EF490958095709561957F4FC6
:102DC0008F4F9F4F0895E89409C097FB3EF490956C
:102DD0008095709561957F4F8F4F9F4F9923A9F0F4
:102DE000F92F96E9BB279395F69587957795679583
:102DF000B795F111F8CFFAF4BB0F11F460FF1BC0C7
:102E00006F5F7F4F8F4F9F4F16C0882311F096E959
:102E100011C0772321F09EE8872F762F05C0662307
:102E200071F096E8862F70E060E02AF09A95660FC0
:102E3000771F881FDAF7880F9695879597F9089579
:102E4000E2D080F09F3740F491110EF0F4C060E0C2
:102E500070E080E89FEB089526F41B16611D711D3C
:102E6000811D2BC045C0990F0008550FAA0BE0E843
:102E7000FEEF16161706E807F907C0F0121613063C
:102E8000E407F50798F0621B730B840B950B39F47C
:102E90000A2661F0232B242B252B21F408950A26E2
:102EA00009F4A140A6958FEF811D811D089597F922
:102EB0009F6780E870E060E00895882371F47723CD
:102EC00021F09850872B762F07C0662311F499279D
:102ED0000DC09051862B70E060E02AF09A95660F45
:102EE000771F881FDAF7880F9695879597F90895C9
:102EF0009F3F31F0915020F4879577956795B7956E
:102F0000880F911D9695879597F908959FEF80EC0E
:102F1000089500240A94161617061806090608953F
:102F200000240A9412161306140605060895EECF1F
:102F300050D0E8F3E894E0E0BB279F57F0F02AED8B
:102F40003FE049EC06C0EE0FBB0F661F771F881FDE
:102F500028F0B23A62077307840728F0B25A620B6E
:102F6000730B840BE3959A9572F7803830F49A9539
:102F7000BB0F661F771F881FD2F79048BBCF092E63
:102F80000394000C11F4882352F0BB0F40F4BF2BC4
:102F900011F460FF04C06F5F7F4F8F4F9F4F089504
:102FA000EF93E0FF06C0A2EA2AED3FE049EC5FEBB9
:102FB00004DEE5DF0F90039401FC9058EEE2F1E0AF
:102FC000ADC057FD9058440F551F59F05F3F71F049
:102FD0004795880F97FB991F61F09F3F79F0879580
:102FE0000895121613061406551FF2CF4695F1DF09
:102FF00008C0161617061806991FF1CF8695710599
:10300000610508940895E5DFA0F0BEE7B91788F4DC
:10301000BB279F3860F41616B11D672F782F8827BD
:10302000985FF7CF869577956795B11D93959639FB
:10303000C8F30895E894BB2766277727CB0197F953
:10304000089511DF08F48FEF08950BD098CF61DF5A
:1030500028F066DF18F0952309F029CF57CF112407
:10306000EACFAFDFA0F3959FD1F3950F50E0551F46
:10307000629FF001729FBB27F00DB11D639FAA27CD
:10308000F00DB11DAA1F649F6627B00DA11D661F1C
:10309000829F2227B00DA11D621F739FB00DA11D3D
:1030A000621F839FA00D611D221F749F3327A00DF7
:1030B000611D231F849F600D211D822F762F6A2F93
:1030C00011249F5750408AF0E1F088234AF0EE0F18
:1030D000FF1FBB1F661F771F881F91505040A9F725
:1030E0009E3F510570F0E3CEA6CF5F3FECF3983ED4
:1030F000DCF3869577956795B795F795E7959F5F8C
:10310000C1F7FE2B880F911D9695879597F9089525
:103110009F930EDF0F9007FCEE5F42CF9F938F933C
:103120007F936F93FF93EF939B01AC018EDFEF9141
:10313000FF9105D02F913F914F915F9186CFDF9303
:10314000CF931F930F93FF92EF92DF927B018C013D
:10315000689405C0DA2EEF0184DFFE01E894A591A2
:103160002591359145915591AEF3EF0126DDFE0194
:103170009701A801DA9479F7DF90EF90FF900F9113
:103180001F91CF91DF910895629FD001739FF0014D
:10319000829FE00DF11D649FE00DF11D929FF00DE7
:1031A000839FF00D749FF00D659FF00D9927729F1E
:1031B000B00DE11DF91F639FB00DE11DF91FBD01A9
:1031C000CF011124089597FB092E07260AD077FD19
:1031D00004D043D006D000201AF4709561957F4F3B
:1031E0000895F6F7909581959F4F08952F923F92FD
:1031F0004F925F926F927F928F929F92AF92BF9207
:10320000CF92DF92EF92FF920F931F93CF93DF93B2
:10321000CDB7DEB7CA1BDB0B0FB6F894DEBF0FBE0F
:10322000CDBF09942A88398848885F846E847D845C
:103230008C849B84AA84B984C884DF80EE80FD805E
:103240000C811B81AA81B981CE0FD11D0FB6F894D4
:10325000DEBF0FBECDBFED010895AA1BBB1B51E120
:1032600007C0AA1FBB1FA617B70710F0A61BB70BF6
:10327000881F991F5A95A9F780959095BC01CD019B
:103280000895A0E0B0E0E7E4F9E10C94FE18EC0149
:10329000A880B980CA80DB80A114B104C104D10424
:1032A00041F484E2A82E89EDB82E8BE5C82E87E084
:1032B000D82EC601B5012DE133EF41E050E00E9468
:1032C0003E1B27EA31E440E050E00E94C4187B0135
:1032D0008C01C601B5012DE133EF41E050E00E94C1
:1032E0003E1BCA01B9012CEE34EF4FEF5FEF0E9495
:1032F000C4186E0D7F1D801F911F97FF04C0615081
:10330000704080409048688379838A839B839B01C7
:103310003F77C901CDB7DEB7EAE00C941A190E94D5
:103320004119089583ED91E00E9441190895A0E0AC
:10333000B0E08093D3019093D401A093D501B093D2
:10334000D6010895283008F027E03327DA01990FD5
:10335000311D87FD916000966105710539F4326079
:103360002E5F3D9330E32A95E1F708959F3F30F0BB
:1033700080387105610509F03C5F3C5F3D939130F9
:1033800008F08068911DDF93CF931F930F93FF92F6
:10339000EF92192F987F9695E92F96959695E90FBC
:1033A000FF27E95AFB4F99273327EE24FF24A70173
:1033B000E70105900894079428F4360FE71EF81EDD
:1033C000491F511D660F771F881F991F0694A1F78B
:1033D0000590079428F4E70EF81E491F561FC11DDB
:1033E000770F881F991F661F0694A1F70590079411
:1033F00028F4F80E491F561FC71FD11D880F991FAB
:10340000661F771F0694A1F70590079420F4490FD3
:10341000561FC71FD81F990F661F771F881F069456
:10342000A9F784911095177041F0D695C7955795D7
:103430004795F794E7941A95C1F7EDEFF3E0689498
:103440001590159135916591959105907FE2739551
:10345000E118F10A430B560BC90BD009C0F7E10C78
:10346000F11E431F561FC91FD01D7EF4703311F487
:103470008A95E6CFE894015030F0080F0AF400274F
:10348000021708F4202F2395022F7A3328F079E3CE
:103490007D932A95E9F710C07D932A9589F60694C5
:1034A00097956795379517951794E118F10A430B8F
:1034B000560BC90BD00998F023957E9173957A33FA
:1034C00008F070E37C932013B8F77E9170617D93D0
:1034D00030F0839571E37D9370E32A95E1F7112431
:1034E000EF90FF900F911F91CF91DF91992787FD6A
:1034F00090950895FC010590615070400110D8F737
:10350000809590958E0F9F1F0895FC01615070402B
:1035100001900110D8F7809590958E0F9F1F089508
:103520000F931F93CF93DF938C01EB018B8181FF6E
:103530001BC082FF0DC02E813F818C819D81281789
:10354000390764F4E881F9810193F983E88306C0BF
:10355000E885F985802F0995892B31F48E819F812B
:1035600001969F838E8302C00FEF1FEFC801DF918A
:10357000CF911F910F910895AEE0B0E0E2ECFAE137
:103580000C9404190D891E8986E08C831A830983A3
:103590008FEF9FE79E838D839E01275E3F4FCE0175
:1035A00001966F89788DA9010E940F0F2F813885B0
:1035B000020F131FF80110822E96E4E00C942019DC
:1035C000FA01AA27283051F1203181F1E8946F9354
:1035D0006E7F6E5F7F4F8F4F9F4FAF4FB1E03ED0FA
:1035E000B4E03CD0670F781F891F9A1FA11D680F98
:1035F000791F8A1F911DA11D6A0F711D811D911DCB
:10360000A11D20D009F468943F912AE0269F11243F
:103610003019305D3193DEF6CF010895462F4770A3
:10362000405D4193B3E00FD0C9F7F6CF462F4F70FE
:10363000405D4A3318F0495D31FD4052419302D05C
:10364000A9F7EACFB4E0A695979587957795679502
:10365000BA95C9F700976105710508959B01AC0102
:103660000A2E06945795479537952795BA95C9F729
:10367000620F731F841F951FA01D089597FB092ECD
:1036800005260ED057FD04D014D00AD0001C38F403
:1036900050954095309521953F4F4F4F5F4F08957E
:1036A000F6F790958095709561957F4F8F4F9F4F5E
:1036B0000895A1E21A2EAA1BBB1BFD010DC0AA1F73
:1036C000BB1FEE1FFF1FA217B307E407F50720F08B
:1036D000A21BB30BE40BF50B661F771F881F991F06
:1036E0001A9469F760957095809590959B01AC014F
:0A36F000BD01CF010895F894FFCF4B
:1036FA004C75204368656E20487561004E39353433
:10370A00333530330053656C656374204C657665D8
:10371A006C3A200025640057616974696E672066F7
:10372A006F720053657269616C2E2E2E004C3A201E
:10373A0000533A200067616D65206F766572000359
:10374A000603010000001041000028423FFC40022D
:10375A0080018001800186618001800180018001F1
:10376A00842183C18001800140023FFC3FFC7FFE2F
:10377A00C003C003C003F00FCC33C003C003C003AF
:10378A00C003CFF3C003C0037FFE3FFC3FFC4002EF
:10379A0080018001800184018619800180018001F5
:1037AA00878180018001800140023FFCFFFFFFFF0B
:1037BA00FFFFFFFF000000000000000000E1000022
:0837CA000000080100000000EE
:00000001FF
