:100000000C946D020C948A020C948A020C948A025D
:100010000C948A020C948A020C948A020C948A0230
:100020000C948A020C948A020C9464120C949F1211
:100030000C948A020C948A020C948A020C948A0210
:100040000C948A020C9455040C948A020C948A0233
:100050000C948A020C948A020C948A020C948A02F0
:100060000C948A020C948A020C948A020C948A02E0
:100070000C948A020C948A020C948A020C948A02D0
:100080000C948A020C948A020C948A020C948A02C0
:100090000C948A020C948A020C948A020C948A02B0
:1000A0000C948A020C948A020C948A02F911F611BB
:1000B000F311F011ED11EA11E711E411E111DE1174
:1000C000DB11D811D511D211CF11CC11C911C61124
:1000D000C311C011BD11BA11B711B411B111AE11D4
:1000E000AB11A811A511A2119F119C119911961184
:1000F000931190118D118A118711841181117E1134
:100100007B117811751172116F116C1169116611E3
:10011000631160115D115A115711541151114E1193
:100120004B114811451142113F113C113911000189
:10013000000062011200020000740143000300008D
:10014000B7010401030904BB011402030904D1012E
:100150001603030904E9010C0001C11201803601F4
:1001600081361201000202000010C0167A0400015C
:100170000102030109024300020100C03209040028
:100180000001020201000524001001052401010103
:10019000042402060524060001070582031000401E
:1001A00009040100020A00000007050302400000E4
:1001B0000705840240000004030904140359006F7A
:1001C000007500720020004E0061006D00650000A7
:1001D00000160355005300420020005300650072D2
:1001E00000690061006C0000000C03310032003334
:1001F000003400350000006E616E00696E6600001C
:100200000000000000005F00000007000700147FEE
:10021000147F14242A7F2A12231308646236495556
:1002200022500005030000001C2241000041221C56
:100230000014083E081408083E080800503000006A
:100240000808080808006060000020100804023E4A
:100250005149453E00427F4000426151494621419B
:10026000454B311814127F1027454545393C4A4902
:10027000493001710905033649494936064949297A
:100280001E003636000000563600000814224100D9
:1002900014141414140041221408020151090632E6
:1002A0004979413E7E1111117E7F494949363E41CF
:1002B0004141227F4141221C7F494949417F09092F
:1002C00009013E4149497A7F0808087F00417F4182
:1002D000002040413F017F081422417F40404040C0
:1002E0007F020C027F7F0408107F3E4141413E7F28
:1002F000090909063E4151215E7F091929464649EF
:1003000049493101017F01013F4040403F1F2040EA
:10031000201F3F4038403F631408146307087008EB
:10032000076151494543007F414100020408102004
:100330000041417F0004020102044040404040006F
:100340000102040020545454787F4844443838440F
:10035000444420384444487F3854545418087E0993
:1003600001020C5252523E7F0804047800447D4042
:10037000002040443D007F1028440000417F4000A1
:100380007C041804787C0804047838444444387C9D
:1003900014141408081414187C7C08040408485425
:1003A000545420043F4440203C4040207C1C2040CA
:1003B000201C3C4030403C44281028440C505050F5
:1003C0003C4464544C44000836410000007F000067
:1003D00000413608001008081008784641467800A9
:1003E000407A10F35A00A0724E18090010A5D4E804
:1003F0000000E87648170000E40B54020000CA9A97
:100400003B000000E1F505000080969800000040E8
:10041000420F000000A0860100000010270000002D
:1004200000E803000000006400000000000A000073
:100430000000000100000000002C76D888DC674F27
:100440000823DFC1DFAE59E1B1B796E5E3E453C657
:100450003AE651997696E8E6C28426EB898C9B624F
:10046000ED407C6FFCEFBC9C9F40F2BAA56FA5F4F9
:1004700090055A2AF75C936B6CF9676DC11BFCE021
:10048000E40D47FEF520E6B500D0ED902E03009474
:100490003577050080841E080000204E0A00000009
:1004A000C80C333333330F986E12831141EF8D2113
:1004B00014893BE65516CFFEE6DB18D1844B381B7A
:1004C000F77C1D901DA4BBE424203284725E22813F
:1004D00000C9F124ECA1E53D270011241FBECFEF98
:1004E000DAE0DEBFCDBF11E0A0E0B1E0E0E0F0E493
:1004F00002C005900D92A23FB107D9F714E0A2EF18
:10050000B1E001C01D92A830B107E1F70E940608D2
:100510000C94FE1F0C94000080E480937C0087E81C
:1005200080937A00089590917C008770987F892B42
:1005300080937C0080917A00806480937A0080911F
:100540007A0086FDFCCF2091780030917900C901B6
:10055000089581E090E090930B0280930A0210923C
:10056000FF011092FE0183E090E0909305028093DA
:10057000040208954F925F926F927F928F929F92A2
:10058000AF92BF92CF92DF92EF92FF920F931F93A1
:10059000CF93DF933C014B01FC018289882309F44E
:1005A00087C0FB018289882309F482C0F301A080FF
:1005B000B180C280D380FB01E080F1800281138191
:1005C000C601B501A80197010E94E01C882364F0D0
:1005D00044245524C601B501A80197010E94C61AFA
:1005E0007B018C01F4010BC044245524C801B701E0
:1005F000A60195010E94C61A7B018C01F301608956
:1006000070E0882777FD8095982F0E94DD1B9B0165
:10061000AC01C801B7010E943E1B88231CF481E095
:10062000482E512CF301A480B580C680D780F401F8
:10063000E480F58006811781C601B501A801970104
:100640000E94E01C882364F0C0E0D0E0C601B50140
:10065000A80197010E94C61A7B018C01F4010BC00E
:10066000C0E0D0E0C801B701A60195010E94C61AFA
:100670007B018C01F301618970E0882777FD80950B
:10068000982F0E94DD1B9B01AC01C801B7010E949D
:100690003E1B882314F4C1E0D0E0452849F090E0E7
:1006A000CD2B09F491E081E09827292F30E002C09A
:1006B00020E030E0C901DF91CF911F910F91FF90B1
:1006C000EF90DF90CF90BF90AF909F908F907F90F2
:1006D0006F905F904F9008952F923F924F925F924C
:1006E0006F927F928F929F92AF92BF92CF92DF9242
:1006F000EF92FF920F931F93DF93CF9300D000D020
:10070000CDB7DEB77C018B01DC016D907D908D90C3
:100710009C90DB018D919D910D90BC91A02D8983C2
:100720009A83AB83BC83FB01608970E0882777FDE7
:100730008095982F0E94DD1B9B01AC0169817A8115
:100740008B819C810E94C71A20E030E040EA50E48F
:100750000E94C71A9B01AC01C401B3010E94E01CB6
:1007600087FF6CC0D7011496AD90BD90CD90DC9002
:100770001797F8012480358046805780618970E0A2
:10078000882777FD8095982F0E94DD1B9B01AC0187
:10079000C201B1010E94C71A20E030E040EA50E4F3
:1007A0000E94C71A9B01AC01C601B5010E94E01C62
:1007B00087FF44C0D70150966C9170E0882777FD81
:1007C0008095982F0E94DD1B9B01AC01C401B301F1
:1007D0000E94C71A20E030E040EA50E40E94C71AA5
:1007E0009B01AC0169817A818B819C810E94E01C14
:1007F00087FF24C010E0F701618970E0882777FD4A
:100800008095982F0E94DD1B9B01AC01C601B501AC
:100810000E94C71A20E030E040EA50E40E94C71A64
:100820009B01AC01C201B1010E94E01C88230CF0C5
:1008300011E081E01827212F30E002C020E030E0F5
:10084000C9010F900F900F900F90CF91DF911F91E2
:100850000F91FF90EF90DF90CF90BF90AF909F905F
:100860008F907F906F905F904F903F902F90089562
:100870001092F2011092FB011092FA011092FD0108
:100880001092FC0110920102109200021092F301EA
:10089000109203021092020210920D0210920C02AA
:1008A000109209021092080208951F920F920FB63B
:1008B0000F9211248F939F938091880090918900CB
:1008C000805C904E90938900809388007D9B1AC035
:1008D000809102029091030201969093030280930B
:1008E000020210920D0210920C028091020290916D
:1008F0000302C3973CF181E090E09093090280935A
:10090000080220C0109203021092020280910C0291
:1009100090910D02019690930D0280930C028091AC
:100920000C0290910D02C3976CF080910802909197
:100930000902019719F481E08093F30110920902F2
:10094000109208027E9B1AC08091FA019091FB01DF
:1009500001969093FB018093FA011092FD01109291
:10096000FC018091FA019091FB01C3973CF181E079
:1009700090E0909301028093000220C01092FB014E
:100980001092FA018091FC019091FD0101969093E3
:10099000FD018093FC018091FC019091FD01C397C2
:1009A0006CF08091000290910102019719F481E0AE
:1009B0008093F201109201021092000280910E02C7
:1009C00090910F02892B49F080910E0290910F02B5
:1009D000019790930F0280930E02809106029091EE
:1009E0000702892B49F08091060290910702019736
:1009F00090930702809306029F918F910F900FBEF4
:100A00000F901F90189589E060E240E051E00E944D
:100A1000661908950F931F93DF93CF93CDB7DEB779
:100A200060970FB6F894DEBF0FBECDBF00D000D0E8
:100A300000D0EDB7FEB731968E010F5F1F4FADB7F7
:100A4000BEB712961C930E9311978AE091E09383A0
:100A5000828380910A0290910B02958384830E9485
:100A6000611F8DB79EB706960FB6F8949EBF0FBE56
:100A70008DBF80E060E249E151E00E94661989E0A3
:100A800060E2A8010E94661960960FB6F894DEBF76
:100A90000FBECDBFCF91DF911F910F910895CF93DE
:100AA000DF93C1E0D0E08091F201882329F0109219
:100AB000F201DF91CF9108958091F301882399F39A
:100AC0001092F30180910A0290910B02019690938B
:100AD0000B0280930A02049724F0D0930B02C09378
:100AE0000A020E940A050E948B19DDCF80E260E0B5
:100AF0004AE251E00E94661981E168E04FE251E06C
:100B00000E94661987E060E14AE351E00E9466199D
:100B100086E168E149E451E00E94661908950F9367
:100B20001F93DF93CF93CDB7DEB760970FB6F894DE
:100B3000DEBF0FBECDBF8DB79EB708970FB6F89436
:100B40009EBF0FBE8DBFEDB7FEB731968E010F5F12
:100B50001F4FADB7BEB712961C930E93119782E547
:100B600091E09383828380910402909105029583A2
:100B700084838091FE019091FF01978386830E9478
:100B8000611F8DB79EB708960FB6F8949EBF0FBE33
:100B90008DBF80E060E049E151E00E94661985E088
:100BA00060E0A8010E94661985E068E04EE428E054
:100BB0000E94CC1760960FB6F894DEBF0FBECDBF73
:100BC000CF91DF911F910F9108950F931F93CF93B2
:100BD000DF93EC018C010E5F1F4F80918400909198
:100BE00085000E943C1E0E94371E64E470E00E9453
:100BF000661D998388830E94371E64E470E00E941A
:100C0000661DF801918380830E94371E64E470E0C2
:100C10000E94661DAC019D838C8328813981F80177
:100C200060817181261737071CF4E1E0F0E00CC009
:100C3000E0E0F0E0CB0144968217930714F4E1E082
:100C4000F0E0621773073CF0C901449686179707D6
:100C500014F0E0E0F0E0241735073CF0CA014496B8
:100C60008217930714F0E0E0F0E0421753073CF0DE
:100C70002C5E3F4F2417350714F0E0E0F0E06417D6
:100C800075073CF0CA0144968617970714F0E0E018
:100C9000F0E04617570734F06C5E7F4F6417750716
:100CA0000CF09BCFEF2B09F498CFDF91CF911F91E0
:100CB0000F9108958F929F92AF92BF92CF92DF9241
:100CC000EF92FF920F931F93DF93CF93CDB7DEB7D1
:100CD000A0970FB6F894DEBF0FBECDBF6C015B01CD
:100CE0004A018901DE011196E6ECF1E080E2019013
:100CF0000D928150E1F780918400909185000E94CF
:100D00003C1E0E94371E64E470E00E94661DAA2704
:100D100097FDA095BA2FBC01CD010E94DD1BF60105
:100D200060837183828393830E94371E64E470E042
:100D30000E94661DAA2797FDA095BA2FBC01CD0180
:100D40000E94DD1BF50160837183828393830E947F
:100D5000371E64E470E00E94661DAA2797FDA095E7
:100D6000BA2FBC01CD010E94DD1BF40160837183A9
:100D7000828393830E94371E6FE470E00E94661D99
:100D8000AA2797FDA095BA2FBC01CD010E94DD1BBB
:100D9000F80160837183828393830E94371E67E129
:100DA00070E00E94661D0996AA2797FDA095BA2FAC
:100DB000BC01CD010E94DD1BF6016483758386832F
:100DC00097830E94371E67E170E00E94661D0996B6
:100DD000AA2797FDA095BA2FBC01CD010E94DD1B6B
:100DE000F50164837583868397830E94371E67E1CC
:100DF00070E00E94661D0996AA2797FDA095BA2F5C
:100E0000BC01CD010E94DD1BF401648375838683E0
:100E100097830E94371E60E270E00E94661D09966B
:100E2000AA2797FDA095BA2FBC01CD010E94DD1B1A
:100E3000F8016483758386839783C601B5010E9498
:100E40006C03892B09F057CFC601B4010E946C03D3
:100E5000892B09F050CFC601B8010E946C03892B81
:100E600009F049CFC501B4010E946C03892B09F038
:100E700042CFC501B8010E946C03892B09F03BCF1A
:100E8000C401B8010E946C03892B09F034CF0E9481
:100E9000371E68E070E00E94661D8C01000F111F74
:100EA000000F111F7E010894E11CF11CF701E00FF7
:100EB000F11F60817181882777FD8095982F0E94AE
:100EC000DD1BF60160877187828793870E0D1F1DDA
:100ED000F80162817381882777FD8095982F0E94A1
:100EE000DD1BF60164877587868797870E94371E0A
:100EF00068E070E00E94661D8C01000F111F000F5A
:100F0000111FF701E00FF11F60817181882777FDC4
:100F10008095982F0E94DD1BF5016087718782877D
:100F200093870E0D1F1DF80162817381882777FD5D
:100F30008095982F0E94DD1BF50164877587868751
:100F400097870E94371E68E070E00E94661D8C0142
:100F5000000F111F000F111FF701E00FF11F60813B
:100F60007181882777FD8095982F0E94DD1BF40101
:100F70006087718782879387E00EF11EF701628197
:100F80007381882777FD8095982F0E94DD1BF401DF
:100F90006487758786879787A0960FB6F894DEBF1B
:100FA0000FBECDBFCF91DF911F910F91FF90EF90BA
:100FB000DF90CF90BF90AF909F908F90089580B3B7
:100FC0008F7980BB84B18C6084B91092800081E0FD
:100FD000809381008091840090918500805C904E88
:100FE0009093890080938800EFE6F0E08081826032
:100FF000808380E480937C0087E880937A007894F3
:1010000085B1837F85B90E941A1008952F923F926F
:101010004F925F926F927F928F929F92AF92BF9208
:10102000CF92EF92FF920F931F93DF93CF93CDB7A1
:10103000DEB7CA55D0400FB6F894DEBF0FBECDBFA5
:1010400080E88093610081E0809361008FE30E94DB
:10105000BF190E9438040E94DF0781E090E090935E
:101060000B0280930A021092FF011092FE0183E0AE
:1010700090E090930502809304020E9476050E94FE
:101080008B1980E29EE428EC30E0F9013197F1F70A
:101090000197D9F708E2802E912C1CE1412E512CAA
:1010A0004C0E5D1EB1E32B2E312C2C0E3D1EAAE200
:1010B0006A2E712C640C751C1092FF011092FE01B7
:1010C00083E090E090930502809304020E949117C0
:1010D0000E940A050E948B190E944F0580910A0206
:1010E00090910B020397A9F48EE190E09093070290
:1010F0008093060206C08091060290910702892B18
:1011000041F00E9433108823B1F30E9435128823E6
:1011100091F380910A0290910B020197029708F0D7
:101120005BC0CE0101960E94E505B401882777FDDA
:101130008095982F0E94DD1BAB01BC01CE01079664
:1011400000E010E024E232E4F5E0EF2EE7E0CE2EFE
:10115000BFEBAB2EB1E0BB2E0E940D1A69817A81E4
:10116000882777FD8095982F0E94DD1BAB01BC017D
:10117000C20100E010E020E231E4A0E1EA2EF0E15B
:10118000CF2EEFE5AE2EE1E0BE2E0E940D1A6B8150
:101190007C81882777FD8095982F0E94DD1BAB010D
:1011A000BC01C10100E010E020E231E4BFE7AB2E5A
:1011B000B1E0BB2E0E940D1A6D817E81882777FDDC
:1011C0008095982F0E94DD1BAB01BC01C30100E09C
:1011D00010E020E231E437C0CE01079640E050E055
:1011E00060E070E08A019B01A5E0EA2EF7E0CF2ED7
:1011F000EFEBAE2EE1E0BE2E0E940D1AC20140E0E0
:1012000050E060E070E08A019B01B0E1EB2EA0E1CC
:10121000CA2EFFE5AF2EF1E0BF2E0E940D1AC101CC
:1012200040E050E060E070E08A019B01EFE7AE2E05
:10123000E1E0BE2E0E940D1AC30140E050E060E0E4
:1012400070E08A019B01BFE9AB2EB1E0BB2E0E948A
:101250000D1A84EF91E0909307028093060280912B
:101260000A0290910B020197029708F029C100E051
:1012700010E0A4EFEA2EA1E0FA2ECC24C3940E9441
:1012800091178091060290910702892B09F068C09E
:10129000F0920702E09206020F5F1F4F0032110525
:1012A0000CF445C0CE0101960E94E50569817A8162
:1012B000882777FD8095982F0E94DD1B6C8F7D8F8E
:1012C0008E8F9F8F0B811C816D817E81882777FD9A
:1012D0008095982F0E94DD1B2A966CAF7DAF8EAF54
:1012E0009FAF2A9780910A0290910B02019759F4BF
:1012F000B401882777FD8095982F0E94DD1B6F83AE
:10130000788789879A87B801882777FD8095982FF5
:101310000E94DD1B69AB7AAB8BAB9CABCEA624964F
:10132000CFAE24976996CFAE699700E010E0065FD4
:101330001F4FB801882777FD8095982F0A501040DD
:101340000E94DD1B68A379A38AA39BA36DAB7EAB30
:101350008FAB98AF2E966CAF7DAF8EAF9FAF2E97B1
:1013600080910A0290910B028130910529F58091BC
:10137000F201882399F01092F2011814190474F400
:10138000089481089108B401882777FD8095982FEB
:101390000E94DD1B6F83788789879A878091F3018C
:1013A0008823D1F11092F3012FE482169104A4F561
:1013B0000894811C911C25C0029771F580E00E9461
:1013C00093028536910518F4882499241AC023E0E5
:1013D000883E920720F0FFE48F2E912C12C0845695
:1013E0009040BC0180E090E02FE430E040E050E02D
:1013F0000E94471D24E833E040E050E00E94791D40
:101400004901B401882777FD8095982F0E94DD1B44
:101410006F83788789879A87C2010E94351AC10134
:101420000E94351AC3010E94351ACE0107960E9408
:10143000351A0E948F050E948B19C201BE01695F97
:101440007F4F0E94BA02892B69F08091FE01909132
:10145000FF0102969093FF018093FE011EA6449720
:101460000CF0CEC5C101BE01695F7F4F0E94BA0278
:10147000892B61F024961FAE249785E0E81681E061
:10148000F80624F088E89FEFE80EF91EC301BE01BC
:10149000695F7F4F0E94BA02892B09F4F0CE8091D8
:1014A000040290910502823091050CF4A9C50197C0
:1014B000909305028093040269961FAE6997DFCE70
:1014C0000E9491170E948F050E948B19C201B101E1
:1014D000A3019E01295F3F4F0E945A06E4EFAE2E02
:1014E000E1E0BE2ECC24C3940E94911780910602A5
:1014F00090910702892B09F01EC2B0920702A092B8
:1015000006026C8D7D8D8E8D9F8D2CA13DA14EA1EF
:101510005FA10E94C71A6C8F7D8F8E8F9F8F20E0F6
:1015200030E040E050E00E943E1B8823B4F460E0CD
:1015300070E080E090E02CA13DA14EA15FA10E944F
:10154000C61A6CA37DA38EA39FA380E090E0A0E0C9
:10155000B0E08C8F9D8FAE8FBF8F6C8D7D8D8E8D0B
:101560009F8D20E030E048E852E40E94E01C18160D
:10157000B4F460E070E080E090E02CA13DA14EA1C9
:101580005FA10E94C61A6CA37DA38EA39FA380E0D7
:1015900090E0A8E8B2E48C8F9D8FAE8FBF8F68A1DA
:1015A00079A18AA19BA128A539A54AA55BA50E947E
:1015B000C71A68A379A38AA39BA320E030E040E187
:1015C00051E40E943E1B8823B4F460E070E080E0A8
:1015D00090E028A539A54AA55BA50E94C61A68A770
:1015E00079A78AA79BA780E090E0A0E1B1E488A357
:1015F00099A3AAA3BBA368A179A18AA19BA120E07A
:1016000030E040E052E40E94E01C1816B4F460E0C0
:1016100070E080E090E028A539A54AA55BA50E946E
:10162000C61A68A779A78AA79BA780E090E0A0E0E8
:10163000B2E488A399A3AAA3BBA369A97AA98BA999
:101640009CA929AD3AAD4BAD5CAD0E94C71A7B0198
:101650008C0169AB7AAB8BAB9CAB6DA97EA98FA9D2
:1016600098AD21962CAD3DAD4EAD5FAD21970E945A
:10167000C71A6DAB7EAB8FAB98AF2A966CAD7DADC4
:101680008EAD9FAD2A9762962CAD3DAD4EAD5FAD50
:1016900062970E94C71A2A966CAF7DAF8EAF9FAF3C
:1016A0002A972E966CAD7DAD8EAD9FAD2E9766962A
:1016B0002CAD3DAD4EAD5FAD66970E94C71A2E961C
:1016C0006CAF7DAF8EAF9FAF2E97C801B70120E002
:1016D00030E040E050E00E943E1B8823B4F460E01C
:1016E00070E080E090E029AD3AAD4BAD5CAD0E947A
:1016F000C61A69AF7AAF8BAF9CAF80E090E0A0E0F4
:10170000B0E089AB9AABABABBCAB69A97AA98BA9AA
:101710009CA920E030E048E852E40E94E01C181642
:10172000B4F460E070E080E090E029AD3AAD4BADFC
:101730005CAD0E94C61A69AF7AAF8BAF9CAF80E0F8
:1017400090E0A8E8B2E489AB9AABABABBCAB6DA9B7
:101750007EA98FA998AD20E030E040E151E40E94DD
:101760003E1B8823D4F460E070E080E090E0219696
:101770002CAD3DAD4EAD5FAD21970E94C61A2196AE
:101780006CAF7DAF8EAF9FAF219780E090E0A0E17E
:10179000B1E48DAB9EABAFABB8AF6DA97EA98FA9FD
:1017A00098AD20E030E040E052E40E94E01C1816C2
:1017B000D4F460E070E080E090E021962CAD3DAD87
:1017C0004EAD5FAD21970E94C61A21966CAF7DAFDA
:1017D0008EAF9FAF219780E090E0A0E0B2E48DABA8
:1017E0009EABAFABB8AF2A966CAD7DAD8EAD9FAD65
:1017F0002A9720E030E040E050E00E943E1B882322
:10180000E4F460E070E080E090E062962CAD3DADE5
:101810004EAD5FAD62970E94C61A62966CAF7DAF07
:101820008EAF9FAF629780E090E0A0E0B0E02A9694
:101830008CAF9DAFAEAFBFAF2A972A966CAD7DAD92
:101840008EAD9FAD2A9720E030E048E852E40E9438
:10185000E01C1816E4F460E070E080E090E062962E
:101860002CAD3DAD4EAD5FAD62970E94C61A62963B
:101870006CAF7DAF8EAF9FAF629780E090E0A8E83D
:10188000B2E42A968CAF9DAFAEAFBFAF2A972E962B
:101890006CAD7DAD8EAD9FAD2E9720E030E040E188
:1018A00051E40E943E1B8823E4F460E070E080E095
:1018B00090E066962CAD3DAD4EAD5FAD66970E9453
:1018C000C61A66966CAF7DAF8EAF9FAF669780E00D
:1018D00090E0A0E1B1E42E968CAF9DAFAEAFBFAF6C
:1018E0002E972E966CAD7DAD8EAD9FAD2E9720E0E0
:1018F00030E040E052E40E94E01C1816E4F460E09E
:1019000070E080E090E066962CAD3DAD4EAD5FADF1
:1019100066970E94C61A66966CAF7DAF8EAF9FAF7A
:10192000669780E090E0A0E0B2E42E968CAF9DAF89
:10193000AEAFBFAF2E970E9436108136C1F4EF8054
:10194000F88409851A85C801B70120E030E040E03D
:1019500050E00E94E01C18160CF05CC0C801B701F2
:1019600020E030E040E85FE30E94C61A19C08436E8
:10197000E1F4EF80F88409851A85C801B70120E0F9
:1019800030E04EE952E40E943E1B88230CF042C036
:10199000C801B70120E030E040E85FE30E94C71AC9
:1019A0006F83788789879A8735C08337B9F4EB844A
:1019B000FC840D851E85C801B70120E030E044E2BB
:1019C00052E40E943E1B88232CF5C801B70120E099
:1019D00030E040E85FE30E94C71A18C08737D1F4AF
:1019E000EB84FC840D851E85C801B70120E030E042
:1019F00040E151E40E94E01C181664F4C801B701EC
:101A000020E030E040E85FE30E94C61A6B877C87E5
:101A10008D879E8780910A0290910B0281309105FB
:101A200029F58091F201882399F01092F20118149F
:101A3000190474F4089481089108B401882777FD8B
:101A40008095982F0E94DD1B6F83788789879A87FE
:101A50008091F3018823D1F11092F3019FE489165C
:101A60009104A4F50894811C911C25C0029771F57E
:101A700080E00E9493028536910518F48824992409
:101A80001AC023E0883E920720F07FE4872E912C35
:101A900012C084569040BC0180E090E02FE430E01A
:101AA00040E050E00E94471D24E833E040E050E071
:101AB0000E94791D4901B401882777FD8095982FF0
:101AC0000E94DD1B6F83788789879A87C201B101E5
:101AD0000E94BA02892B09F45FC06C8D7D8D8E8DBA
:101AE0009F8D29A93AA94BA95CA90E94C61A0E94F8
:101AF000AA1B605F7F4F61327105E8F460E070E01F
:101B000080E090E02CA13DA14EA15FA10E94C61AE9
:101B10006CA37DA38EA39FA360E070E080E090E0C3
:101B200029AD3AAD4BAD5CAD0E94C61A69AF7AAF34
:101B30008BAF9CAF31C068A179A18AA19BA12DA9CF
:101B40003EA94FA958AD0E94C61A0E94AA1B605F09
:101B50007F4F6132710500F560E070E080E090E059
:101B600028A539A54AA55BA50E94C61A68A779A72A
:101B70008AA79BA760E070E080E090E021962CAD02
:101B80003DAD4EAD5FAD21970E94C61A21966CAF58
:101B90007DAF8EAF9FAF2197C201B3010E94BA0201
:101BA000892B09F467C06C8D7D8D8E8D9F8D2A9653
:101BB0002CAD3DAD4EAD5FAD2A970E94C61A0E9476
:101BC000AA1B605F7F4F6132710508F560E070E02D
:101BD00080E090E02CA13DA14EA15FA10E94C61A19
:101BE0006CA37DA38EA39FA360E070E080E090E0F3
:101BF00062962CAD3DAD4EAD5FAD62970E94C61AA8
:101C000062966CAF7DAF8EAF9FAF629733C068A115
:101C100079A18AA19BA12E962CAD3DAD4EAD5FADB5
:101C20002E970E94C61A0E94AA1B605F7F4F6132E6
:101C3000710500F560E070E080E090E028A539A52E
:101C40004AA55BA50E94C61A68A779A78AA79BA781
:101C500060E070E080E090E066962CAD3DAD4EAD6A
:101C60005FAD66970E94C61A66966CAF7DAF8EAF69
:101C70009FAF6697C101B3010E94BA02892B09F494
:101C80006BC069A97AA98BA99CA92A962CAD3DADF8
:101C90004EAD5FAD2A970E94C61A0E94AA1B605FD4
:101CA0007F4F6132710508F560E070E080E090E000
:101CB00029AD3AAD4BAD5CAD0E94C61A69AF7AAFA3
:101CC0008BAF9CAF60E070E080E090E062962CAD5E
:101CD0003DAD4EAD5FAD62970E94C61A62966CAF85
:101CE0007DAF8EAF9FAF629737C06DA97EA98FA9D8
:101CF00098AD2E962CAD3DAD4EAD5FAD2E970E94AA
:101D0000C61A0E94AA1B605F7F4F6132710520F5E1
:101D100060E070E080E090E021962CAD3DAD4EADEE
:101D20005FAD21970E94C61A21966CAF7DAF8EAF32
:101D30009FAF219760E070E080E090E066962CAD68
:101D40003DAD4EAD5FAD66970E94C61A66966CAF0C
:101D50007DAF8EAF9FAF6697C2010E94351AC10159
:101D60000E94351AC3010E94351ACE0107960E94BF
:101D7000351A0E948F050E948B198EA58823A9F021
:101D8000C201BE01695F7F4F0E94BA02892B69F0D0
:101D90008091FE019091FF0102969093FF01809344
:101DA000FE011EA644970CF02BC18EA5882309F0D6
:101DB00049C000E010E00F5F1F4F0636110509F41F
:101DC00041C080918400909185000E943C1E0E9439
:101DD000371E64E470E00E94661DAA2797FDA09557
:101DE000BA2FBC01CD010E94DD1B6C8F7D8F8E8FC1
:101DF0009F8F0E94371E67E170E00E94661D099662
:101E0000AA2797FDA095BA2FBC01CD010E94DD1B2A
:101E100068A379A38AA39BA3C201B1010E946C03AA
:101E2000892B49F6C201B3010E946C03892B19F674
:101E3000C201BE01695F7F4F0E946C03892B09F0CC
:101E4000BACFCEA624968FAD24978823A1F0C101E6
:101E5000BE01695F7F4F0E94BA02892B61F0249610
:101E60001FAE249785E0A81681E0B80624F088E824
:101E70009FEFA80EB91E24968FAD2497882309F0F2
:101E80004BC000E010E00F5F1F4F0636110509F44C
:101E900043C080918400909185000E943C1E0E9466
:101EA000371E64E470E00E94661DAA2797FDA09586
:101EB000BA2FBC01CD010E94DD1B69AB7AAB8BABA5
:101EC0009CAB0E94371E67E170E00E94661D099678
:101ED000AA2797FDA095BA2FBC01CD010E94DD1B5A
:101EE0006DAB7EAB8FAB98AFC101B2010E946C03AA
:101EF000892B49F6C101B3010E946C03892B19F6A5
:101F0000C101BE01695F7F4F0E946C03892B09F0FC
:101F1000BACF2496CFAE249769968FAD6997882360
:101F2000C1F0C301BE01695F7F4F0E94BA02892BD5
:101F300081F069961FAE6997809104029091050225
:101F4000823091050CF45CC0019790930502809358
:101F5000040269968FAD6997882309F0C5CA00E02D
:101F600010E00F5F1F4F0636110509F4BDCA8091BE
:101F70008400909185000E943C1E0E94371E64E4FC
:101F800070E00E94661DAA2797FDA095BA2FBC019C
:101F9000CD010E94DD1B2A966CAF7DAF8EAF9FAF47
:101FA0002A970E94371E67E170E00E94661D09961D
:101FB000AA2797FDA095BA2FBC01CD010E94DD1B79
:101FC0002E966CAF7DAF8EAF9FAF2E97C301B2013F
:101FD0000E946C03892B29F6C301B1010E946C0396
:101FE000892B09F0BECFC301BE01695F7F4F0E94FC
:101FF0006C03892B09F0B5CF6996CFAE699774CA87
:102000000E94911789E060E240E051E00E94661969
:102010000E948B1988E893E128EC30E0F9013197B0
:10202000F1F70197D9F78091F2018823E1F310923B
:10203000F20142C881E08093D70080EA8093D80003
:1020400082E189BD09B400FEFDCF80E98093D8000C
:102050001092E0001092F6011092F7018CE080934C
:10206000E200789408958091F60108952FB7F894CE
:102070008091F601882369F083E08093E9009BE674
:102080008091E80085FD09C082FF03C09093E800BD
:10209000F7CF2FBF2FEF3FEF0CC09091F100809151
:1020A000E80085FD03C08BE68093E8002FBF292F51
:1020B00030E0C90108952FB7F8948091F601882384
:1020C00011F490E010C083E08093E9009091F20059
:1020D000992349F48091E80082FF05C085FD03C083
:1020E0008BE68093E8002FBF892F08958091F60139
:1020F000882371F09FB7F89483E08093E9002BE682
:1021000002C02093E8008091E80085FDFACF9FBFD0
:102110000895482F8091F6018823D9F12FB7F894BC
:1021200084E08093E9008091F901882341F0809157
:10213000E80085FD02C02FBF12C01092F9019091F6
:10214000E400975E34E08091E80085FD13C02FBF66
:102150008091E400891729F481E08093F9018FEFE1
:1021600008958091F6018823A1F02FB7F894309359
:10217000E900E9CF4093F1008091E80085FD03C0BC
:102180008AE38093E80085E08093F8012FBF80E028
:1021900008958FEF0895282F8091F601882351F03C
:1021A0009FB7F89484E08093E9008091E80085FD72
:1021B00003C09FBF8FEF08952093F1008091E80046
:1021C00085FD03C08AE38093E80085E08093F801F1
:1021D0009FBF80E00895CF93DF93EC018091F601DB
:1021E000882309F41CC13FB7F89484E08093E90088
:1021F0008091F901882309F408C18091E80085FDE8
:1022000002C03FBF0CC11092F901FFC09091E400E1
:10221000975E8091E80085FD13C03FBF8091E40088
:10222000891721F481E08093F901F9C08091F601CA
:10223000882309F4F4C03FB7F894B093E900E9CFDC
:102240008091F200242F281B822F90E068177907D5
:1022500008F4262F822F90E08134910508F0C6C043
:102260008A5A9F4FFC01EE0FFF1F0590F491E02D5D
:10227000099489918093F10089918093F10089916B
:102280008093F10089918093F10089918093F1000E
:1022900089918093F10089918093F10089918093D5
:1022A000F10089918093F10089918093F1008991E7
:1022B0008093F10089918093F10089918093F100DE
:1022C00089918093F10089918093F10089918093A5
:1022D000F10089918093F10089918093F1008991B7
:1022E0008093F10089918093F10089918093F100AE
:1022F00089918093F10089918093F1008991809375
:10230000F10089918093F10089918093F100899186
:102310008093F10089918093F10089918093F1007D
:1023200089918093F10089918093F1008991809344
:10233000F10089918093F10089918093F100899156
:102340008093F10089918093F10089918093F1004D
:1023500089918093F10089918093F1008991809314
:10236000F10089918093F10089918093F100899126
:102370008093F10089918093F10089918093F1001D
:1023800089918093F10089918093F10089918093E4
:10239000F10089918093F10089918093F1008991F6
:1023A0008093F10089918093F10089918093F100ED
:1023B00089918093F10089918093F10089918093B4
:1023C000F10089918093F10089918093F1008991C6
:1023D0008093F10089918093F10089918093F100BD
:1023E00089918093F10089918093F1008991809384
:1023F000F1008091E80085FD02C05093E800621B67
:102400007109A093F8013FBF04C0B4E040E45AE36F
:10241000A5E06115710509F0F9CE80E001C08FEFEC
:10242000DF91CF9108959FB7F8948091F8018823A8
:1024300041F084E08093E9008AE38093E800109201
:10244000F8019FBF08956091E6017091E7018091C6
:10245000E8019091E90108958091EA010895809141
:10246000EB0108958091EC0108958091F7010895A2
:10247000282F9FB7F8948091F601882339F082E0E5
:102480008093E9008091E80085FD03C09FBF8FEF36
:10249000089581EA8093F10080E28093F100109228
:1024A000F1001092F1001092F1001092F10081E021
:1024B0008093F1001092F1002093F1008AE3809361
:1024C000E8009FBF80E008951F920F920FB60F9211
:1024D00011248F939F938091E1001092E100982F37
:1024E00083FF11C01092E90081E08093EB0010920D
:1024F000EC0082E18093ED0088E08093F000109280
:10250000F6011092F70192FF13C08091F601882323
:1025100079F08091F801882359F081508093F80177
:10252000882331F484E08093E9008AE38093E80013
:102530009F918F910F900FBE0F901F9018951F9233
:102540000F920FB60F9211240F931F932F933F9367
:102550004F935F936F937F938F939F93AF93BF93AB
:10256000EF93FF931092E9008091E80083FF3CC154
:102570004091F1003091F1008091F100682F70E0FE
:102580002091F100922F80E0682B792B8091F1004F
:10259000A82FB0E02091F100922F80E0A82BB92B5A
:1025A0001091F1000091F10082EF8093E800363045
:1025B00009F05AC025E331E0A90145505040F90126
:1025C0003797859194918617970701F5FA018591C0
:1025D00094918A179B07D1F49A012E5F3F4FF9011E
:1025E000659174912E5F3F4FF9014491212F30E0A6
:1025F000902F80E0282B392B2F3F310519F010F058
:102600002FEF30E0241758F4422F09C0295F3F4FC5
:10261000495F5F4FF1E02F353F0789F6E5C05EEF78
:102620008091E800282F30E0C90185709070892BD7
:10263000B9F322FDDCC0342F413108F030E1232F03
:10264000CB0106C0FC010196E491E093F10021501A
:102650002223C1F7630F711D431B5093E8004423ED
:10266000F9F63031E9F2C3C0353061F48EEF809372
:10267000E8008091E80080FFFCCF862F806880937F
:10268000E300B5C0393051F5442309F0ADC0609383
:10269000F6011092F7011092F8018EEF8093E80096
:1026A00088E591E021E02093E900FC010196E491A6
:1026B000E093EB00EE2369F0AC014F5F5F4FFC014C
:1026C00084918093EC00CA010196FA013491309311
:1026D000ED002F5F253039F78EE181C0383061F48D
:1026E000403809F081C08091E80080FFFCCF8091E4
:1026F000F6018093F10050C0313289F4413A09F07B
:1027000073C08091E80080FFFCCFE6EEF1E081919C
:102710008093F10081E0ED3EF807C9F73DC030320B
:10272000A1F4413209F060C08091E80082FFFCCF43
:10273000E6EEF1E08091F100819381E0ED3EF80753
:10274000C9F78BEF8093E80027C0323251F4413251
:1027500009F04AC06093F7018091E80080FFFCCF48
:102760001BC03323E9F48091E80080FFFCCF42389E
:1027700011F080E00DC0A093E9008091EB0090E0A3
:1027800025E0969587952A95E1F781701092E900EA
:102790008093F1001092F1008EEF8093E80027C043
:1027A000313011F0333001F54230F1F4672BE1F4B0
:1027B0002A2F2F77822F81508430B0F48EEF8093B0
:1027C000E8002093E900333079F089E18093EB0051
:1027D00081E090E002C0880F991F2A95E2F780936C
:1027E000EA001092EA0003C081E28093EB00FF91BF
:1027F000EF91BF91AF919F918F917F916F915F9179
:102800004F913F912F911F910F910F900FBE0F90FD
:102810001F901895A1E1B0E0E0E1F4E10C949B1D5C
:102820003C017F876E876A01FC01178216828381D3
:1028300081FD03C06FEF7FEF6FC39E012F5F3F4F9E
:10284000398B288BF3012381EE85FF8523FD85914C
:1028500023FF8191FF87EE87882309F45AC38532CD
:1028600051F4EE85FF8523FD859123FF8191FF873C
:10287000EE87853229F490E0B3010E94351FE2CF44
:10288000982F10E0882499241032B0F49B3269F01C
:102890009C3228F4903251F0933271F40BC09D3287
:1028A00039F0903349F4116028C01260146025C0DB
:1028B000186023C0106121C017FD2AC0892F8053E2
:1028C0008A3078F416FF06C0FAE09F9E902C1124FF
:1028D000980E13C03AE0839E802C1124880E10625B
:1028E0000CC09E3221F416FD14C3106406C09C3641
:1028F00011F4106802C0983659F4EE85FF8523FD67
:10290000959123FF9191FF87EE87992309F0BCCF22
:10291000892F8554833020F4812F8061905E07C019
:10292000892F8556833008F09FC1812F8F7E86FDC9
:1029300002C076E0972E6FE3F62EF822953619F452
:10294000F0E4FF2A07C0963619F420E8F22A02C004
:1029500091109A94F7FE0AC03BE3391518F45CE332
:10296000B52E02C0B92CB39427E009C047E0491541
:1029700020F4BB2447E0942EF7CF292DBB24C601B9
:1029800004969D878C87F601608171818281938195
:10299000AE014F5F5F4F0B2D0E94471E6C010981F6
:1029A000202E332400FF04C003FD02C01DE209C035
:1029B000F1FE02C01BE205C0F2FC02C010E001C043
:1029C00010E2C1018C709070892BB9F1112311F4C0
:1029D00083E001C084E0881510F088240AC0881ABA
:1029E000F3FC07C080E290E0B3010E94351F8A9497
:1029F000C9F7112329F0812F90E0B3010E94351F00
:102A000023FE03C007EF11E00EC00BEF11E00BC077
:102A1000E114F10409F0805290E0B3010E94351FE7
:102A20000F5F1F4F05C0EF2CFF24F0E1EF22FF24C2
:102A3000F8018491882361F714C1F7FE12C0BC0C21
:102A400024FE04C08A81813309F4BA941B141CF05B
:102A5000BB24B3942DC0F8E0FB1550F538E0B32E3D
:102A600027C0F6FC25C0892D90E08C159D054CF003
:102A70002CEFC2162FEFD20624F030E8F32A01C063
:102A80009A94992049F0E2E0F0E0EC0FFD1FE90D87
:102A9000F11D80818033A1F3F7FE0AC0B92CB394F5
:102AA000892D90E0C816D90614F0992401C09C180D
:102AB000F7FC03C025E030E009C01C141D041CF025
:102AC00021E030E003C096012F5F3F4F112311F04A
:102AD0002F5F3F4F992029F0892D90E00196280F14
:102AE000391F882D90E02817390714F0882401C079
:102AF000821A4F2C5524C20189709070892B39F0AD
:102B000008C080E290E0B3010E94351F8A948820BB
:102B1000C1F7112329F0812F90E0B3010E94351FE6
:102B200043FE07C008C080E390E0B3010E94351F58
:102B30008A948820C1F7F7FE46C08601D7FE02C0FE
:102B400000E010E076010894E11CF11CE01AF10AA3
:102B500041E050E04C0F5D1FE40EF51E26014B18BE
:102B60005108892D90E0AA24BB24A81AB90A5FEF66
:102B70000F3F150729F48EE290E0B3010E94351F44
:102B8000C016D10634F0401651061CF4F7018081BE
:102B900001C080E3015010400894E11CF11C0A15AB
:102BA0001B052CF090E0B3010E94351FE0CF0C15FF
:102BB0001D0539F49A81963318F4953311F424FEE7
:102BC00081E390E04BC08A81813309F00F7E90E071
:102BD000B3010E94351F9920A1F08EE290E0B3016D
:102BE0000E94351F12E0E1E0F0E0EC0FFD1FE10F65
:102BF000F11D1F5F808190E0B3010E94351F9A9400
:102C000091F744FC03C085E690E002C085E490E0C3
:102C1000B3010E94351FD7FC05C0C114D10441F493
:102C200004FF06C0D094C194D108D3948DE201C0B2
:102C30008BE290E0B3010E94351F80E305C08F5FF7
:102C400026EF3FEFC20ED31E3AE0C316D104BCF705
:102C500090E0B3010E94351FC601C096B3010E94E7
:102C6000351FCC84DD8452C1933631F0933799F00F
:102C7000933509F059C023C0F601808189835E0134
:102C80000894A11CB11C22E030E0C20ED31E21E04A
:102C9000E22EF12C12C0F601A080B18016FD03C017
:102CA0006FEF7FEF02C0692D70E022E030E0C20ECE
:102CB000D31EC5010E942A1F7C011F7713C0F60195
:102CC000A080B18016FD03C06FEF7FEF02C0692DB9
:102CD00070E022E030E0C20ED31EC5010E941F1F2B
:102CE0007C01106813FF07C01BC080E290E0B301B5
:102CF0000E94351F8A94882D90E0E816F906A8F303
:102D00000FC0F50117FD859117FF81915F0190E0DC
:102D1000B3010E94351F81108A940894E108F108DC
:102D2000E114F10471F7F2C0943611F0993689F587
:102D300017FF08C0F601208131814281538184E070
:102D400090E00AC0F601808191819C01442737FD03
:102D50004095542F82E090E0C80ED91E9FE6F92ED0
:102D6000F12257FF09C050954095309521953F4F6E
:102D70004F4F5F4F90E8F92ACA01B901AE014F5F8A
:102D80005F4F2AE030E00E94851FE82EE889EE1AA6
:102D900041C0953721F41F7E2AE030E01CC0197F26
:102DA0009F3661F0903720F4983509F0B2C00FC01B
:102DB000903739F0983709F0ACC004C028E030E013
:102DC0000AC0106114FD146020E130E004C014FD5D
:102DD000166020E132E017FF08C0F60160817181C2
:102DE0008281938144E050E008C0F60180819181A6
:102DF000BC0180E090E042E050E0C40ED51EAE0180
:102E00004F5F5F4F0E94851FE82E5889E51A8FE7B4
:102E1000F82EF122F6FE0BC08EEFF822E91438F4FA
:102E2000F4FE07C0F2FC05C09FEEF92202C01E2D81
:102E300001C0192DF4FE0DC0FE01EE0DF11D8081C3
:102E4000803319F4E9EEFE2208C01F5FF2FE05C0D0
:102E500003C08F2D867809F01F5F0F2DF3FC14C07F
:102E6000F0FE0FC0181510F09E2C0BC09E2C980C75
:102E7000911A182D06C080E290E0B3010E94351F20
:102E80001F5F1815C0F304C0181510F4811A01C093
:102E9000882404FF0FC080E390E0B3010E94351F37
:102EA00002FF1DC001FD03C088E790E00EC088E569
:102EB00090E00BC0802F867891F001FF02C08BE27A
:102EC00001C080E2F7FC8DE290E0B3010E94351F63
:102ED00006C080E390E0B3010E94351F9A94E91484
:102EE000C0F3EA94E1E0F0E0EC0FFD1FEE0DF11D00
:102EF000808190E0B3010E94351FEE2091F706C05B
:102F000080E290E0B3010E94351F8A948820C1F7C7
:102F100099CCF30166817781CB016196E2E10C9453
:102F2000B71DE0E1F2E0119284E0E830F807D9F74C
:102F30000895843580F5603370F5262F2695269503
:102F40002695677090E0442399F0E4E52E9FF00108
:102F50001124E80FF91FE05FFD4F81E090E002C00F
:102F6000880F991F6A95E2F72081282B2083089506
:102F7000E4E52E9FF0011124E80FF91FE05FFD4FFB
:102F800081E090E002C0880F991F6A95E2F7809572
:102F900020812823208308952F923F924F925F92A1
:102FA0006F927F928F929F92AF92BF92CF92DF9259
:102FB000EF92FF920F931F93DF93CF93CDB7DEB7BE
:102FC0002D970FB6F894DEBF0FBECDBFD82EC62EFC
:102FD000142F022F8417F9F4A62EBB24E22EFF240F
:102FE0000EC08D2D6A2D41E00E949917C01620F465
:102FF0000894A11CB11C03C00894A108B108C01614
:1030000028F4EA14FB040CF4FEC0EBCFAE14BF04AA
:103010000CF4F9C0E6CF282F30E06017F9F4C901AD
:103020005C01E42EFF240EC08A2D6C2D41E00E942D
:103030009917D11620F40894A11CB11C03C0089460
:10304000A108B108D11628F4EA14FB040CF4DBC083
:10305000EBCFAE14BF040CF4D6C0E6CF842F90E0C3
:103060009A838983C9015C0169817A81681B790B24
:10307000882777FD8095982F0E94DD1B6F837887C6
:1030800089879A87202E33244C2C5524B10164194A
:103090007509882777FD8095982F0E94DD1B3B01DD
:1030A0004C012F81388549855A850E94421B6B83CC
:1030B0007C838D839E8320E030E040E050E00E94DE
:1030C000E01C87FF0DC0C401B30190582F813885E3
:1030D00049855A850E94421B6B837C838D839E8326
:1030E0000F2EF0E0CF2EF0E0DF2EF0E0EF2EF0E03C
:1030F000FF2EF02D70C0AB868A2D642D41E00E941A
:103100009917C701B6012B813C814D815E810E94D8
:10311000C71A31C08B85642D41E00E9499171D8626
:103120001C86C401B30120E030E040E050E00E9482
:10313000E01C181624F4E1E0F0E0FD87EC8700E0E5
:1031400010E0C401B30120E030E040E050E00E9414
:103150003E1B882314F401E010E08C859D85801BC4
:10316000910B480E591EC701B60120E030E040E83F
:103170005FE30E94C61A6B017C0120E030E040E072
:103180005FE30E94E01C88239CF0C401B30120E0AF
:1031900030E040E050E00E94E01C18162CF42414AB
:1031A00035040CF0B7CF04C0421453040CF0B2CF76
:1031B0006F81788589859A8520E030E040E050E095
:1031C0000E94E01C181624F40894A11CB11C03C032
:1031D0000894A108B1086F81788589859A8520E0D7
:1031E00030E040E050E00E94E01C181634F4E98121
:1031F000FA81EA15FB053CF07ECF89819A81A816F9
:10320000B9060CF078CF2D960FB6F894DEBF0FBE3E
:10321000CDBFCF91DF911F910F91FF90EF90DF9085
:10322000CF90BF90AF909F908F907F906F905F9066
:103230004F903F902F9008959F92AF92BF92CF9260
:10324000DF92EF92FF920F931F93CF93DF93982E0D
:10325000C62E85E0489FE0011124C05AD04000E00E
:1032600081E0A82EB12C18C0612F6C0DA501012E94
:1032700002C0440F551F0A94E2F74E215F21012E30
:1032800002C0559547950A94E2F78D2D0E94991733
:103290001F5F183049F70F5F053061F0FE01E00F46
:1032A000F11DE150FE4F10E0E491D02ED90CEE2E2E
:1032B000FF24EFCFDF91CF911F910F91FF90EF90FF
:1032C000DF90CF90BF90AF909F900895EF92FF92C4
:1032D0000F931F93CF93DF93F82E062F142F242FD5
:1032E000352FC901EC0195E0E92E08C08E9DC00183
:1032F00011248F0D602F0E941C1921969E01211B05
:10330000822F4881442391F7DF91CF911F910F9134
:10331000FF90EF900895CF93DF9380E060E00E94EC
:10332000001AC0E1D2E081E069910E949E1984E018
:10333000C830D807C1F7DF91CF91089595B1829534
:10334000880F807E9F7D982B95B95F9827E030E0AD
:1033500070E08F98CB01022E02C0959587950A9454
:10336000E2F780FF02C02E9A01C02E988F9A21505A
:1033700030408FEF2F3F380761F75F9A08951F9312
:10338000182F579A249A259A269A879A2C985F9AEA
:103390002C9A80E061E20E949E19106880E0612F03
:1033A0000E949E1980E064E00E949E1980E063E123
:1033B0000E949E1980E06CE00E949E1980E060E20D
:1033C0000E949E1980E06CE00E949E1980E060E4FB
:1033D0000E949E1980E060E80E949E191F91089546
:1033E000CF93DF93C0E0D0E081E060E00E949E19BF
:1033F000219681E0C83FD807B9F7DF91CF910895B2
:103400001F93182F606480E00E949E19106880E06E
:10341000612F0E949E191F910895AF92BF92CF9283
:10342000EF920F931F93FC01408351836283738358
:103430000483158326833783E08AC18AB48AA38AEA
:1034400081E0828B80E090E0A0E0B0E0808791870F
:10345000A287B38784879587A687B7871F910F9127
:10346000EF90CF90BF90AF9008953F924F925F92B0
:103470006F927F928F929F92AF92BF92CF92DF9284
:10348000EF92FF920F931F93CF93DF93EC018A8902
:10349000882309F469C0688970E0882777FD8095E2
:1034A000982F0E94DD1B20E030E040E05EE30E94A8
:1034B000E41C0E942B1B0E94AF1B362E882447C0A1
:1034C000092D10E0B801882777FD8095982F0E947C
:1034D000DD1B20E030E040E05EE30E94E41C0E943F
:1034E000181C6B017C01688179818A819B810E9413
:1034F000AF1BA92CA60E6C817D818E819F810E94BD
:10350000AF1BB82CB60EC301B2010E94DD1BA70190
:1035100096010E94C71A0E94AA1BEB89FC89E60F3C
:10352000F71F408150E0009510950770107002C0A1
:10353000559547950A95E2F741708A2D6B2D0E94AB
:10354000991793948889981608F4BACF8394898937
:10355000881650F4839CC001112499242C01662400
:1035600057FC6094762CEECFDF91CF911F910F9195
:10357000FF90EF90DF90CF90BF90AF909F908F9093
:103580007F906F905F904F903F9008955058BB2769
:10359000AA270ED0C4C1B5D130F0BAD120F031F491
:1035A0009F3F11F41EF4AAC10EF4E095E7FB77C12A
:1035B000E92FC6D180F3BA1762077307840795070E
:1035C00018F071F49EF5F5C10EF4E0950B2EBA2FAC
:1035D000A02D0B01B90190010C01CA01A001112419
:1035E000FF27591B99F0593F50F4503E68F11A16C5
:1035F000F040A22F232F342F4427585FF3CF469556
:1036000037952795A795F0405395C9F77EF41F1677
:10361000BA0B620B730B840BBAF09150A1F0FF0F41
:10362000BB1F661F771F881FC2F70EC0BA0F621F2D
:10363000731F841F48F4879577956795B795F7951D
:103640009E3F08F0B3CF9395880F08F09927EE0FAF
:1036500097958795089596D180F09F3740F4911102
:103660000EF4A8C160E070E080E89FE3089526F0C2
:103670001B16611D711D811D18C132C1ECD008F4EB
:1036800081E008950CD04BC143D140F03AD130F0E5
:1036900021F45F3F19F003C151118CC12FC150D1EA
:1036A00098F39923C9F35523B1F3951B550BBB2709
:1036B000AA2762177307840738F09F5F5F4F220FB6
:1036C000331F441FAA1FA9F333D00E2E3AF0E0E8AF
:1036D00030D091505040E695001CCAF729D0FE2FFB
:1036E00027D0660F771F881FBB1F2617370748078D
:1036F000AB07B0E809F0BB0B802DBF01FF27935843
:103700005F4F2AF09E3F510568F0C9C053C15F3F2B
:10371000ECF3983EDCF3869577956795B795F7952A
:103720009F5FC9F7880F911D9695879597F9089522
:10373000E1E0660F771F881FBB1F621773078407BE
:10374000BA0720F0621B730B840BBA0BEE1F88F7CD
:10375000E095089504D06894B1112CC10895F8D073
:1037600088F09F5790F0B92F9927B751A0F0D1F06A
:10377000660F771F881F991F1AF0BA95C9F712C0F4
:10378000B13081F016D1B1E0089513C1672F782FC1
:103790008827B85F39F0B93FCCF386957795679560
:1037A000B395D9F73EF490958095709561957F4FCC
:1037B0008F4F9F4F0895E89409C097FB3EF4909572
:1037C0008095709561957F4F8F4F9F4F9923A9F0FA
:1037D000F92F96E9BB279395F69587957795679589
:1037E000B795F111F8CFFAF4BB0F11F460FF1BC0CD
:1037F0006F5F7F4F8F4F9F4F16C0882311F096E960
:1038000011C0772321F09EE8872F762F05C066230D
:1038100071F096E8862F70E060E02AF09A95660FC6
:10382000771F881FDAF7880F9695879597F908957F
:10383000A9D080F09F3740F491110EF0BBC060E03A
:1038400070E080E89FEB089526F41B16611D711D42
:10385000811D2BC045C0990F0008550FAA0BE0E849
:10386000FEEF16161706E807F907C0F01216130642
:10387000E407F50798F0621B730B840B950B39F482
:103880000A2661F0232B242B252B21F408950A26E8
:1038900009F4A140A6958FEF811D811D089597F928
:1038A0009F6780E870E060E00895882371F47723D3
:1038B00021F09850872B762F07C0662311F49927A3
:1038C0000DC09051862B70E060E02AF09A95660F4B
:1038D000771F881FDAF7880F9695879597F90895CF
:1038E0009F3F31F0915020F4879577956795B79574
:1038F000880F911D9695879597F908959FEF80EC15
:10390000089500240A941616170618060906089545
:1039100000240A9412161306140605060895092EAB
:103920000394000C11F4882352F0BB0F40F4BF2B1A
:1039300011F460FF04C06F5F7F4F8F4F9F4F08955A
:1039400057FD9058440F551F59F05F3F71F0479550
:10395000880F97FB991F61F09F3F79F08795089535
:10396000121613061406551FF2CF4695F1DF08C054
:10397000161617061806991FF1CF86957105610571
:1039800008940895E5DFA0F0BEE7B91788F4BB27D7
:103990009F3860F41616B11D672F782F8827985F1F
:1039A000F7CF869577956795B11D93959639C8F3AE
:1039B0000895E894BB2766277727CB0197F90895E8
:1039C0004ADF08F48FEF08950BD0A9CF9ADF28F0D3
:1039D0009FDF18F0952309F062CF90CF1124EACF32
:1039E000AFDFA0F3959FD1F3950F50E0551F629F75
:1039F000F001729FBB27F00DB11D639FAA27F00D48
:103A0000B11DAA1F649F6627B00DA11D661F829F6E
:103A10002227B00DA11D621F739FB00DA11D621F53
:103A2000839FA00D611D221F749F3327A00D611D70
:103A3000231F849F600D211D822F762F6A2F112452
:103A40009F5750408AF0E1F088234AF0EE0FFF1FA5
:103A5000BB1F661F771F881F91505040A9F79E3FDC
:103A6000510570F01CCFA6CF5F3FECF3983EDCF31E
:103A7000869577956795B795F795E7959F5FC1F719
:103A8000FE2B880F911D9695879597F90895629F53
:103A9000D001739FF001829FE00DF11D649FE00D46
:103AA000F11D929FF00D839FF00D749FF00D659FA7
:103AB000F00D9927729FB00DE11DF91F639FB00DA6
:103AC000E11DF91FBD01CF011124089597FB092EB7
:103AD00007260AD077FD04D065D006D000201AF45E
:103AE000709561957F4F0895F6F7909581959F4F5A
:103AF0000895A1E21A2EAA1BBB1BFD010DC0AA1F2F
:103B0000BB1FEE1FFF1FA217B307E407F50720F046
:103B1000A21BB30BE40BF50B661F771F881F991FC1
:103B20001A9469F760957095809590959B01AC010A
:103B3000BD01CF0108952F923F924F925F926F92F5
:103B40007F928F929F92AF92BF92CF92DF92EF922D
:103B5000FF920F931F93CF93DF93CDB7DEB7CA1BAE
:103B6000DB0B0FB6F894DEBF0FBECDBF09942A88D9
:103B7000398848885F846E847D848C849B84AA8481
:103B8000B984C884DF80EE80FD800C811B81AA810E
:103B9000B981CE0FD11D0FB6F894DEBF0FBECDBFD9
:103BA000ED010895AA1BBB1B51E107C0AA1FBB1F53
:103BB000A617B70710F0A61BB70B881F991F5A95B9
:103BC000A9F780959095BC01CD010895A0E0B0E0E3
:103BD000ECEEFDE10C94A31DEC01A880B980CA8035
:103BE000DB80A114B104C104D10441F484E2A82E05
:103BF00089EDB82E8BE5C82E87E0D82EC601B50119
:103C00002DE133EF41E050E00E94E31F27EA31E469
:103C100040E050E00E94471D7B018C01C601B501C8
:103C20002DE133EF41E050E00E94E31FCA01B901EA
:103C30002CEE34EF4FEF5FEF0E94471D6E0D7F1D9E
:103C4000801F911F97FF04C06150704080409048D2
:103C5000688379838A839B839B013F77C901CDB7B2
:103C6000DEB7EAE00C94BF1D0E94E61D08958DEEBC
:103C700091E00E94E61D0895A0E0B0E08093ED0180
:103C80009093EE01A093EF01B093F00108952830D6
:103C900008F027E03327DA01990F311D87FD916085
:103CA00000966105710539F432602E5F3D9330E373
:103CB0002A95E1F708959F3F30F08038710561053E
:103CC00009F03C5F3C5F3D93913008F08068911DA6
:103CD000DF93CF931F930F93FF92EF92192F987F4B
:103CE0009695E92F96959695E90FFF27E75CFB4F90
:103CF00099273327EE24FF24A701E70105900894B4
:103D0000079428F4360FE71EF81E491F511D660F51
:103D1000771F881F991F0694A1F70590079428F430
:103D2000E70EF81E491F561FC11D770F881F991FE8
:103D3000661F0694A1F70590079428F4F80E491F12
:103D4000561FC71FD11D880F991F661F771F069426
:103D5000A1F70590079420F4490F561FC71FD81FDD
:103D6000990F661F771F881F0694A9F784911095F5
:103D7000177041F0D695C79557954795F794E794F6
:103D80001A95C1F7EFEDF3E0689415901591359110
:103D90006591959105907FE27395E118F10A430BC7
:103DA000560BC90BD009C0F7E10CF11E431F561F7B
:103DB000C91FD01D7EF4703311F48A95E6CFE894C4
:103DC000015030F0080F0AF40027021708F4202FE2
:103DD0002395022F7A3328F079E37D932A95E9F72A
:103DE00010C07D932A9589F6069497956795379527
:103DF00017951794E118F10A430B560BC90BD0091C
:103E000098F023957E9173957A3308F070E37C9354
:103E10002013B8F77E9170617D9330F0839571E344
:103E20007D9370E32A95E1F71124EF90FF900F91B5
:103E30001F91CF91DF91992787FD90950895FC01FF
:103E40000590615070400110D8F7809590958E0FC5
:103E50009F1F0895FC016150704001900110D8F738
:103E6000809590958E0F9F1F08950F931F93CF936A
:103E7000DF938C01EB018B8181FF1BC082FF0DC0A2
:103E80002E813F818C819D812817390764F4E88158
:103E9000F9810193F983E88306C0E885F985802FCD
:103EA0000995892B31F48E819F8101969F838E83A2
:103EB00002C00FEF1FEFC801DF91CF911F910F914B
:103EC0000895AEE0B0E0E7E6FFE10C94A91D0D898E
:103ED0001E8986E08C831A8309838FEF9FE79E8378
:103EE0008D839E01275E3F4FCE0101966F89788DAD
:103EF000A9010E940A142F813885020F131FF801AF
:103F000010822E96E4E00C94C51DFA01AA272830F1
:103F100051F1203181F1E8946F936E7F6E5F7F4F96
:103F20008F4F9F4FAF4FB1E03ED0B4E03CD0670F12
:103F3000781F891F9A1FA11D680F791F8A1F911D65
:103F4000A11D6A0F711D811D911DA11D20D009F4B5
:103F500068943F912AE0269F11243019305D3193F7
:103F6000DEF6CF010895462F4770405D4193B3E0E0
:103F70000FD0C9F7F6CF462F4F70405D4A3318F087
:103F8000495D31FD4052419302D0A9F7EACFB4E038
:103F9000A6959795879577956795BA95C9F70097F0
:103FA0006105710508959B01AC010A2E0694579591
:103FB000479537952795BA95C9F7620F731F841FE8
:103FC000951FA01D089597FB092E05260ED057FDBD
:103FD00004D08FDD0AD0001C38F450954095309500
:103FE00021953F4F4F4F5F4F0895F6F7909580957D
:103FF000709561957F4F8F4F9F4F0895F894FFCF35
:1040000047616D65204F7665720047616D65204C94
:104010006576656C3A202564002020202020202031
:10402000202020202020202020004E616D65005996
:10403000756E616E2057616E670053747564656EAE
:1040400074204E756D626572004E383936353931DF
:1040500039004C3A2025642C20533A20256400076F
:10406000E0181820044002581A9819800180019025
:10407000099009881147E240022004181807E00758
:10408000E0181820044002581A981980018001870E
:10409000E188119009500A40022004181807E0072F
:1040A000E018182004400288118421824180018098
:1040B0000183C18421481240022004181807E088B7
:1040C0008888F88888880000010001000000FFFF50
:1040D000FFFF01000100FFFF00000000FFFFFFFFE6
:1040E00001000100FFFF00E10000000008010000E6
:0240F0000000CE
:00000001FF
